{"abi":[{"type":"function","name":"extractString","inputs":[{"name":"_json","type":"string","internalType":"string"},{"name":"_key","type":"string","internalType":"string"}],"outputs":[{"name":"","type":"string","internalType":"string"}],"stateMutability":"pure"}],"bytecode":{"object":"0x608060405234801561000f575f80fd5b506109a88061001d5f395ff3fe608060405234801561000f575f80fd5b5060043610610029575f3560e01c8063c25bcda91461002d575b5f80fd5b61004760048036038101906100429190610752565b61005d565b6040516100549190610842565b60405180910390f35b60605f8390505f8390505f600482516100769190610898565b67ffffffffffffffff81111561008f5761008e61062e565b5b6040519080825280601f01601f1916602001820160405280156100c15781602001600182028036833780820191505090505b5090507f2200000000000000000000000000000000000000000000000000000000000000815f815181106100f8576100f76108cb565b5b60200101907effffffffffffffffffffffffffffffffffffffffffffffffffffffffffffff191690815f1a9053505f5b82518110156101a957828181518110610144576101436108cb565b5b602001015160f81c60f81b8260018361015d9190610898565b8151811061016e5761016d6108cb565b5b60200101907effffffffffffffffffffffffffffffffffffffffffffffffffffffffffffff191690815f1a9053508080600101915050610128565b507f220000000000000000000000000000000000000000000000000000000000000081600184516101da9190610898565b815181106101eb576101ea6108cb565b5b60200101907effffffffffffffffffffffffffffffffffffffffffffffffffffffffffffff191690815f1a9053507f3a0000000000000000000000000000000000000000000000000000000000000081600284516102499190610898565b8151811061025a576102596108cb565b5b60200101907effffffffffffffffffffffffffffffffffffffffffffffffffffffffffffff191690815f1a9053507f220000000000000000000000000000000000000000000000000000000000000081600384516102b89190610898565b815181106102c9576102c86108cb565b5b60200101907effffffffffffffffffffffffffffffffffffffffffffffffffffffffffffff191690815f1a9053505f61030284836104e5565b9050835181036103265760405180602001604052805f8152509450505050506104df565b5f808351836103359190610898565b90505b85518110156103bc577f2200000000000000000000000000000000000000000000000000000000000000868281518110610375576103746108cb565b5b602001015160f81c60f81b7effffffffffffffffffffffffffffffffffffffffffffffffffffffffffffff1916036103af578091506103bc565b8080600101915050610338565b505f81036103df5760405180602001604052805f815250955050505050506104df565b5f8351836103ed9190610898565b826103f891906108f8565b67ffffffffffffffff8111156104115761041061062e565b5b6040519080825280601f01601f1916602001820160405280156104435781602001600182028036833780820191505090505b5090505f5b81518110156104d45786818651866104609190610898565b61046a9190610898565b8151811061047b5761047a6108cb565b5b602001015160f81c60f81b828281518110610499576104986108cb565b5b60200101907effffffffffffffffffffffffffffffffffffffffffffffffffffffffffffff191690815f1a9053508080600101915050610448565b508096505050505050505b92915050565b5f808251036104f6575f90506105ff565b82518251111561050957825190506105ff565b5f5b8251845161051991906108f8565b81116105f9575f600190505f5b84518110156105d457848181518110610542576105416108cb565b5b602001015160f81c60f81b7effffffffffffffffffffffffffffffffffffffffffffffffffffffffffffff191686828561057c9190610898565b8151811061058d5761058c6108cb565b5b602001015160f81c60f81b7effffffffffffffffffffffffffffffffffffffffffffffffffffffffffffff1916146105c7575f91506105d4565b8080600101915050610526565b5080156105e55781925050506105ff565b5080806105f19061092b565b91505061050b565b50825190505b92915050565b5f604051905090565b5f80fd5b5f80fd5b5f80fd5b5f80fd5b5f601f19601f8301169050919050565b7f4e487b71000000000000000000000000000000000000000000000000000000005f52604160045260245ffd5b6106648261061e565b810181811067ffffffffffffffff821117156106835761068261062e565b5b80604052505050565b5f610695610605565b90506106a1828261065b565b919050565b5f67ffffffffffffffff8211156106c0576106bf61062e565b5b6106c98261061e565b9050602081019050919050565b828183375f83830152505050565b5f6106f66106f1846106a6565b61068c565b9050828152602081018484840111156107125761071161061a565b5b61071d8482856106d6565b509392505050565b5f82601f83011261073957610738610616565b5b81356107498482602086016106e4565b91505092915050565b5f80604083850312156107685761076761060e565b5b5f83013567ffffffffffffffff81111561078557610784610612565b5b61079185828601610725565b925050602083013567ffffffffffffffff8111156107b2576107b1610612565b5b6107be85828601610725565b9150509250929050565b5f81519050919050565b5f82825260208201905092915050565b5f5b838110156107ff5780820151818401526020810190506107e4565b5f8484015250505050565b5f610814826107c8565b61081e81856107d2565b935061082e8185602086016107e2565b6108378161061e565b840191505092915050565b5f6020820190508181035f83015261085a818461080a565b905092915050565b5f819050919050565b7f4e487b71000000000000000000000000000000000000000000000000000000005f52601160045260245ffd5b5f6108a282610862565b91506108ad83610862565b92508282019050808211156108c5576108c461086b565b5b92915050565b7f4e487b71000000000000000000000000000000000000000000000000000000005f52603260045260245ffd5b5f61090282610862565b915061090d83610862565b92508282039050818111156109255761092461086b565b5b92915050565b5f61093582610862565b91507fffffffffffffffffffffffffffffffffffffffffffffffffffffffffffffffff82036109675761096661086b565b5b60018201905091905056fea2646970667358221220535dd37b32f71f58ed05d3b3e0953d346e196c32838df7c0968b37cfb74c870c64736f6c63430008180033","linkReferences":{}},"methodIdentifiers":{"extractString(string,string)":"c25bcda9"},"id":19}