{"abi":[{"type":"constructor","inputs":[],"stateMutability":"nonpayable"},{"type":"function","name":"UPGRADE_INTERFACE_VERSION","inputs":[],"outputs":[{"name":"","type":"string","internalType":"string"}],"stateMutability":"view"},{"type":"function","name":"extractString","inputs":[{"name":"_json","type":"string","internalType":"string"},{"name":"_key","type":"string","internalType":"string"}],"outputs":[{"name":"","type":"string","internalType":"string"}],"stateMutability":"pure"},{"type":"function","name":"extractUint","inputs":[{"name":"_json","type":"string","internalType":"string"},{"name":"_key","type":"string","internalType":"string"}],"outputs":[{"name":"","type":"uint256","internalType":"uint256"}],"stateMutability":"pure"},{"type":"function","name":"initialize","inputs":[{"name":"initialOwner","type":"address","internalType":"address"}],"outputs":[],"stateMutability":"nonpayable"},{"type":"function","name":"owner","inputs":[],"outputs":[{"name":"","type":"address","internalType":"address"}],"stateMutability":"view"},{"type":"function","name":"proxiableUUID","inputs":[],"outputs":[{"name":"","type":"bytes32","internalType":"bytes32"}],"stateMutability":"view"},{"type":"function","name":"renounceOwnership","inputs":[],"outputs":[],"stateMutability":"nonpayable"},{"type":"function","name":"transferOwnership","inputs":[{"name":"newOwner","type":"address","internalType":"address"}],"outputs":[],"stateMutability":"nonpayable"},{"type":"function","name":"upgradeToAndCall","inputs":[{"name":"newImplementation","type":"address","internalType":"address"},{"name":"data","type":"bytes","internalType":"bytes"}],"outputs":[],"stateMutability":"payable"},{"type":"event","name":"Initialized","inputs":[{"name":"version","type":"uint64","indexed":false,"internalType":"uint64"}],"anonymous":false},{"type":"event","name":"OwnershipTransferred","inputs":[{"name":"previousOwner","type":"address","indexed":true,"internalType":"address"},{"name":"newOwner","type":"address","indexed":true,"internalType":"address"}],"anonymous":false},{"type":"event","name":"Upgraded","inputs":[{"name":"implementation","type":"address","indexed":true,"internalType":"address"}],"anonymous":false},{"type":"error","name":"AddressEmptyCode","inputs":[{"name":"target","type":"address","internalType":"address"}]},{"type":"error","name":"ERC1967InvalidImplementation","inputs":[{"name":"implementation","type":"address","internalType":"address"}]},{"type":"error","name":"ERC1967NonPayable","inputs":[]},{"type":"error","name":"FailedCall","inputs":[]},{"type":"error","name":"InvalidInitialization","inputs":[]},{"type":"error","name":"NotInitializing","inputs":[]},{"type":"error","name":"OwnableInvalidOwner","inputs":[{"name":"owner","type":"address","internalType":"address"}]},{"type":"error","name":"OwnableUnauthorizedAccount","inputs":[{"name":"account","type":"address","internalType":"address"}]},{"type":"error","name":"UUPSUnauthorizedCallContext","inputs":[]},{"type":"error","name":"UUPSUnsupportedProxiableUUID","inputs":[{"name":"slot","type":"bytes32","internalType":"bytes32"}]}],"bytecode":{"object":"0x60a06040523073ffffffffffffffffffffffffffffffffffffffff1660809073ffffffffffffffffffffffffffffffffffffffff1681525034801562000043575f80fd5b50620000546200005a60201b60201c565b620001e1565b5f6200006b6200015e60201b60201c565b9050805f0160089054906101000a900460ff1615620000b6576040517ff92ee8a900000000000000000000000000000000000000000000000000000000815260040160405180910390fd5b67ffffffffffffffff8016815f015f9054906101000a900467ffffffffffffffff1667ffffffffffffffff16146200015b5767ffffffffffffffff815f015f6101000a81548167ffffffffffffffff021916908367ffffffffffffffff1602179055507fc7f505b2f371ae2175ee4913f4499e1f2633a7b5936321eed1cdaeb6115181d267ffffffffffffffff604051620001529190620001c6565b60405180910390a15b50565b5f80620001706200017960201b60201c565b90508091505090565b5f7ff0c57e16840df040f15088dc2f81fe391c3923bec73e23a9662efc9c229c6a005f1b905090565b5f67ffffffffffffffff82169050919050565b620001c081620001a2565b82525050565b5f602082019050620001db5f830184620001b5565b92915050565b608051611d6d620002085f395f8181610c0901528181610c5e0152610e180152611d6d5ff3fe608060405260043610610085575f3560e01c80638da5cb5b116100585780638da5cb5b14610121578063ad3cb1cc1461014b578063c25bcda914610175578063c4d66de8146101b1578063f2fde38b146101d957610085565b8063298967e4146100895780634f1ef286146100c557806352d1902d146100e1578063715018a61461010b575b5f80fd5b348015610094575f80fd5b506100af60048036038101906100aa919061177b565b610201565b6040516100bc9190611809565b60405180910390f35b6100df60048036038101906100da919061191a565b610275565b005b3480156100ec575f80fd5b506100f5610294565b604051610102919061198c565b60405180910390f35b348015610116575f80fd5b5061011f6102c5565b005b34801561012c575f80fd5b506101356102d8565b60405161014291906119b4565b60405180910390f35b348015610156575f80fd5b5061015f61030d565b60405161016c9190611a47565b60405180910390f35b348015610180575f80fd5b5061019b6004803603810190610196919061177b565b610346565b6040516101a89190611a47565b60405180910390f35b3480156101bc575f80fd5b506101d760048036038101906101d29190611a67565b610433565b005b3480156101e4575f80fd5b506101ff60048036038101906101fa9190611a67565b6105bc565b005b5f8061020d8484610640565b90505f810361021f575f91505061026f565b5f61022a8583610836565b90505f810361023d575f9250505061026f565b5f610248868361093f565b90505f810361025657855190505b610269610264878484610a45565b610b37565b93505050505b92915050565b61027d610c07565b61028682610ced565b6102908282610cf8565b5050565b5f61029d610e16565b7f360894a13ba1a3210667c828492db98dca3e2076cc3735a920a3ca505d382bbc5f1b905090565b6102cd610e9d565b6102d65f610f24565b565b5f806102e2610ff5565b9050805f015f9054906101000a900473ffffffffffffffffffffffffffffffffffffffff1691505090565b6040518060400160405280600581526020017f352e302e3000000000000000000000000000000000000000000000000000000081525081565b60605f6103538484610640565b90505f81036103735760405180602001604052805f81525091505061042d565b5f61039f857f22000000000000000000000000000000000000000000000000000000000000008461101c565b90505f81036103c05760405180602001604052805f8152509250505061042d565b80806103cb90611abf565b9150505f6103fa867f22000000000000000000000000000000000000000000000000000000000000008461101c565b90505f810361041c5760405180602001604052805f815250935050505061042d565b610427868383610a45565b93505050505b92915050565b5f61043c6110bb565b90505f815f0160089054906101000a900460ff161590505f825f015f9054906101000a900467ffffffffffffffff1690505f808267ffffffffffffffff161480156104845750825b90505f60018367ffffffffffffffff161480156104b757505f3073ffffffffffffffffffffffffffffffffffffffff163b145b9050811580156104c5575080155b156104fc576040517ff92ee8a900000000000000000000000000000000000000000000000000000000815260040160405180910390fd5b6001855f015f6101000a81548167ffffffffffffffff021916908367ffffffffffffffff1602179055508315610549576001855f0160086101000a81548160ff0219169083151502179055505b610552866110ce565b61055a6110e2565b83156105b4575f855f0160086101000a81548160ff0219169083151502179055507fc7f505b2f371ae2175ee4913f4499e1f2633a7b5936321eed1cdaeb6115181d260016040516105ab9190611b5b565b60405180910390a15b505050505050565b6105c4610e9d565b5f73ffffffffffffffffffffffffffffffffffffffff168173ffffffffffffffffffffffffffffffffffffffff1603610634575f6040517f1e4fbdf700000000000000000000000000000000000000000000000000000000815260040161062b91906119b4565b60405180910390fd5b61063d81610f24565b50565b5f808390505f8390505f600282516106589190611b74565b67ffffffffffffffff81111561067157610670611657565b5b6040519080825280601f01601f1916602001820160405280156106a35781602001600182028036833780820191505090505b5090507f2200000000000000000000000000000000000000000000000000000000000000815f815181106106da576106d9611ba7565b5b60200101907effffffffffffffffffffffffffffffffffffffffffffffffffffffffffffff191690815f1a9053505f5b825181101561078b5782818151811061072657610725611ba7565b5b602001015160f81c60f81b8260018361073f9190611b74565b815181106107505761074f611ba7565b5b60200101907effffffffffffffffffffffffffffffffffffffffffffffffffffffffffffff191690815f1a905350808060010191505061070a565b507f220000000000000000000000000000000000000000000000000000000000000081600184516107bc9190611b74565b815181106107cd576107cc611ba7565b5b60200101907effffffffffffffffffffffffffffffffffffffffffffffffffffffffffffff191690815f1a9053505f61080684836110ec565b90508351810361081c575f945050505050610830565b8151816108299190611b74565b9450505050505b92915050565b5f808390505f8390505b8151811015610933577f300000000000000000000000000000000000000000000000000000000000000082828151811061087d5761087c611ba7565b5b602001015160f81c60f81b7effffffffffffffffffffffffffffffffffffffffffffffffffffffffffffff19161015801561091757507f39000000000000000000000000000000000000000000000000000000000000008282815181106108e7576108e6611ba7565b5b602001015160f81c60f81b7effffffffffffffffffffffffffffffffffffffffffffffffffffffffffffff191611155b15610926578092505050610939565b8080600101915050610840565b505f9150505b92915050565b5f808390505f8390505b8151811015610a39577f300000000000000000000000000000000000000000000000000000000000000082828151811061098657610985611ba7565b5b602001015160f81c60f81b7effffffffffffffffffffffffffffffffffffffffffffffffffffffffffffff19161080610a1d57507f39000000000000000000000000000000000000000000000000000000000000008282815181106109ee576109ed611ba7565b5b602001015160f81c60f81b7effffffffffffffffffffffffffffffffffffffffffffffffffffffffffffff1916115b15610a2c578092505050610a3f565b8080600101915050610949565b505f9150505b92915050565b60605f8490505f8484610a589190611bd4565b67ffffffffffffffff811115610a7157610a70611657565b5b6040519080825280601f01601f191660200182016040528015610aa35781602001600182028036833780820191505090505b5090505f8590505b84811015610b2a57828181518110610ac657610ac5611ba7565b5b602001015160f81c60f81b828783610ade9190611bd4565b81518110610aef57610aee611ba7565b5b60200101907effffffffffffffffffffffffffffffffffffffffffffffffffffffffffffff191690815f1a9053508080600101915050610aab565b5080925050509392505050565b5f808290505f805b8251811015610bfc576030838281518110610b5d57610b5c611ba7565b5b602001015160f81c60f81b60f81c60ff1610158015610ba057506039838281518110610b8c57610b8b611ba7565b5b602001015160f81c60f81b60f81c60ff1611155b15610bef576030838281518110610bba57610bb9611ba7565b5b602001015160f81c60f81b60f81c610bd29190611c13565b60ff16600a83610be29190611c47565b610bec9190611b74565b91505b8080600101915050610b3f565b508092505050919050565b7f000000000000000000000000000000000000000000000000000000000000000073ffffffffffffffffffffffffffffffffffffffff163073ffffffffffffffffffffffffffffffffffffffff161480610cb457507f000000000000000000000000000000000000000000000000000000000000000073ffffffffffffffffffffffffffffffffffffffff16610c9b6111f9565b73ffffffffffffffffffffffffffffffffffffffff1614155b15610ceb576040517fe07c8dba00000000000000000000000000000000000000000000000000000000815260040160405180910390fd5b565b610cf5610e9d565b50565b8173ffffffffffffffffffffffffffffffffffffffff166352d1902d6040518163ffffffff1660e01b8152600401602060405180830381865afa925050508015610d6057506040513d601f19601f82011682018060405250810190610d5d9190611cb2565b60015b610da157816040517f4c9c8ce3000000000000000000000000000000000000000000000000000000008152600401610d9891906119b4565b60405180910390fd5b7f360894a13ba1a3210667c828492db98dca3e2076cc3735a920a3ca505d382bbc5f1b8114610e0757806040517faa1d49a4000000000000000000000000000000000000000000000000000000008152600401610dfe919061198c565b60405180910390fd5b610e11838361124c565b505050565b7f000000000000000000000000000000000000000000000000000000000000000073ffffffffffffffffffffffffffffffffffffffff163073ffffffffffffffffffffffffffffffffffffffff1614610e9b576040517fe07c8dba00000000000000000000000000000000000000000000000000000000815260040160405180910390fd5b565b610ea56112be565b73ffffffffffffffffffffffffffffffffffffffff16610ec36102d8565b73ffffffffffffffffffffffffffffffffffffffff1614610f2257610ee66112be565b6040517f118cdaa7000000000000000000000000000000000000000000000000000000008152600401610f1991906119b4565b60405180910390fd5b565b5f610f2d610ff5565b90505f815f015f9054906101000a900473ffffffffffffffffffffffffffffffffffffffff16905082825f015f6101000a81548173ffffffffffffffffffffffffffffffffffffffff021916908373ffffffffffffffffffffffffffffffffffffffff1602179055508273ffffffffffffffffffffffffffffffffffffffff168173ffffffffffffffffffffffffffffffffffffffff167f8be0079c531659141344cd1fd0a4f28419497f9722a3daafe3b4186f6b6457e060405160405180910390a3505050565b5f7f9016d09d72d40fdae2fd8ceac6b6234c7706214fd39c1cd1e609a0528c199300905090565b5f808490505f8390505b81518110156110ae57847effffffffffffffffffffffffffffffffffffffffffffffffffffffffffffff191682828151811061106557611064611ba7565b5b602001015160f81c60f81b7effffffffffffffffffffffffffffffffffffffffffffffffffffffffffffff1916036110a15780925050506110b4565b8080600101915050611026565b505f9150505b9392505050565b5f806110c56112c5565b90508091505090565b6110d66112ee565b6110df8161132e565b50565b6110ea6112ee565b565b5f808251036110fd575f90506111f3565b5f5b8251845161110d9190611bd4565b81116111ed575f600190505f5b84518110156111c85784818151811061113657611135611ba7565b5b602001015160f81c60f81b7effffffffffffffffffffffffffffffffffffffffffffffffffffffffffffff19168682856111709190611b74565b8151811061118157611180611ba7565b5b602001015160f81c60f81b7effffffffffffffffffffffffffffffffffffffffffffffffffffffffffffff1916146111bb575f91506111c8565b808060010191505061111a565b5080156111d95781925050506111f3565b5080806111e590611abf565b9150506110ff565b50825190505b92915050565b5f6112257f360894a13ba1a3210667c828492db98dca3e2076cc3735a920a3ca505d382bbc5f1b6113b2565b5f015f9054906101000a900473ffffffffffffffffffffffffffffffffffffffff16905090565b611255826113bb565b8173ffffffffffffffffffffffffffffffffffffffff167fbc7cd75a20ee27fd9adebab32041f755214dbc6bffa90cc0225b39da2e5c2d3b60405160405180910390a25f815111156112b1576112ab8282611484565b506112ba565b6112b9611504565b5b5050565b5f33905090565b5f7ff0c57e16840df040f15088dc2f81fe391c3923bec73e23a9662efc9c229c6a005f1b905090565b6112f6611540565b61132c576040517fd7e6bcf800000000000000000000000000000000000000000000000000000000815260040160405180910390fd5b565b6113366112ee565b5f73ffffffffffffffffffffffffffffffffffffffff168173ffffffffffffffffffffffffffffffffffffffff16036113a6575f6040517f1e4fbdf700000000000000000000000000000000000000000000000000000000815260040161139d91906119b4565b60405180910390fd5b6113af81610f24565b50565b5f819050919050565b5f8173ffffffffffffffffffffffffffffffffffffffff163b0361141657806040517f4c9c8ce300000000000000000000000000000000000000000000000000000000815260040161140d91906119b4565b60405180910390fd5b806114427f360894a13ba1a3210667c828492db98dca3e2076cc3735a920a3ca505d382bbc5f1b6113b2565b5f015f6101000a81548173ffffffffffffffffffffffffffffffffffffffff021916908373ffffffffffffffffffffffffffffffffffffffff16021790555050565b60605f808473ffffffffffffffffffffffffffffffffffffffff16846040516114ad9190611d21565b5f60405180830381855af49150503d805f81146114e5576040519150601f19603f3d011682016040523d82523d5f602084013e6114ea565b606091505b50915091506114fa85838361155e565b9250505092915050565b5f34111561153e576040517fb398979f00000000000000000000000000000000000000000000000000000000815260040160405180910390fd5b565b5f6115496110bb565b5f0160089054906101000a900460ff16905090565b6060826115735761156e826115eb565b6115e3565b5f825114801561159957505f8473ffffffffffffffffffffffffffffffffffffffff163b145b156115db57836040517f9996b3150000000000000000000000000000000000000000000000000000000081526004016115d291906119b4565b60405180910390fd5b8190506115e4565b5b9392505050565b5f815111156115fc57805160208201fd5b6040517fd6bda27500000000000000000000000000000000000000000000000000000000815260040160405180910390fd5b5f604051905090565b5f80fd5b5f80fd5b5f80fd5b5f80fd5b5f601f19601f8301169050919050565b7f4e487b71000000000000000000000000000000000000000000000000000000005f52604160045260245ffd5b61168d82611647565b810181811067ffffffffffffffff821117156116ac576116ab611657565b5b80604052505050565b5f6116be61162e565b90506116ca8282611684565b919050565b5f67ffffffffffffffff8211156116e9576116e8611657565b5b6116f282611647565b9050602081019050919050565b828183375f83830152505050565b5f61171f61171a846116cf565b6116b5565b90508281526020810184848401111561173b5761173a611643565b5b6117468482856116ff565b509392505050565b5f82601f8301126117625761176161163f565b5b813561177284826020860161170d565b91505092915050565b5f806040838503121561179157611790611637565b5b5f83013567ffffffffffffffff8111156117ae576117ad61163b565b5b6117ba8582860161174e565b925050602083013567ffffffffffffffff8111156117db576117da61163b565b5b6117e78582860161174e565b9150509250929050565b5f819050919050565b611803816117f1565b82525050565b5f60208201905061181c5f8301846117fa565b92915050565b5f73ffffffffffffffffffffffffffffffffffffffff82169050919050565b5f61184b82611822565b9050919050565b61185b81611841565b8114611865575f80fd5b50565b5f8135905061187681611852565b92915050565b5f67ffffffffffffffff82111561189657611895611657565b5b61189f82611647565b9050602081019050919050565b5f6118be6118b98461187c565b6116b5565b9050828152602081018484840111156118da576118d9611643565b5b6118e58482856116ff565b509392505050565b5f82601f8301126119015761190061163f565b5b81356119118482602086016118ac565b91505092915050565b5f80604083850312156119305761192f611637565b5b5f61193d85828601611868565b925050602083013567ffffffffffffffff81111561195e5761195d61163b565b5b61196a858286016118ed565b9150509250929050565b5f819050919050565b61198681611974565b82525050565b5f60208201905061199f5f83018461197d565b92915050565b6119ae81611841565b82525050565b5f6020820190506119c75f8301846119a5565b92915050565b5f81519050919050565b5f82825260208201905092915050565b5f5b83811015611a045780820151818401526020810190506119e9565b5f8484015250505050565b5f611a19826119cd565b611a2381856119d7565b9350611a338185602086016119e7565b611a3c81611647565b840191505092915050565b5f6020820190508181035f830152611a5f8184611a0f565b905092915050565b5f60208284031215611a7c57611a7b611637565b5b5f611a8984828501611868565b91505092915050565b7f4e487b71000000000000000000000000000000000000000000000000000000005f52601160045260245ffd5b5f611ac9826117f1565b91507fffffffffffffffffffffffffffffffffffffffffffffffffffffffffffffffff8203611afb57611afa611a92565b5b600182019050919050565b5f819050919050565b5f67ffffffffffffffff82169050919050565b5f819050919050565b5f611b45611b40611b3b84611b06565b611b22565b611b0f565b9050919050565b611b5581611b2b565b82525050565b5f602082019050611b6e5f830184611b4c565b92915050565b5f611b7e826117f1565b9150611b89836117f1565b9250828201905080821115611ba157611ba0611a92565b5b92915050565b7f4e487b71000000000000000000000000000000000000000000000000000000005f52603260045260245ffd5b5f611bde826117f1565b9150611be9836117f1565b9250828203905081811115611c0157611c00611a92565b5b92915050565b5f60ff82169050919050565b5f611c1d82611c07565b9150611c2883611c07565b9250828203905060ff811115611c4157611c40611a92565b5b92915050565b5f611c51826117f1565b9150611c5c836117f1565b9250828202611c6a816117f1565b91508282048414831517611c8157611c80611a92565b5b5092915050565b611c9181611974565b8114611c9b575f80fd5b50565b5f81519050611cac81611c88565b92915050565b5f60208284031215611cc757611cc6611637565b5b5f611cd484828501611c9e565b91505092915050565b5f81519050919050565b5f81905092915050565b5f611cfb82611cdd565b611d058185611ce7565b9350611d158185602086016119e7565b80840191505092915050565b5f611d2c8284611cf1565b91508190509291505056fea2646970667358221220b59b48aeb230a9922a37f57b7d4ba111c824d45ad7db8e0f91e8e9baa4069dd864736f6c63430008180033","linkReferences":{}},"methodIdentifiers":{"UPGRADE_INTERFACE_VERSION()":"ad3cb1cc","extractString(string,string)":"c25bcda9","extractUint(string,string)":"298967e4","initialize(address)":"c4d66de8","owner()":"8da5cb5b","proxiableUUID()":"52d1902d","renounceOwnership()":"715018a6","transferOwnership(address)":"f2fde38b","upgradeToAndCall(address,bytes)":"4f1ef286"},"id":49}