{"abi":[{"type":"constructor","inputs":[],"stateMutability":"nonpayable"},{"type":"function","name":"UPGRADE_INTERFACE_VERSION","inputs":[],"outputs":[{"name":"","type":"string","internalType":"string"}],"stateMutability":"view"},{"type":"function","name":"extractString","inputs":[{"name":"_json","type":"string","internalType":"string"},{"name":"_key","type":"string","internalType":"string"}],"outputs":[{"name":"","type":"string","internalType":"string"}],"stateMutability":"pure"},{"type":"function","name":"extractUint","inputs":[{"name":"_json","type":"string","internalType":"string"},{"name":"_key","type":"string","internalType":"string"}],"outputs":[{"name":"","type":"uint256","internalType":"uint256"}],"stateMutability":"pure"},{"type":"function","name":"initialize","inputs":[{"name":"initialOwner","type":"address","internalType":"address"}],"outputs":[],"stateMutability":"nonpayable"},{"type":"function","name":"owner","inputs":[],"outputs":[{"name":"","type":"address","internalType":"address"}],"stateMutability":"view"},{"type":"function","name":"proxiableUUID","inputs":[],"outputs":[{"name":"","type":"bytes32","internalType":"bytes32"}],"stateMutability":"view"},{"type":"function","name":"renounceOwnership","inputs":[],"outputs":[],"stateMutability":"nonpayable"},{"type":"function","name":"transferOwnership","inputs":[{"name":"newOwner","type":"address","internalType":"address"}],"outputs":[],"stateMutability":"nonpayable"},{"type":"function","name":"upgradeToAndCall","inputs":[{"name":"newImplementation","type":"address","internalType":"address"},{"name":"data","type":"bytes","internalType":"bytes"}],"outputs":[],"stateMutability":"payable"},{"type":"event","name":"Initialized","inputs":[{"name":"version","type":"uint64","indexed":false,"internalType":"uint64"}],"anonymous":false},{"type":"event","name":"OwnershipTransferred","inputs":[{"name":"previousOwner","type":"address","indexed":true,"internalType":"address"},{"name":"newOwner","type":"address","indexed":true,"internalType":"address"}],"anonymous":false},{"type":"event","name":"Upgraded","inputs":[{"name":"implementation","type":"address","indexed":true,"internalType":"address"}],"anonymous":false},{"type":"error","name":"AddressEmptyCode","inputs":[{"name":"target","type":"address","internalType":"address"}]},{"type":"error","name":"ERC1967InvalidImplementation","inputs":[{"name":"implementation","type":"address","internalType":"address"}]},{"type":"error","name":"ERC1967NonPayable","inputs":[]},{"type":"error","name":"FailedCall","inputs":[]},{"type":"error","name":"InvalidInitialization","inputs":[]},{"type":"error","name":"NotInitializing","inputs":[]},{"type":"error","name":"OwnableInvalidOwner","inputs":[{"name":"owner","type":"address","internalType":"address"}]},{"type":"error","name":"OwnableUnauthorizedAccount","inputs":[{"name":"account","type":"address","internalType":"address"}]},{"type":"error","name":"UUPSUnauthorizedCallContext","inputs":[]},{"type":"error","name":"UUPSUnsupportedProxiableUUID","inputs":[{"name":"slot","type":"bytes32","internalType":"bytes32"}]}],"bytecode":{"object":"0x60a06040523073ffffffffffffffffffffffffffffffffffffffff1660809073ffffffffffffffffffffffffffffffffffffffff1681525034801562000043575f80fd5b50620000546200005a60201b60201c565b620001e1565b5f6200006b6200015e60201b60201c565b9050805f0160089054906101000a900460ff1615620000b6576040517ff92ee8a900000000000000000000000000000000000000000000000000000000815260040160405180910390fd5b67ffffffffffffffff8016815f015f9054906101000a900467ffffffffffffffff1667ffffffffffffffff16146200015b5767ffffffffffffffff815f015f6101000a81548167ffffffffffffffff021916908367ffffffffffffffff1602179055507fc7f505b2f371ae2175ee4913f4499e1f2633a7b5936321eed1cdaeb6115181d267ffffffffffffffff604051620001529190620001c6565b60405180910390a15b50565b5f80620001706200017960201b60201c565b90508091505090565b5f7ff0c57e16840df040f15088dc2f81fe391c3923bec73e23a9662efc9c229c6a005f1b905090565b5f67ffffffffffffffff82169050919050565b620001c081620001a2565b82525050565b5f602082019050620001db5f830184620001b5565b92915050565b608051611d72620002085f395f8181610c0901528181610c5e0152610e180152611d725ff3fe608060405260043610610085575f3560e01c80638da5cb5b116100585780638da5cb5b14610121578063ad3cb1cc1461014b578063c25bcda914610175578063c4d66de8146101b1578063f2fde38b146101d957610085565b8063298967e4146100895780634f1ef286146100c557806352d1902d146100e1578063715018a61461010b575b5f80fd5b348015610094575f80fd5b506100af60048036038101906100aa9190611780565b610201565b6040516100bc919061180e565b60405180910390f35b6100df60048036038101906100da919061191f565b610275565b005b3480156100ec575f80fd5b506100f5610294565b6040516101029190611991565b60405180910390f35b348015610116575f80fd5b5061011f6102c5565b005b34801561012c575f80fd5b506101356102d8565b60405161014291906119b9565b60405180910390f35b348015610156575f80fd5b5061015f61030d565b60405161016c9190611a4c565b60405180910390f35b348015610180575f80fd5b5061019b60048036038101906101969190611780565b610346565b6040516101a89190611a4c565b60405180910390f35b3480156101bc575f80fd5b506101d760048036038101906101d29190611a6c565b610433565b005b3480156101e4575f80fd5b506101ff60048036038101906101fa9190611a6c565b6105bc565b005b5f8061020d8484610640565b90505f810361021f575f91505061026f565b5f61022a8583610836565b90505f810361023d575f9250505061026f565b5f610248868361093f565b90505f810361025657855190505b610269610264878484610a45565b610b37565b93505050505b92915050565b61027d610c07565b61028682610ced565b6102908282610cf8565b5050565b5f61029d610e16565b7f360894a13ba1a3210667c828492db98dca3e2076cc3735a920a3ca505d382bbc5f1b905090565b6102cd610e9d565b6102d65f610f24565b565b5f806102e2610ff5565b9050805f015f9054906101000a900473ffffffffffffffffffffffffffffffffffffffff1691505090565b6040518060400160405280600581526020017f352e302e3000000000000000000000000000000000000000000000000000000081525081565b60605f6103538484610640565b90505f81036103735760405180602001604052805f81525091505061042d565b5f61039f857f22000000000000000000000000000000000000000000000000000000000000008461101c565b90505f81036103c05760405180602001604052805f8152509250505061042d565b80806103cb90611ac4565b9150505f6103fa867f22000000000000000000000000000000000000000000000000000000000000008461101c565b90505f810361041c5760405180602001604052805f815250935050505061042d565b610427868383610a45565b93505050505b92915050565b5f61043c6110bb565b90505f815f0160089054906101000a900460ff161590505f825f015f9054906101000a900467ffffffffffffffff1690505f808267ffffffffffffffff161480156104845750825b90505f60018367ffffffffffffffff161480156104b757505f3073ffffffffffffffffffffffffffffffffffffffff163b145b9050811580156104c5575080155b156104fc576040517ff92ee8a900000000000000000000000000000000000000000000000000000000815260040160405180910390fd5b6001855f015f6101000a81548167ffffffffffffffff021916908367ffffffffffffffff1602179055508315610549576001855f0160086101000a81548160ff0219169083151502179055505b610552866110ce565b61055a6110e2565b83156105b4575f855f0160086101000a81548160ff0219169083151502179055507fc7f505b2f371ae2175ee4913f4499e1f2633a7b5936321eed1cdaeb6115181d260016040516105ab9190611b60565b60405180910390a15b505050505050565b6105c4610e9d565b5f73ffffffffffffffffffffffffffffffffffffffff168173ffffffffffffffffffffffffffffffffffffffff1603610634575f6040517f1e4fbdf700000000000000000000000000000000000000000000000000000000815260040161062b91906119b9565b60405180910390fd5b61063d81610f24565b50565b5f808390505f8390505f600282516106589190611b79565b67ffffffffffffffff8111156106715761067061165c565b5b6040519080825280601f01601f1916602001820160405280156106a35781602001600182028036833780820191505090505b5090507f2200000000000000000000000000000000000000000000000000000000000000815f815181106106da576106d9611bac565b5b60200101907effffffffffffffffffffffffffffffffffffffffffffffffffffffffffffff191690815f1a9053505f5b825181101561078b5782818151811061072657610725611bac565b5b602001015160f81c60f81b8260018361073f9190611b79565b815181106107505761074f611bac565b5b60200101907effffffffffffffffffffffffffffffffffffffffffffffffffffffffffffff191690815f1a905350808060010191505061070a565b507f220000000000000000000000000000000000000000000000000000000000000081600184516107bc9190611b79565b815181106107cd576107cc611bac565b5b60200101907effffffffffffffffffffffffffffffffffffffffffffffffffffffffffffff191690815f1a9053505f61080684836110ec565b90508351810361081c575f945050505050610830565b8151816108299190611b79565b9450505050505b92915050565b5f808390505f8390505b8151811015610933577f300000000000000000000000000000000000000000000000000000000000000082828151811061087d5761087c611bac565b5b602001015160f81c60f81b7effffffffffffffffffffffffffffffffffffffffffffffffffffffffffffff19161015801561091757507f39000000000000000000000000000000000000000000000000000000000000008282815181106108e7576108e6611bac565b5b602001015160f81c60f81b7effffffffffffffffffffffffffffffffffffffffffffffffffffffffffffff191611155b15610926578092505050610939565b8080600101915050610840565b505f9150505b92915050565b5f808390505f8390505b8151811015610a39577f300000000000000000000000000000000000000000000000000000000000000082828151811061098657610985611bac565b5b602001015160f81c60f81b7effffffffffffffffffffffffffffffffffffffffffffffffffffffffffffff19161080610a1d57507f39000000000000000000000000000000000000000000000000000000000000008282815181106109ee576109ed611bac565b5b602001015160f81c60f81b7effffffffffffffffffffffffffffffffffffffffffffffffffffffffffffff1916115b15610a2c578092505050610a3f565b8080600101915050610949565b505f9150505b92915050565b60605f8490505f8484610a589190611bd9565b67ffffffffffffffff811115610a7157610a7061165c565b5b6040519080825280601f01601f191660200182016040528015610aa35781602001600182028036833780820191505090505b5090505f8590505b84811015610b2a57828181518110610ac657610ac5611bac565b5b602001015160f81c60f81b828783610ade9190611bd9565b81518110610aef57610aee611bac565b5b60200101907effffffffffffffffffffffffffffffffffffffffffffffffffffffffffffff191690815f1a9053508080600101915050610aab565b5080925050509392505050565b5f808290505f805b8251811015610bfc576030838281518110610b5d57610b5c611bac565b5b602001015160f81c60f81b60f81c60ff1610158015610ba057506039838281518110610b8c57610b8b611bac565b5b602001015160f81c60f81b60f81c60ff1611155b15610bef576030838281518110610bba57610bb9611bac565b5b602001015160f81c60f81b60f81c610bd29190611c18565b60ff16600a83610be29190611c4c565b610bec9190611b79565b91505b8080600101915050610b3f565b508092505050919050565b7f000000000000000000000000000000000000000000000000000000000000000073ffffffffffffffffffffffffffffffffffffffff163073ffffffffffffffffffffffffffffffffffffffff161480610cb457507f000000000000000000000000000000000000000000000000000000000000000073ffffffffffffffffffffffffffffffffffffffff16610c9b6111fe565b73ffffffffffffffffffffffffffffffffffffffff1614155b15610ceb576040517fe07c8dba00000000000000000000000000000000000000000000000000000000815260040160405180910390fd5b565b610cf5610e9d565b50565b8173ffffffffffffffffffffffffffffffffffffffff166352d1902d6040518163ffffffff1660e01b8152600401602060405180830381865afa925050508015610d6057506040513d601f19601f82011682018060405250810190610d5d9190611cb7565b60015b610da157816040517f4c9c8ce3000000000000000000000000000000000000000000000000000000008152600401610d9891906119b9565b60405180910390fd5b7f360894a13ba1a3210667c828492db98dca3e2076cc3735a920a3ca505d382bbc5f1b8114610e0757806040517faa1d49a4000000000000000000000000000000000000000000000000000000008152600401610dfe9190611991565b60405180910390fd5b610e118383611251565b505050565b7f000000000000000000000000000000000000000000000000000000000000000073ffffffffffffffffffffffffffffffffffffffff163073ffffffffffffffffffffffffffffffffffffffff1614610e9b576040517fe07c8dba00000000000000000000000000000000000000000000000000000000815260040160405180910390fd5b565b610ea56112c3565b73ffffffffffffffffffffffffffffffffffffffff16610ec36102d8565b73ffffffffffffffffffffffffffffffffffffffff1614610f2257610ee66112c3565b6040517f118cdaa7000000000000000000000000000000000000000000000000000000008152600401610f1991906119b9565b60405180910390fd5b565b5f610f2d610ff5565b90505f815f015f9054906101000a900473ffffffffffffffffffffffffffffffffffffffff16905082825f015f6101000a81548173ffffffffffffffffffffffffffffffffffffffff021916908373ffffffffffffffffffffffffffffffffffffffff1602179055508273ffffffffffffffffffffffffffffffffffffffff168173ffffffffffffffffffffffffffffffffffffffff167f8be0079c531659141344cd1fd0a4f28419497f9722a3daafe3b4186f6b6457e060405160405180910390a3505050565b5f7f9016d09d72d40fdae2fd8ceac6b6234c7706214fd39c1cd1e609a0528c199300905090565b5f808490505f8390505b81518110156110ae57847effffffffffffffffffffffffffffffffffffffffffffffffffffffffffffff191682828151811061106557611064611bac565b5b602001015160f81c60f81b7effffffffffffffffffffffffffffffffffffffffffffffffffffffffffffff1916036110a15780925050506110b4565b8080600101915050611026565b505f9150505b9392505050565b5f806110c56112ca565b90508091505090565b6110d66112f3565b6110df81611333565b50565b6110ea6112f3565b565b5f80825190505f8103611102575f9150506111f8565b5f5b8185516111119190611bd9565b81116111f1575f600190505f5b838110156111cb5785818151811061113957611138611bac565b5b602001015160f81c60f81b7effffffffffffffffffffffffffffffffffffffffffffffffffffffffffffff19168782856111739190611b79565b8151811061118457611183611bac565b5b602001015160f81c60f81b7effffffffffffffffffffffffffffffffffffffffffffffffffffffffffffff1916146111be575f91506111cb565b808060010191505061111e565b5080156111dd578193505050506111f8565b5080806111e990611ac4565b915050611104565b5083519150505b92915050565b5f61122a7f360894a13ba1a3210667c828492db98dca3e2076cc3735a920a3ca505d382bbc5f1b6113b7565b5f015f9054906101000a900473ffffffffffffffffffffffffffffffffffffffff16905090565b61125a826113c0565b8173ffffffffffffffffffffffffffffffffffffffff167fbc7cd75a20ee27fd9adebab32041f755214dbc6bffa90cc0225b39da2e5c2d3b60405160405180910390a25f815111156112b6576112b08282611489565b506112bf565b6112be611509565b5b5050565b5f33905090565b5f7ff0c57e16840df040f15088dc2f81fe391c3923bec73e23a9662efc9c229c6a005f1b905090565b6112fb611545565b611331576040517fd7e6bcf800000000000000000000000000000000000000000000000000000000815260040160405180910390fd5b565b61133b6112f3565b5f73ffffffffffffffffffffffffffffffffffffffff168173ffffffffffffffffffffffffffffffffffffffff16036113ab575f6040517f1e4fbdf70000000000000000000000000000000000000000000000000000000081526004016113a291906119b9565b60405180910390fd5b6113b481610f24565b50565b5f819050919050565b5f8173ffffffffffffffffffffffffffffffffffffffff163b0361141b57806040517f4c9c8ce300000000000000000000000000000000000000000000000000000000815260040161141291906119b9565b60405180910390fd5b806114477f360894a13ba1a3210667c828492db98dca3e2076cc3735a920a3ca505d382bbc5f1b6113b7565b5f015f6101000a81548173ffffffffffffffffffffffffffffffffffffffff021916908373ffffffffffffffffffffffffffffffffffffffff16021790555050565b60605f808473ffffffffffffffffffffffffffffffffffffffff16846040516114b29190611d26565b5f60405180830381855af49150503d805f81146114ea576040519150601f19603f3d011682016040523d82523d5f602084013e6114ef565b606091505b50915091506114ff858383611563565b9250505092915050565b5f341115611543576040517fb398979f00000000000000000000000000000000000000000000000000000000815260040160405180910390fd5b565b5f61154e6110bb565b5f0160089054906101000a900460ff16905090565b60608261157857611573826115f0565b6115e8565b5f825114801561159e57505f8473ffffffffffffffffffffffffffffffffffffffff163b145b156115e057836040517f9996b3150000000000000000000000000000000000000000000000000000000081526004016115d791906119b9565b60405180910390fd5b8190506115e9565b5b9392505050565b5f8151111561160157805160208201fd5b6040517fd6bda27500000000000000000000000000000000000000000000000000000000815260040160405180910390fd5b5f604051905090565b5f80fd5b5f80fd5b5f80fd5b5f80fd5b5f601f19601f8301169050919050565b7f4e487b71000000000000000000000000000000000000000000000000000000005f52604160045260245ffd5b6116928261164c565b810181811067ffffffffffffffff821117156116b1576116b061165c565b5b80604052505050565b5f6116c3611633565b90506116cf8282611689565b919050565b5f67ffffffffffffffff8211156116ee576116ed61165c565b5b6116f78261164c565b9050602081019050919050565b828183375f83830152505050565b5f61172461171f846116d4565b6116ba565b9050828152602081018484840111156117405761173f611648565b5b61174b848285611704565b509392505050565b5f82601f83011261176757611766611644565b5b8135611777848260208601611712565b91505092915050565b5f80604083850312156117965761179561163c565b5b5f83013567ffffffffffffffff8111156117b3576117b2611640565b5b6117bf85828601611753565b925050602083013567ffffffffffffffff8111156117e0576117df611640565b5b6117ec85828601611753565b9150509250929050565b5f819050919050565b611808816117f6565b82525050565b5f6020820190506118215f8301846117ff565b92915050565b5f73ffffffffffffffffffffffffffffffffffffffff82169050919050565b5f61185082611827565b9050919050565b61186081611846565b811461186a575f80fd5b50565b5f8135905061187b81611857565b92915050565b5f67ffffffffffffffff82111561189b5761189a61165c565b5b6118a48261164c565b9050602081019050919050565b5f6118c36118be84611881565b6116ba565b9050828152602081018484840111156118df576118de611648565b5b6118ea848285611704565b509392505050565b5f82601f83011261190657611905611644565b5b81356119168482602086016118b1565b91505092915050565b5f80604083850312156119355761193461163c565b5b5f6119428582860161186d565b925050602083013567ffffffffffffffff81111561196357611962611640565b5b61196f858286016118f2565b9150509250929050565b5f819050919050565b61198b81611979565b82525050565b5f6020820190506119a45f830184611982565b92915050565b6119b381611846565b82525050565b5f6020820190506119cc5f8301846119aa565b92915050565b5f81519050919050565b5f82825260208201905092915050565b5f5b83811015611a095780820151818401526020810190506119ee565b5f8484015250505050565b5f611a1e826119d2565b611a2881856119dc565b9350611a388185602086016119ec565b611a418161164c565b840191505092915050565b5f6020820190508181035f830152611a648184611a14565b905092915050565b5f60208284031215611a8157611a8061163c565b5b5f611a8e8482850161186d565b91505092915050565b7f4e487b71000000000000000000000000000000000000000000000000000000005f52601160045260245ffd5b5f611ace826117f6565b91507fffffffffffffffffffffffffffffffffffffffffffffffffffffffffffffffff8203611b0057611aff611a97565b5b600182019050919050565b5f819050919050565b5f67ffffffffffffffff82169050919050565b5f819050919050565b5f611b4a611b45611b4084611b0b565b611b27565b611b14565b9050919050565b611b5a81611b30565b82525050565b5f602082019050611b735f830184611b51565b92915050565b5f611b83826117f6565b9150611b8e836117f6565b9250828201905080821115611ba657611ba5611a97565b5b92915050565b7f4e487b71000000000000000000000000000000000000000000000000000000005f52603260045260245ffd5b5f611be3826117f6565b9150611bee836117f6565b9250828203905081811115611c0657611c05611a97565b5b92915050565b5f60ff82169050919050565b5f611c2282611c0c565b9150611c2d83611c0c565b9250828203905060ff811115611c4657611c45611a97565b5b92915050565b5f611c56826117f6565b9150611c61836117f6565b9250828202611c6f816117f6565b91508282048414831517611c8657611c85611a97565b5b5092915050565b611c9681611979565b8114611ca0575f80fd5b50565b5f81519050611cb181611c8d565b92915050565b5f60208284031215611ccc57611ccb61163c565b5b5f611cd984828501611ca3565b91505092915050565b5f81519050919050565b5f81905092915050565b5f611d0082611ce2565b611d0a8185611cec565b9350611d1a8185602086016119ec565b80840191505092915050565b5f611d318284611cf6565b91508190509291505056fea2646970667358221220647d89dd3d9efa50d5be2fb9f447380ffb71c7a1814f40a69d2abd6647286b9e64736f6c63430008180033","linkReferences":{}},"methodIdentifiers":{"UPGRADE_INTERFACE_VERSION()":"ad3cb1cc","extractString(string,string)":"c25bcda9","extractUint(string,string)":"298967e4","initialize(address)":"c4d66de8","owner()":"8da5cb5b","proxiableUUID()":"52d1902d","renounceOwnership()":"715018a6","transferOwnership(address)":"f2fde38b","upgradeToAndCall(address,bytes)":"4f1ef286"},"id":50}