{"abi":[{"type":"constructor","inputs":[],"stateMutability":"nonpayable"},{"type":"function","name":"UPGRADE_INTERFACE_VERSION","inputs":[],"outputs":[{"name":"","type":"string","internalType":"string"}],"stateMutability":"view"},{"type":"function","name":"extractString","inputs":[{"name":"_json","type":"string","internalType":"string"},{"name":"_key","type":"string","internalType":"string"}],"outputs":[{"name":"","type":"string","internalType":"string"}],"stateMutability":"pure"},{"type":"function","name":"initialize","inputs":[{"name":"initialOwner","type":"address","internalType":"address"}],"outputs":[],"stateMutability":"nonpayable"},{"type":"function","name":"owner","inputs":[],"outputs":[{"name":"","type":"address","internalType":"address"}],"stateMutability":"view"},{"type":"function","name":"proxiableUUID","inputs":[],"outputs":[{"name":"","type":"bytes32","internalType":"bytes32"}],"stateMutability":"view"},{"type":"function","name":"renounceOwnership","inputs":[],"outputs":[],"stateMutability":"nonpayable"},{"type":"function","name":"transferOwnership","inputs":[{"name":"newOwner","type":"address","internalType":"address"}],"outputs":[],"stateMutability":"nonpayable"},{"type":"function","name":"upgradeToAndCall","inputs":[{"name":"newImplementation","type":"address","internalType":"address"},{"name":"data","type":"bytes","internalType":"bytes"}],"outputs":[],"stateMutability":"payable"},{"type":"event","name":"Initialized","inputs":[{"name":"version","type":"uint64","indexed":false,"internalType":"uint64"}],"anonymous":false},{"type":"event","name":"OwnershipTransferred","inputs":[{"name":"previousOwner","type":"address","indexed":true,"internalType":"address"},{"name":"newOwner","type":"address","indexed":true,"internalType":"address"}],"anonymous":false},{"type":"event","name":"Upgraded","inputs":[{"name":"implementation","type":"address","indexed":true,"internalType":"address"}],"anonymous":false},{"type":"error","name":"AddressEmptyCode","inputs":[{"name":"target","type":"address","internalType":"address"}]},{"type":"error","name":"ERC1967InvalidImplementation","inputs":[{"name":"implementation","type":"address","internalType":"address"}]},{"type":"error","name":"ERC1967NonPayable","inputs":[]},{"type":"error","name":"FailedCall","inputs":[]},{"type":"error","name":"InvalidInitialization","inputs":[]},{"type":"error","name":"NotInitializing","inputs":[]},{"type":"error","name":"OwnableInvalidOwner","inputs":[{"name":"owner","type":"address","internalType":"address"}]},{"type":"error","name":"OwnableUnauthorizedAccount","inputs":[{"name":"account","type":"address","internalType":"address"}]},{"type":"error","name":"UUPSUnauthorizedCallContext","inputs":[]},{"type":"error","name":"UUPSUnsupportedProxiableUUID","inputs":[{"name":"slot","type":"bytes32","internalType":"bytes32"}]}],"bytecode":{"object":"0x60a06040523073ffffffffffffffffffffffffffffffffffffffff1660809073ffffffffffffffffffffffffffffffffffffffff1681525034801562000043575f80fd5b50620000546200005a60201b60201c565b620001e1565b5f6200006b6200015e60201b60201c565b9050805f0160089054906101000a900460ff1615620000b6576040517ff92ee8a900000000000000000000000000000000000000000000000000000000815260040160405180910390fd5b67ffffffffffffffff8016815f015f9054906101000a900467ffffffffffffffff1667ffffffffffffffff16146200015b5767ffffffffffffffff815f015f6101000a81548167ffffffffffffffff021916908367ffffffffffffffff1602179055507fc7f505b2f371ae2175ee4913f4499e1f2633a7b5936321eed1cdaeb6115181d267ffffffffffffffff604051620001529190620001c6565b60405180910390a15b50565b5f80620001706200017960201b60201c565b90508091505090565b5f7ff0c57e16840df040f15088dc2f81fe391c3923bec73e23a9662efc9c229c6a005f1b905090565b5f67ffffffffffffffff82169050919050565b620001c081620001a2565b82525050565b5f602082019050620001db5f830184620001b5565b92915050565b608051611951620002085f395f8181610922015281816109770152610b3101526119515ff3fe60806040526004361061007a575f3560e01c8063ad3cb1cc1161004d578063ad3cb1cc14610104578063c25bcda91461012e578063c4d66de81461016a578063f2fde38b146101925761007a565b80634f1ef2861461007e57806352d1902d1461009a578063715018a6146100c45780638da5cb5b146100da575b5f80fd5b61009860048036038101906100939190611462565b6101ba565b005b3480156100a5575f80fd5b506100ae6101d9565b6040516100bb91906114d4565b60405180910390f35b3480156100cf575f80fd5b506100d861020a565b005b3480156100e5575f80fd5b506100ee61021d565b6040516100fb91906114fc565b60405180910390f35b34801561010f575f80fd5b50610118610252565b604051610125919061158f565b60405180910390f35b348015610139575f80fd5b50610154600480360381019061014f919061164d565b61028b565b604051610161919061158f565b60405180910390f35b348015610175575f80fd5b50610190600480360381019061018b91906116c3565b610713565b005b34801561019d575f80fd5b506101b860048036038101906101b391906116c3565b61089c565b005b6101c2610920565b6101cb82610a06565b6101d58282610a11565b5050565b5f6101e2610b2f565b7f360894a13ba1a3210667c828492db98dca3e2076cc3735a920a3ca505d382bbc5f1b905090565b610212610bb6565b61021b5f610c3d565b565b5f80610227610d0e565b9050805f015f9054906101000a900473ffffffffffffffffffffffffffffffffffffffff1691505090565b6040518060400160405280600581526020017f352e302e3000000000000000000000000000000000000000000000000000000081525081565b60605f8390505f8390505f600482516102a49190611724565b67ffffffffffffffff8111156102bd576102bc61133e565b5b6040519080825280601f01601f1916602001820160405280156102ef5781602001600182028036833780820191505090505b5090507f2200000000000000000000000000000000000000000000000000000000000000815f8151811061032657610325611757565b5b60200101907effffffffffffffffffffffffffffffffffffffffffffffffffffffffffffff191690815f1a9053505f5b82518110156103d75782818151811061037257610371611757565b5b602001015160f81c60f81b8260018361038b9190611724565b8151811061039c5761039b611757565b5b60200101907effffffffffffffffffffffffffffffffffffffffffffffffffffffffffffff191690815f1a9053508080600101915050610356565b507f220000000000000000000000000000000000000000000000000000000000000081600184516104089190611724565b8151811061041957610418611757565b5b60200101907effffffffffffffffffffffffffffffffffffffffffffffffffffffffffffff191690815f1a9053507f3a0000000000000000000000000000000000000000000000000000000000000081600284516104779190611724565b8151811061048857610487611757565b5b60200101907effffffffffffffffffffffffffffffffffffffffffffffffffffffffffffff191690815f1a9053507f220000000000000000000000000000000000000000000000000000000000000081600384516104e69190611724565b815181106104f7576104f6611757565b5b60200101907effffffffffffffffffffffffffffffffffffffffffffffffffffffffffffff191690815f1a9053505f6105308483610d35565b9050835181036105545760405180602001604052805f81525094505050505061070d565b5f808351836105639190611724565b90505b85518110156105ea577f22000000000000000000000000000000000000000000000000000000000000008682815181106105a3576105a2611757565b5b602001015160f81c60f81b7effffffffffffffffffffffffffffffffffffffffffffffffffffffffffffff1916036105dd578091506105ea565b8080600101915050610566565b505f810361060d5760405180602001604052805f8152509550505050505061070d565b5f83518361061b9190611724565b826106269190611784565b67ffffffffffffffff81111561063f5761063e61133e565b5b6040519080825280601f01601f1916602001820160405280156106715781602001600182028036833780820191505090505b5090505f5b815181101561070257868186518661068e9190611724565b6106989190611724565b815181106106a9576106a8611757565b5b602001015160f81c60f81b8282815181106106c7576106c6611757565b5b60200101907effffffffffffffffffffffffffffffffffffffffffffffffffffffffffffff191690815f1a9053508080600101915050610676565b508096505050505050505b92915050565b5f61071c610e55565b90505f815f0160089054906101000a900460ff161590505f825f015f9054906101000a900467ffffffffffffffff1690505f808267ffffffffffffffff161480156107645750825b90505f60018367ffffffffffffffff1614801561079757505f3073ffffffffffffffffffffffffffffffffffffffff163b145b9050811580156107a5575080155b156107dc576040517ff92ee8a900000000000000000000000000000000000000000000000000000000815260040160405180910390fd5b6001855f015f6101000a81548167ffffffffffffffff021916908367ffffffffffffffff1602179055508315610829576001855f0160086101000a81548160ff0219169083151502179055505b61083286610e68565b61083a610e7c565b8315610894575f855f0160086101000a81548160ff0219169083151502179055507fc7f505b2f371ae2175ee4913f4499e1f2633a7b5936321eed1cdaeb6115181d2600160405161088b919061180c565b60405180910390a15b505050505050565b6108a4610bb6565b5f73ffffffffffffffffffffffffffffffffffffffff168173ffffffffffffffffffffffffffffffffffffffff1603610914575f6040517f1e4fbdf700000000000000000000000000000000000000000000000000000000815260040161090b91906114fc565b60405180910390fd5b61091d81610c3d565b50565b7f000000000000000000000000000000000000000000000000000000000000000073ffffffffffffffffffffffffffffffffffffffff163073ffffffffffffffffffffffffffffffffffffffff1614806109cd57507f000000000000000000000000000000000000000000000000000000000000000073ffffffffffffffffffffffffffffffffffffffff166109b4610e86565b73ffffffffffffffffffffffffffffffffffffffff1614155b15610a04576040517fe07c8dba00000000000000000000000000000000000000000000000000000000815260040160405180910390fd5b565b610a0e610bb6565b50565b8173ffffffffffffffffffffffffffffffffffffffff166352d1902d6040518163ffffffff1660e01b8152600401602060405180830381865afa925050508015610a7957506040513d601f19601f82011682018060405250810190610a76919061184f565b60015b610aba57816040517f4c9c8ce3000000000000000000000000000000000000000000000000000000008152600401610ab191906114fc565b60405180910390fd5b7f360894a13ba1a3210667c828492db98dca3e2076cc3735a920a3ca505d382bbc5f1b8114610b2057806040517faa1d49a4000000000000000000000000000000000000000000000000000000008152600401610b1791906114d4565b60405180910390fd5b610b2a8383610ed9565b505050565b7f000000000000000000000000000000000000000000000000000000000000000073ffffffffffffffffffffffffffffffffffffffff163073ffffffffffffffffffffffffffffffffffffffff1614610bb4576040517fe07c8dba00000000000000000000000000000000000000000000000000000000815260040160405180910390fd5b565b610bbe610f4b565b73ffffffffffffffffffffffffffffffffffffffff16610bdc61021d565b73ffffffffffffffffffffffffffffffffffffffff1614610c3b57610bff610f4b565b6040517f118cdaa7000000000000000000000000000000000000000000000000000000008152600401610c3291906114fc565b60405180910390fd5b565b5f610c46610d0e565b90505f815f015f9054906101000a900473ffffffffffffffffffffffffffffffffffffffff16905082825f015f6101000a81548173ffffffffffffffffffffffffffffffffffffffff021916908373ffffffffffffffffffffffffffffffffffffffff1602179055508273ffffffffffffffffffffffffffffffffffffffff168173ffffffffffffffffffffffffffffffffffffffff167f8be0079c531659141344cd1fd0a4f28419497f9722a3daafe3b4186f6b6457e060405160405180910390a3505050565b5f7f9016d09d72d40fdae2fd8ceac6b6234c7706214fd39c1cd1e609a0528c199300905090565b5f80825103610d46575f9050610e4f565b825182511115610d595782519050610e4f565b5f5b82518451610d699190611784565b8111610e49575f600190505f5b8451811015610e2457848181518110610d9257610d91611757565b5b602001015160f81c60f81b7effffffffffffffffffffffffffffffffffffffffffffffffffffffffffffff1916868285610dcc9190611724565b81518110610ddd57610ddc611757565b5b602001015160f81c60f81b7effffffffffffffffffffffffffffffffffffffffffffffffffffffffffffff191614610e17575f9150610e24565b8080600101915050610d76565b508015610e35578192505050610e4f565b508080610e419061187a565b915050610d5b565b50825190505b92915050565b5f80610e5f610f52565b90508091505090565b610e70610f7b565b610e7981610fbb565b50565b610e84610f7b565b565b5f610eb27f360894a13ba1a3210667c828492db98dca3e2076cc3735a920a3ca505d382bbc5f1b61103f565b5f015f9054906101000a900473ffffffffffffffffffffffffffffffffffffffff16905090565b610ee282611048565b8173ffffffffffffffffffffffffffffffffffffffff167fbc7cd75a20ee27fd9adebab32041f755214dbc6bffa90cc0225b39da2e5c2d3b60405160405180910390a25f81511115610f3e57610f388282611111565b50610f47565b610f46611191565b5b5050565b5f33905090565b5f7ff0c57e16840df040f15088dc2f81fe391c3923bec73e23a9662efc9c229c6a005f1b905090565b610f836111cd565b610fb9576040517fd7e6bcf800000000000000000000000000000000000000000000000000000000815260040160405180910390fd5b565b610fc3610f7b565b5f73ffffffffffffffffffffffffffffffffffffffff168173ffffffffffffffffffffffffffffffffffffffff1603611033575f6040517f1e4fbdf700000000000000000000000000000000000000000000000000000000815260040161102a91906114fc565b60405180910390fd5b61103c81610c3d565b50565b5f819050919050565b5f8173ffffffffffffffffffffffffffffffffffffffff163b036110a357806040517f4c9c8ce300000000000000000000000000000000000000000000000000000000815260040161109a91906114fc565b60405180910390fd5b806110cf7f360894a13ba1a3210667c828492db98dca3e2076cc3735a920a3ca505d382bbc5f1b61103f565b5f015f6101000a81548173ffffffffffffffffffffffffffffffffffffffff021916908373ffffffffffffffffffffffffffffffffffffffff16021790555050565b60605f808473ffffffffffffffffffffffffffffffffffffffff168460405161113a9190611905565b5f60405180830381855af49150503d805f8114611172576040519150601f19603f3d011682016040523d82523d5f602084013e611177565b606091505b50915091506111878583836111eb565b9250505092915050565b5f3411156111cb576040517fb398979f00000000000000000000000000000000000000000000000000000000815260040160405180910390fd5b565b5f6111d6610e55565b5f0160089054906101000a900460ff16905090565b606082611200576111fb82611278565b611270565b5f825114801561122657505f8473ffffffffffffffffffffffffffffffffffffffff163b145b1561126857836040517f9996b31500000000000000000000000000000000000000000000000000000000815260040161125f91906114fc565b60405180910390fd5b819050611271565b5b9392505050565b5f8151111561128957805160208201fd5b6040517fd6bda27500000000000000000000000000000000000000000000000000000000815260040160405180910390fd5b5f604051905090565b5f80fd5b5f80fd5b5f73ffffffffffffffffffffffffffffffffffffffff82169050919050565b5f6112f5826112cc565b9050919050565b611305816112eb565b811461130f575f80fd5b50565b5f81359050611320816112fc565b92915050565b5f80fd5b5f80fd5b5f601f19601f8301169050919050565b7f4e487b71000000000000000000000000000000000000000000000000000000005f52604160045260245ffd5b6113748261132e565b810181811067ffffffffffffffff821117156113935761139261133e565b5b80604052505050565b5f6113a56112bb565b90506113b1828261136b565b919050565b5f67ffffffffffffffff8211156113d0576113cf61133e565b5b6113d98261132e565b9050602081019050919050565b828183375f83830152505050565b5f611406611401846113b6565b61139c565b9050828152602081018484840111156114225761142161132a565b5b61142d8482856113e6565b509392505050565b5f82601f83011261144957611448611326565b5b81356114598482602086016113f4565b91505092915050565b5f8060408385031215611478576114776112c4565b5b5f61148585828601611312565b925050602083013567ffffffffffffffff8111156114a6576114a56112c8565b5b6114b285828601611435565b9150509250929050565b5f819050919050565b6114ce816114bc565b82525050565b5f6020820190506114e75f8301846114c5565b92915050565b6114f6816112eb565b82525050565b5f60208201905061150f5f8301846114ed565b92915050565b5f81519050919050565b5f82825260208201905092915050565b5f5b8381101561154c578082015181840152602081019050611531565b5f8484015250505050565b5f61156182611515565b61156b818561151f565b935061157b81856020860161152f565b6115848161132e565b840191505092915050565b5f6020820190508181035f8301526115a78184611557565b905092915050565b5f67ffffffffffffffff8211156115c9576115c861133e565b5b6115d28261132e565b9050602081019050919050565b5f6115f16115ec846115af565b61139c565b90508281526020810184848401111561160d5761160c61132a565b5b6116188482856113e6565b509392505050565b5f82601f83011261163457611633611326565b5b81356116448482602086016115df565b91505092915050565b5f8060408385031215611663576116626112c4565b5b5f83013567ffffffffffffffff8111156116805761167f6112c8565b5b61168c85828601611620565b925050602083013567ffffffffffffffff8111156116ad576116ac6112c8565b5b6116b985828601611620565b9150509250929050565b5f602082840312156116d8576116d76112c4565b5b5f6116e584828501611312565b91505092915050565b5f819050919050565b7f4e487b71000000000000000000000000000000000000000000000000000000005f52601160045260245ffd5b5f61172e826116ee565b9150611739836116ee565b9250828201905080821115611751576117506116f7565b5b92915050565b7f4e487b71000000000000000000000000000000000000000000000000000000005f52603260045260245ffd5b5f61178e826116ee565b9150611799836116ee565b92508282039050818111156117b1576117b06116f7565b5b92915050565b5f819050919050565b5f67ffffffffffffffff82169050919050565b5f819050919050565b5f6117f66117f16117ec846117b7565b6117d3565b6117c0565b9050919050565b611806816117dc565b82525050565b5f60208201905061181f5f8301846117fd565b92915050565b61182e816114bc565b8114611838575f80fd5b50565b5f8151905061184981611825565b92915050565b5f60208284031215611864576118636112c4565b5b5f6118718482850161183b565b91505092915050565b5f611884826116ee565b91507fffffffffffffffffffffffffffffffffffffffffffffffffffffffffffffffff82036118b6576118b56116f7565b5b600182019050919050565b5f81519050919050565b5f81905092915050565b5f6118df826118c1565b6118e981856118cb565b93506118f981856020860161152f565b80840191505092915050565b5f61191082846118d5565b91508190509291505056fea26469706673582212204de0cecf50247824c39c5f7c18a4ed87879c36922efca81e600b411cfedc264764736f6c63430008180033","linkReferences":{}},"methodIdentifiers":{"UPGRADE_INTERFACE_VERSION()":"ad3cb1cc","extractString(string,string)":"c25bcda9","initialize(address)":"c4d66de8","owner()":"8da5cb5b","proxiableUUID()":"52d1902d","renounceOwnership()":"715018a6","transferOwnership(address)":"f2fde38b","upgradeToAndCall(address,bytes)":"4f1ef286"},"id":50}