{"abi":[{"type":"constructor","inputs":[],"stateMutability":"nonpayable"},{"type":"function","name":"UPGRADE_INTERFACE_VERSION","inputs":[],"outputs":[{"name":"","type":"string","internalType":"string"}],"stateMutability":"view"},{"type":"function","name":"initialize","inputs":[{"name":"initialOwner","type":"address","internalType":"address"}],"outputs":[],"stateMutability":"nonpayable"},{"type":"function","name":"invokeLore","inputs":[{"name":"_data","type":"string","internalType":"string"},{"name":"_triggerName","type":"string","internalType":"string"}],"outputs":[],"stateMutability":"nonpayable"},{"type":"function","name":"owner","inputs":[],"outputs":[{"name":"","type":"address","internalType":"address"}],"stateMutability":"view"},{"type":"function","name":"proxiableUUID","inputs":[],"outputs":[{"name":"","type":"bytes32","internalType":"bytes32"}],"stateMutability":"view"},{"type":"function","name":"renounceOwnership","inputs":[],"outputs":[],"stateMutability":"nonpayable"},{"type":"function","name":"setTrigger","inputs":[{"name":"_name","type":"string","internalType":"string"},{"name":"_keyword","type":"string","internalType":"string"},{"name":"_narrativeTemplate","type":"string","internalType":"string"}],"outputs":[],"stateMutability":"nonpayable"},{"type":"function","name":"transferOwnership","inputs":[{"name":"newOwner","type":"address","internalType":"address"}],"outputs":[],"stateMutability":"nonpayable"},{"type":"function","name":"triggers","inputs":[{"name":"","type":"bytes32","internalType":"bytes32"}],"outputs":[{"name":"keyword","type":"string","internalType":"string"},{"name":"narrativeTemplate","type":"string","internalType":"string"},{"name":"isDefined","type":"bool","internalType":"bool"}],"stateMutability":"view"},{"type":"function","name":"upgradeToAndCall","inputs":[{"name":"newImplementation","type":"address","internalType":"address"},{"name":"data","type":"bytes","internalType":"bytes"}],"outputs":[],"stateMutability":"payable"},{"type":"event","name":"Initialized","inputs":[{"name":"version","type":"uint64","indexed":false,"internalType":"uint64"}],"anonymous":false},{"type":"event","name":"LoreTriggered","inputs":[{"name":"triggerId","type":"bytes32","indexed":true,"internalType":"bytes32"},{"name":"narrative","type":"string","indexed":false,"internalType":"string"},{"name":"rawData","type":"string","indexed":false,"internalType":"string"}],"anonymous":false},{"type":"event","name":"OwnershipTransferred","inputs":[{"name":"previousOwner","type":"address","indexed":true,"internalType":"address"},{"name":"newOwner","type":"address","indexed":true,"internalType":"address"}],"anonymous":false},{"type":"event","name":"Upgraded","inputs":[{"name":"implementation","type":"address","indexed":true,"internalType":"address"}],"anonymous":false},{"type":"error","name":"AddressEmptyCode","inputs":[{"name":"target","type":"address","internalType":"address"}]},{"type":"error","name":"ERC1967InvalidImplementation","inputs":[{"name":"implementation","type":"address","internalType":"address"}]},{"type":"error","name":"ERC1967NonPayable","inputs":[]},{"type":"error","name":"FailedCall","inputs":[]},{"type":"error","name":"InvalidInitialization","inputs":[]},{"type":"error","name":"NotInitializing","inputs":[]},{"type":"error","name":"OwnableInvalidOwner","inputs":[{"name":"owner","type":"address","internalType":"address"}]},{"type":"error","name":"OwnableUnauthorizedAccount","inputs":[{"name":"account","type":"address","internalType":"address"}]},{"type":"error","name":"UUPSUnauthorizedCallContext","inputs":[]},{"type":"error","name":"UUPSUnsupportedProxiableUUID","inputs":[{"name":"slot","type":"bytes32","internalType":"bytes32"}]}],"bytecode":{"object":"0x60a06040523073ffffffffffffffffffffffffffffffffffffffff1660809073ffffffffffffffffffffffffffffffffffffffff1681525034801562000043575f80fd5b50620000546200005a60201b60201c565b620001e1565b5f6200006b6200015e60201b60201c565b9050805f0160089054906101000a900460ff1615620000b6576040517ff92ee8a900000000000000000000000000000000000000000000000000000000815260040160405180910390fd5b67ffffffffffffffff8016815f015f9054906101000a900467ffffffffffffffff1667ffffffffffffffff16146200015b5767ffffffffffffffff815f015f6101000a81548167ffffffffffffffff021916908367ffffffffffffffff1602179055507fc7f505b2f371ae2175ee4913f4499e1f2633a7b5936321eed1cdaeb6115181d267ffffffffffffffff604051620001529190620001c6565b60405180910390a15b50565b5f80620001706200017960201b60201c565b90508091505090565b5f7ff0c57e16840df040f15088dc2f81fe391c3923bec73e23a9662efc9c229c6a005f1b905090565b5f67ffffffffffffffff82169050919050565b620001c081620001a2565b82525050565b5f602082019050620001db5f830184620001b5565b92915050565b608051611d94620002085f395f8181610a0001528181610a550152610c0f0152611d945ff3fe608060405260043610610090575f3560e01c80638da5cb5b116100585780638da5cb5b14610156578063ad3cb1cc14610180578063b5657afd146101aa578063c4d66de8146101d2578063f2fde38b146101fa57610090565b8063353378f31461009457806346d53fb7146100d25780634f1ef286146100fa57806352d1902d14610116578063715018a614610140575b5f80fd5b34801561009f575f80fd5b506100ba60048036038101906100b591906112bd565b610222565b6040516100c99392919061138c565b60405180910390f35b3480156100dd575f80fd5b506100f860048036038101906100f391906114fb565b61035f565b005b610114600480360381019061010f9190611669565b61054e565b005b348015610121575f80fd5b5061012a61056d565b60405161013791906116d2565b60405180910390f35b34801561014b575f80fd5b5061015461059e565b005b348015610161575f80fd5b5061016a6105b1565b60405161017791906116fa565b60405180910390f35b34801561018b575f80fd5b506101946105e6565b6040516101a19190611713565b60405180910390f35b3480156101b5575f80fd5b506101d060048036038101906101cb9190611733565b61061f565b005b3480156101dd575f80fd5b506101f860048036038101906101f391906117d7565b6106d1565b005b348015610205575f80fd5b50610220600480360381019061021b91906117d7565b61085a565b005b5f602052805f5260405f205f91509050805f0180546102409061182f565b80601f016020809104026020016040519081016040528092919081815260200182805461026c9061182f565b80156102b75780601f1061028e576101008083540402835291602001916102b7565b820191905f5260205f20905b81548152906001019060200180831161029a57829003601f168201915b5050505050908060010180546102cc9061182f565b80601f01602080910402602001604051908101604052809291908181526020018280546102f89061182f565b80156103435780601f1061031a57610100808354040283529160200191610343565b820191905f5260205f20905b81548152906001019060200180831161032657829003601f168201915b505050505090806002015f9054906101000a900460ff16905083565b5f816040516020016103719190611899565b6040516020818303038152906040528051906020012090505f805f8381526020019081526020015f206040518060600160405290815f820180546103b49061182f565b80601f01602080910402602001604051908101604052809291908181526020018280546103e09061182f565b801561042b5780601f106104025761010080835404028352916020019161042b565b820191905f5260205f20905b81548152906001019060200180831161040e57829003601f168201915b505050505081526020016001820180546104449061182f565b80601f01602080910402602001604051908101604052809291908181526020018280546104709061182f565b80156104bb5780601f10610492576101008083540402835291602001916104bb565b820191905f5260205f20905b81548152906001019060200180831161049e57829003601f168201915b50505050508152602001600282015f9054906101000a900460ff1615151515815250509050806040015115610548575f8451118015610503575061050284825f01516108de565b5b1561054757817fec9dfc1a3901a99147707706d68df5d862af403fd6fdea3cf6aa6ea5fc75f67382602001518660405161053e9291906118af565b60405180910390a25b5b50505050565b6105566109fe565b61055f82610ae4565b6105698282610aef565b5050565b5f610576610c0d565b7f360894a13ba1a3210667c828492db98dca3e2076cc3735a920a3ca505d382bbc5f1b905090565b6105a6610c94565b6105af5f610d1b565b565b5f806105bb610dec565b9050805f015f9054906101000a900473ffffffffffffffffffffffffffffffffffffffff1691505090565b6040518060400160405280600581526020017f352e302e3000000000000000000000000000000000000000000000000000000081525081565b610627610c94565b5f836040516020016106399190611899565b6040516020818303038152906040528051906020012090506040518060600160405280848152602001838152602001600115158152505f808381526020019081526020015f205f820151815f0190816106929190611a8a565b5060208201518160010190816106a89190611a8a565b506040820151816002015f6101000a81548160ff02191690831515021790555090505050505050565b5f6106da610e13565b90505f815f0160089054906101000a900460ff161590505f825f015f9054906101000a900467ffffffffffffffff1690505f808267ffffffffffffffff161480156107225750825b90505f60018367ffffffffffffffff1614801561075557505f3073ffffffffffffffffffffffffffffffffffffffff163b145b905081158015610763575080155b1561079a576040517ff92ee8a900000000000000000000000000000000000000000000000000000000815260040160405180910390fd5b6001855f015f6101000a81548167ffffffffffffffff021916908367ffffffffffffffff16021790555083156107e7576001855f0160086101000a81548160ff0219169083151502179055505b6107f086610e26565b6107f8610e3a565b8315610852575f855f0160086101000a81548160ff0219169083151502179055507fc7f505b2f371ae2175ee4913f4499e1f2633a7b5936321eed1cdaeb6115181d260016040516108499190611ba5565b60405180910390a15b505050505050565b610862610c94565b5f73ffffffffffffffffffffffffffffffffffffffff168173ffffffffffffffffffffffffffffffffffffffff16036108d2575f6040517f1e4fbdf70000000000000000000000000000000000000000000000000000000081526004016108c991906116fa565b60405180910390fd5b6108db81610d1b565b50565b5f808251036108f057600190506109f8565b825182511115610902575f90506109f8565b5f5b825184516109129190611beb565b81116109f3575f600190505f5b84518110156109cd5784818151811061093b5761093a611c1e565b5b602001015160f81c60f81b7effffffffffffffffffffffffffffffffffffffffffffffffffffffffffffff19168682856109759190611c4b565b8151811061098657610985611c1e565b5b602001015160f81c60f81b7effffffffffffffffffffffffffffffffffffffffffffffffffffffffffffff1916146109c0575f91506109cd565b808060010191505061091f565b5080156109df576001925050506109f8565b5080806109eb90611c7e565b915050610904565b505f90505b92915050565b7f000000000000000000000000000000000000000000000000000000000000000073ffffffffffffffffffffffffffffffffffffffff163073ffffffffffffffffffffffffffffffffffffffff161480610aab57507f000000000000000000000000000000000000000000000000000000000000000073ffffffffffffffffffffffffffffffffffffffff16610a92610e44565b73ffffffffffffffffffffffffffffffffffffffff1614155b15610ae2576040517fe07c8dba00000000000000000000000000000000000000000000000000000000815260040160405180910390fd5b565b610aec610c94565b50565b8173ffffffffffffffffffffffffffffffffffffffff166352d1902d6040518163ffffffff1660e01b8152600401602060405180830381865afa925050508015610b5757506040513d601f19601f82011682018060405250810190610b549190611cd9565b60015b610b9857816040517f4c9c8ce3000000000000000000000000000000000000000000000000000000008152600401610b8f91906116fa565b60405180910390fd5b7f360894a13ba1a3210667c828492db98dca3e2076cc3735a920a3ca505d382bbc5f1b8114610bfe57806040517faa1d49a4000000000000000000000000000000000000000000000000000000008152600401610bf591906116d2565b60405180910390fd5b610c088383610e97565b505050565b7f000000000000000000000000000000000000000000000000000000000000000073ffffffffffffffffffffffffffffffffffffffff163073ffffffffffffffffffffffffffffffffffffffff1614610c92576040517fe07c8dba00000000000000000000000000000000000000000000000000000000815260040160405180910390fd5b565b610c9c610f09565b73ffffffffffffffffffffffffffffffffffffffff16610cba6105b1565b73ffffffffffffffffffffffffffffffffffffffff1614610d1957610cdd610f09565b6040517f118cdaa7000000000000000000000000000000000000000000000000000000008152600401610d1091906116fa565b60405180910390fd5b565b5f610d24610dec565b90505f815f015f9054906101000a900473ffffffffffffffffffffffffffffffffffffffff16905082825f015f6101000a81548173ffffffffffffffffffffffffffffffffffffffff021916908373ffffffffffffffffffffffffffffffffffffffff1602179055508273ffffffffffffffffffffffffffffffffffffffff168173ffffffffffffffffffffffffffffffffffffffff167f8be0079c531659141344cd1fd0a4f28419497f9722a3daafe3b4186f6b6457e060405160405180910390a3505050565b5f7f9016d09d72d40fdae2fd8ceac6b6234c7706214fd39c1cd1e609a0528c199300905090565b5f80610e1d610f10565b90508091505090565b610e2e610f39565b610e3781610f79565b50565b610e42610f39565b565b5f610e707f360894a13ba1a3210667c828492db98dca3e2076cc3735a920a3ca505d382bbc5f1b610ffd565b5f015f9054906101000a900473ffffffffffffffffffffffffffffffffffffffff16905090565b610ea082611006565b8173ffffffffffffffffffffffffffffffffffffffff167fbc7cd75a20ee27fd9adebab32041f755214dbc6bffa90cc0225b39da2e5c2d3b60405160405180910390a25f81511115610efc57610ef682826110cf565b50610f05565b610f0461114f565b5b5050565b5f33905090565b5f7ff0c57e16840df040f15088dc2f81fe391c3923bec73e23a9662efc9c229c6a005f1b905090565b610f4161118b565b610f77576040517fd7e6bcf800000000000000000000000000000000000000000000000000000000815260040160405180910390fd5b565b610f81610f39565b5f73ffffffffffffffffffffffffffffffffffffffff168173ffffffffffffffffffffffffffffffffffffffff1603610ff1575f6040517f1e4fbdf7000000000000000000000000000000000000000000000000000000008152600401610fe891906116fa565b60405180910390fd5b610ffa81610d1b565b50565b5f819050919050565b5f8173ffffffffffffffffffffffffffffffffffffffff163b0361106157806040517f4c9c8ce300000000000000000000000000000000000000000000000000000000815260040161105891906116fa565b60405180910390fd5b8061108d7f360894a13ba1a3210667c828492db98dca3e2076cc3735a920a3ca505d382bbc5f1b610ffd565b5f015f6101000a81548173ffffffffffffffffffffffffffffffffffffffff021916908373ffffffffffffffffffffffffffffffffffffffff16021790555050565b60605f808473ffffffffffffffffffffffffffffffffffffffff16846040516110f89190611d48565b5f60405180830381855af49150503d805f8114611130576040519150601f19603f3d011682016040523d82523d5f602084013e611135565b606091505b50915091506111458583836111a9565b9250505092915050565b5f341115611189576040517fb398979f00000000000000000000000000000000000000000000000000000000815260040160405180910390fd5b565b5f611194610e13565b5f0160089054906101000a900460ff16905090565b6060826111be576111b982611236565b61122e565b5f82511480156111e457505f8473ffffffffffffffffffffffffffffffffffffffff163b145b1561122657836040517f9996b31500000000000000000000000000000000000000000000000000000000815260040161121d91906116fa565b60405180910390fd5b81905061122f565b5b9392505050565b5f8151111561124757805160208201fd5b6040517fd6bda27500000000000000000000000000000000000000000000000000000000815260040160405180910390fd5b5f604051905090565b5f80fd5b5f80fd5b5f819050919050565b61129c8161128a565b81146112a6575f80fd5b50565b5f813590506112b781611293565b92915050565b5f602082840312156112d2576112d1611282565b5b5f6112df848285016112a9565b91505092915050565b5f81519050919050565b5f82825260208201905092915050565b5f5b8381101561131f578082015181840152602081019050611304565b5f8484015250505050565b5f601f19601f8301169050919050565b5f611344826112e8565b61134e81856112f2565b935061135e818560208601611302565b6113678161132a565b840191505092915050565b5f8115159050919050565b61138681611372565b82525050565b5f6060820190508181035f8301526113a4818661133a565b905081810360208301526113b8818561133a565b90506113c7604083018461137d565b949350505050565b5f80fd5b5f80fd5b7f4e487b71000000000000000000000000000000000000000000000000000000005f52604160045260245ffd5b61140d8261132a565b810181811067ffffffffffffffff8211171561142c5761142b6113d7565b5b80604052505050565b5f61143e611279565b905061144a8282611404565b919050565b5f67ffffffffffffffff821115611469576114686113d7565b5b6114728261132a565b9050602081019050919050565b828183375f83830152505050565b5f61149f61149a8461144f565b611435565b9050828152602081018484840111156114bb576114ba6113d3565b5b6114c684828561147f565b509392505050565b5f82601f8301126114e2576114e16113cf565b5b81356114f284826020860161148d565b91505092915050565b5f806040838503121561151157611510611282565b5b5f83013567ffffffffffffffff81111561152e5761152d611286565b5b61153a858286016114ce565b925050602083013567ffffffffffffffff81111561155b5761155a611286565b5b611567858286016114ce565b9150509250929050565b5f73ffffffffffffffffffffffffffffffffffffffff82169050919050565b5f61159a82611571565b9050919050565b6115aa81611590565b81146115b4575f80fd5b50565b5f813590506115c5816115a1565b92915050565b5f67ffffffffffffffff8211156115e5576115e46113d7565b5b6115ee8261132a565b9050602081019050919050565b5f61160d611608846115cb565b611435565b905082815260208101848484011115611629576116286113d3565b5b61163484828561147f565b509392505050565b5f82601f8301126116505761164f6113cf565b5b81356116608482602086016115fb565b91505092915050565b5f806040838503121561167f5761167e611282565b5b5f61168c858286016115b7565b925050602083013567ffffffffffffffff8111156116ad576116ac611286565b5b6116b98582860161163c565b9150509250929050565b6116cc8161128a565b82525050565b5f6020820190506116e55f8301846116c3565b92915050565b6116f481611590565b82525050565b5f60208201905061170d5f8301846116eb565b92915050565b5f6020820190508181035f83015261172b818461133a565b905092915050565b5f805f6060848603121561174a57611749611282565b5b5f84013567ffffffffffffffff81111561176757611766611286565b5b611773868287016114ce565b935050602084013567ffffffffffffffff81111561179457611793611286565b5b6117a0868287016114ce565b925050604084013567ffffffffffffffff8111156117c1576117c0611286565b5b6117cd868287016114ce565b9150509250925092565b5f602082840312156117ec576117eb611282565b5b5f6117f9848285016115b7565b91505092915050565b7f4e487b71000000000000000000000000000000000000000000000000000000005f52602260045260245ffd5b5f600282049050600182168061184657607f821691505b60208210810361185957611858611802565b5b50919050565b5f81905092915050565b5f611873826112e8565b61187d818561185f565b935061188d818560208601611302565b80840191505092915050565b5f6118a48284611869565b915081905092915050565b5f6040820190508181035f8301526118c7818561133a565b905081810360208301526118db818461133a565b90509392505050565b5f819050815f5260205f209050919050565b5f6020601f8301049050919050565b5f82821b905092915050565b5f600883026119407fffffffffffffffffffffffffffffffffffffffffffffffffffffffffffffffff82611905565b61194a8683611905565b95508019841693508086168417925050509392505050565b5f819050919050565b5f819050919050565b5f61198e61198961198484611962565b61196b565b611962565b9050919050565b5f819050919050565b6119a783611974565b6119bb6119b382611995565b848454611911565b825550505050565b5f90565b6119cf6119c3565b6119da81848461199e565b505050565b5b818110156119fd576119f25f826119c7565b6001810190506119e0565b5050565b601f821115611a4257611a13816118e4565b611a1c846118f6565b81016020851015611a2b578190505b611a3f611a37856118f6565b8301826119df565b50505b505050565b5f82821c905092915050565b5f611a625f1984600802611a47565b1980831691505092915050565b5f611a7a8383611a53565b9150826002028217905092915050565b611a93826112e8565b67ffffffffffffffff811115611aac57611aab6113d7565b5b611ab6825461182f565b611ac1828285611a01565b5f60209050601f831160018114611af2575f8415611ae0578287015190505b611aea8582611a6f565b865550611b51565b601f198416611b00866118e4565b5f5b82811015611b2757848901518255600182019150602085019450602081019050611b02565b86831015611b445784890151611b40601f891682611a53565b8355505b6001600288020188555050505b505050505050565b5f819050919050565b5f67ffffffffffffffff82169050919050565b5f611b8f611b8a611b8584611b59565b61196b565b611b62565b9050919050565b611b9f81611b75565b82525050565b5f602082019050611bb85f830184611b96565b92915050565b7f4e487b71000000000000000000000000000000000000000000000000000000005f52601160045260245ffd5b5f611bf582611962565b9150611c0083611962565b9250828203905081811115611c1857611c17611bbe565b5b92915050565b7f4e487b71000000000000000000000000000000000000000000000000000000005f52603260045260245ffd5b5f611c5582611962565b9150611c6083611962565b9250828201905080821115611c7857611c77611bbe565b5b92915050565b5f611c8882611962565b91507fffffffffffffffffffffffffffffffffffffffffffffffffffffffffffffffff8203611cba57611cb9611bbe565b5b600182019050919050565b5f81519050611cd381611293565b92915050565b5f60208284031215611cee57611ced611282565b5b5f611cfb84828501611cc5565b91505092915050565b5f81519050919050565b5f81905092915050565b5f611d2282611d04565b611d2c8185611d0e565b9350611d3c818560208601611302565b80840191505092915050565b5f611d538284611d18565b91508190509291505056fea264697066735822122005adcab613ca37fbdfda5b7fa92be9377d66a733e19fa087bc6094622b44e9e264736f6c63430008180033","linkReferences":{}},"methodIdentifiers":{"UPGRADE_INTERFACE_VERSION()":"ad3cb1cc","initialize(address)":"c4d66de8","invokeLore(string,string)":"46d53fb7","owner()":"8da5cb5b","proxiableUUID()":"52d1902d","renounceOwnership()":"715018a6","setTrigger(string,string,string)":"b5657afd","transferOwnership(address)":"f2fde38b","triggers(bytes32)":"353378f3","upgradeToAndCall(address,bytes)":"4f1ef286"},"id":49}