{"abi":[{"type":"constructor","inputs":[],"stateMutability":"nonpayable"},{"type":"function","name":"invokeLore","inputs":[{"name":"_data","type":"string","internalType":"string"},{"name":"_triggerName","type":"string","internalType":"string"}],"outputs":[],"stateMutability":"nonpayable"},{"type":"function","name":"owner","inputs":[],"outputs":[{"name":"","type":"address","internalType":"address"}],"stateMutability":"view"},{"type":"function","name":"renounceOwnership","inputs":[],"outputs":[],"stateMutability":"nonpayable"},{"type":"function","name":"setTrigger","inputs":[{"name":"_name","type":"string","internalType":"string"},{"name":"_keyword","type":"string","internalType":"string"},{"name":"_narrativeTemplate","type":"string","internalType":"string"}],"outputs":[],"stateMutability":"nonpayable"},{"type":"function","name":"transferOwnership","inputs":[{"name":"newOwner","type":"address","internalType":"address"}],"outputs":[],"stateMutability":"nonpayable"},{"type":"function","name":"triggers","inputs":[{"name":"","type":"bytes32","internalType":"bytes32"}],"outputs":[{"name":"keyword","type":"string","internalType":"string"},{"name":"narrativeTemplate","type":"string","internalType":"string"},{"name":"isDefined","type":"bool","internalType":"bool"}],"stateMutability":"view"},{"type":"event","name":"LoreTriggered","inputs":[{"name":"triggerId","type":"bytes32","indexed":true,"internalType":"bytes32"},{"name":"narrative","type":"string","indexed":false,"internalType":"string"},{"name":"rawData","type":"string","indexed":false,"internalType":"string"}],"anonymous":false},{"type":"event","name":"OwnershipTransferred","inputs":[{"name":"previousOwner","type":"address","indexed":true,"internalType":"address"},{"name":"newOwner","type":"address","indexed":true,"internalType":"address"}],"anonymous":false},{"type":"error","name":"OwnableInvalidOwner","inputs":[{"name":"owner","type":"address","internalType":"address"}]},{"type":"error","name":"OwnableUnauthorizedAccount","inputs":[{"name":"account","type":"address","internalType":"address"}]}],"bytecode":{"object":"0x608060405234801561000f575f80fd5b50335f73ffffffffffffffffffffffffffffffffffffffff168173ffffffffffffffffffffffffffffffffffffffff1603610081575f6040517f1e4fbdf70000000000000000000000000000000000000000000000000000000081526004016100789190610196565b60405180910390fd5b6100908161009660201b60201c565b506101af565b5f805f9054906101000a900473ffffffffffffffffffffffffffffffffffffffff169050815f806101000a81548173ffffffffffffffffffffffffffffffffffffffff021916908373ffffffffffffffffffffffffffffffffffffffff1602179055508173ffffffffffffffffffffffffffffffffffffffff168173ffffffffffffffffffffffffffffffffffffffff167f8be0079c531659141344cd1fd0a4f28419497f9722a3daafe3b4186f6b6457e060405160405180910390a35050565b5f73ffffffffffffffffffffffffffffffffffffffff82169050919050565b5f61018082610157565b9050919050565b61019081610176565b82525050565b5f6020820190506101a95f830184610187565b92915050565b6110fd806101bc5f395ff3fe608060405234801561000f575f80fd5b5060043610610060575f3560e01c8063353378f31461006457806346d53fb714610096578063715018a6146100b25780638da5cb5b146100bc578063b5657afd146100da578063f2fde38b146100f6575b5f80fd5b61007e60048036038101906100799190610864565b610112565b60405161008d93929190610933565b60405180910390f35b6100b060048036038101906100ab9190610aa2565b610250565b005b6100ba610440565b005b6100c4610453565b6040516100d19190610b57565b60405180910390f35b6100f460048036038101906100ef9190610b70565b61047a565b005b610110600480360381019061010b9190610c3e565b61052d565b005b6001602052805f5260405f205f91509050805f01805461013190610c96565b80601f016020809104026020016040519081016040528092919081815260200182805461015d90610c96565b80156101a85780601f1061017f576101008083540402835291602001916101a8565b820191905f5260205f20905b81548152906001019060200180831161018b57829003601f168201915b5050505050908060010180546101bd90610c96565b80601f01602080910402602001604051908101604052809291908181526020018280546101e990610c96565b80156102345780601f1061020b57610100808354040283529160200191610234565b820191905f5260205f20905b81548152906001019060200180831161021757829003601f168201915b505050505090806002015f9054906101000a900460ff16905083565b5f816040516020016102629190610d00565b6040516020818303038152906040528051906020012090505f60015f8381526020019081526020015f206040518060600160405290815f820180546102a690610c96565b80601f01602080910402602001604051908101604052809291908181526020018280546102d290610c96565b801561031d5780601f106102f45761010080835404028352916020019161031d565b820191905f5260205f20905b81548152906001019060200180831161030057829003601f168201915b5050505050815260200160018201805461033690610c96565b80601f016020809104026020016040519081016040528092919081815260200182805461036290610c96565b80156103ad5780601f10610384576101008083540402835291602001916103ad565b820191905f5260205f20905b81548152906001019060200180831161039057829003601f168201915b50505050508152602001600282015f9054906101000a900460ff161515151581525050905080604001511561043a575f84511180156103f557506103f484825f01516105b1565b5b1561043957817fec9dfc1a3901a99147707706d68df5d862af403fd6fdea3cf6aa6ea5fc75f673826020015186604051610430929190610d16565b60405180910390a25b5b50505050565b6104486106d1565b6104515f610758565b565b5f805f9054906101000a900473ffffffffffffffffffffffffffffffffffffffff16905090565b6104826106d1565b5f836040516020016104949190610d00565b60405160208183030381529060405280519060200120905060405180606001604052808481526020018381526020016001151581525060015f8381526020019081526020015f205f820151815f0190816104ee9190610ef1565b5060208201518160010190816105049190610ef1565b506040820151816002015f6101000a81548160ff02191690831515021790555090505050505050565b6105356106d1565b5f73ffffffffffffffffffffffffffffffffffffffff168173ffffffffffffffffffffffffffffffffffffffff16036105a5575f6040517f1e4fbdf700000000000000000000000000000000000000000000000000000000815260040161059c9190610b57565b60405180910390fd5b6105ae81610758565b50565b5f808251036105c357600190506106cb565b8251825111156105d5575f90506106cb565b5f5b825184516105e59190610fed565b81116106c6575f600190505f5b84518110156106a05784818151811061060e5761060d611020565b5b602001015160f81c60f81b7effffffffffffffffffffffffffffffffffffffffffffffffffffffffffffff1916868285610648919061104d565b8151811061065957610658611020565b5b602001015160f81c60f81b7effffffffffffffffffffffffffffffffffffffffffffffffffffffffffffff191614610693575f91506106a0565b80806001019150506105f2565b5080156106b2576001925050506106cb565b5080806106be90611080565b9150506105d7565b505f90505b92915050565b6106d9610819565b73ffffffffffffffffffffffffffffffffffffffff166106f7610453565b73ffffffffffffffffffffffffffffffffffffffff16146107565761071a610819565b6040517f118cdaa700000000000000000000000000000000000000000000000000000000815260040161074d9190610b57565b60405180910390fd5b565b5f805f9054906101000a900473ffffffffffffffffffffffffffffffffffffffff169050815f806101000a81548173ffffffffffffffffffffffffffffffffffffffff021916908373ffffffffffffffffffffffffffffffffffffffff1602179055508173ffffffffffffffffffffffffffffffffffffffff168173ffffffffffffffffffffffffffffffffffffffff167f8be0079c531659141344cd1fd0a4f28419497f9722a3daafe3b4186f6b6457e060405160405180910390a35050565b5f33905090565b5f604051905090565b5f80fd5b5f80fd5b5f819050919050565b61084381610831565b811461084d575f80fd5b50565b5f8135905061085e8161083a565b92915050565b5f6020828403121561087957610878610829565b5b5f61088684828501610850565b91505092915050565b5f81519050919050565b5f82825260208201905092915050565b5f5b838110156108c65780820151818401526020810190506108ab565b5f8484015250505050565b5f601f19601f8301169050919050565b5f6108eb8261088f565b6108f58185610899565b93506109058185602086016108a9565b61090e816108d1565b840191505092915050565b5f8115159050919050565b61092d81610919565b82525050565b5f6060820190508181035f83015261094b81866108e1565b9050818103602083015261095f81856108e1565b905061096e6040830184610924565b949350505050565b5f80fd5b5f80fd5b7f4e487b71000000000000000000000000000000000000000000000000000000005f52604160045260245ffd5b6109b4826108d1565b810181811067ffffffffffffffff821117156109d3576109d261097e565b5b80604052505050565b5f6109e5610820565b90506109f182826109ab565b919050565b5f67ffffffffffffffff821115610a1057610a0f61097e565b5b610a19826108d1565b9050602081019050919050565b828183375f83830152505050565b5f610a46610a41846109f6565b6109dc565b905082815260208101848484011115610a6257610a6161097a565b5b610a6d848285610a26565b509392505050565b5f82601f830112610a8957610a88610976565b5b8135610a99848260208601610a34565b91505092915050565b5f8060408385031215610ab857610ab7610829565b5b5f83013567ffffffffffffffff811115610ad557610ad461082d565b5b610ae185828601610a75565b925050602083013567ffffffffffffffff811115610b0257610b0161082d565b5b610b0e85828601610a75565b9150509250929050565b5f73ffffffffffffffffffffffffffffffffffffffff82169050919050565b5f610b4182610b18565b9050919050565b610b5181610b37565b82525050565b5f602082019050610b6a5f830184610b48565b92915050565b5f805f60608486031215610b8757610b86610829565b5b5f84013567ffffffffffffffff811115610ba457610ba361082d565b5b610bb086828701610a75565b935050602084013567ffffffffffffffff811115610bd157610bd061082d565b5b610bdd86828701610a75565b925050604084013567ffffffffffffffff811115610bfe57610bfd61082d565b5b610c0a86828701610a75565b9150509250925092565b610c1d81610b37565b8114610c27575f80fd5b50565b5f81359050610c3881610c14565b92915050565b5f60208284031215610c5357610c52610829565b5b5f610c6084828501610c2a565b91505092915050565b7f4e487b71000000000000000000000000000000000000000000000000000000005f52602260045260245ffd5b5f6002820490506001821680610cad57607f821691505b602082108103610cc057610cbf610c69565b5b50919050565b5f81905092915050565b5f610cda8261088f565b610ce48185610cc6565b9350610cf48185602086016108a9565b80840191505092915050565b5f610d0b8284610cd0565b915081905092915050565b5f6040820190508181035f830152610d2e81856108e1565b90508181036020830152610d4281846108e1565b90509392505050565b5f819050815f5260205f209050919050565b5f6020601f8301049050919050565b5f82821b905092915050565b5f60088302610da77fffffffffffffffffffffffffffffffffffffffffffffffffffffffffffffffff82610d6c565b610db18683610d6c565b95508019841693508086168417925050509392505050565b5f819050919050565b5f819050919050565b5f610df5610df0610deb84610dc9565b610dd2565b610dc9565b9050919050565b5f819050919050565b610e0e83610ddb565b610e22610e1a82610dfc565b848454610d78565b825550505050565b5f90565b610e36610e2a565b610e41818484610e05565b505050565b5b81811015610e6457610e595f82610e2e565b600181019050610e47565b5050565b601f821115610ea957610e7a81610d4b565b610e8384610d5d565b81016020851015610e92578190505b610ea6610e9e85610d5d565b830182610e46565b50505b505050565b5f82821c905092915050565b5f610ec95f1984600802610eae565b1980831691505092915050565b5f610ee18383610eba565b9150826002028217905092915050565b610efa8261088f565b67ffffffffffffffff811115610f1357610f1261097e565b5b610f1d8254610c96565b610f28828285610e68565b5f60209050601f831160018114610f59575f8415610f47578287015190505b610f518582610ed6565b865550610fb8565b601f198416610f6786610d4b565b5f5b82811015610f8e57848901518255600182019150602085019450602081019050610f69565b86831015610fab5784890151610fa7601f891682610eba565b8355505b6001600288020188555050505b505050505050565b7f4e487b71000000000000000000000000000000000000000000000000000000005f52601160045260245ffd5b5f610ff782610dc9565b915061100283610dc9565b925082820390508181111561101a57611019610fc0565b5b92915050565b7f4e487b71000000000000000000000000000000000000000000000000000000005f52603260045260245ffd5b5f61105782610dc9565b915061106283610dc9565b925082820190508082111561107a57611079610fc0565b5b92915050565b5f61108a82610dc9565b91507fffffffffffffffffffffffffffffffffffffffffffffffffffffffffffffffff82036110bc576110bb610fc0565b5b60018201905091905056fea2646970667358221220f1fae30b1fb32b12ac16972a1c0611f496b9885f14085e43f5538c84075811ee64736f6c63430008180033","linkReferences":{}},"methodIdentifiers":{"invokeLore(string,string)":"46d53fb7","owner()":"8da5cb5b","renounceOwnership()":"715018a6","setTrigger(string,string,string)":"b5657afd","transferOwnership(address)":"f2fde38b","triggers(bytes32)":"353378f3"},"id":25}