{"abi":[{"type":"constructor","inputs":[],"stateMutability":"nonpayable"},{"type":"function","name":"UPGRADE_INTERFACE_VERSION","inputs":[],"outputs":[{"name":"","type":"string","internalType":"string"}],"stateMutability":"view"},{"type":"function","name":"getSchema","inputs":[{"name":"_name","type":"string","internalType":"string"}],"outputs":[{"name":"","type":"tuple","internalType":"struct SchemaForge.ApiSchema","components":[{"name":"urlParts","type":"string[]","internalType":"string[]"},{"name":"keyPlaceholders","type":"string[]","internalType":"string[]"},{"name":"requiredKeys","type":"string[]","internalType":"string[]"},{"name":"responseParser","type":"address","internalType":"address"},{"name":"isDefined","type":"bool","internalType":"bool"}]}],"stateMutability":"view"},{"type":"function","name":"getSchemaId","inputs":[{"name":"_name","type":"string","internalType":"string"}],"outputs":[{"name":"","type":"bytes32","internalType":"bytes32"}],"stateMutability":"pure"},{"type":"function","name":"initialize","inputs":[{"name":"initialOwner","type":"address","internalType":"address"}],"outputs":[],"stateMutability":"nonpayable"},{"type":"function","name":"owner","inputs":[],"outputs":[{"name":"","type":"address","internalType":"address"}],"stateMutability":"view"},{"type":"function","name":"proxiableUUID","inputs":[],"outputs":[{"name":"","type":"bytes32","internalType":"bytes32"}],"stateMutability":"view"},{"type":"function","name":"registerSchema","inputs":[{"name":"_name","type":"string","internalType":"string"},{"name":"_urlParts","type":"string[]","internalType":"string[]"},{"name":"_keyPlaceholders","type":"string[]","internalType":"string[]"},{"name":"_requiredKeys","type":"string[]","internalType":"string[]"},{"name":"_responseParser","type":"address","internalType":"address"}],"outputs":[],"stateMutability":"nonpayable"},{"type":"function","name":"renounceOwnership","inputs":[],"outputs":[],"stateMutability":"nonpayable"},{"type":"function","name":"schemas","inputs":[{"name":"","type":"bytes32","internalType":"bytes32"}],"outputs":[{"name":"responseParser","type":"address","internalType":"address"},{"name":"isDefined","type":"bool","internalType":"bool"}],"stateMutability":"view"},{"type":"function","name":"transferOwnership","inputs":[{"name":"newOwner","type":"address","internalType":"address"}],"outputs":[],"stateMutability":"nonpayable"},{"type":"function","name":"upgradeToAndCall","inputs":[{"name":"newImplementation","type":"address","internalType":"address"},{"name":"data","type":"bytes","internalType":"bytes"}],"outputs":[],"stateMutability":"payable"},{"type":"event","name":"Initialized","inputs":[{"name":"version","type":"uint64","indexed":false,"internalType":"uint64"}],"anonymous":false},{"type":"event","name":"OwnershipTransferred","inputs":[{"name":"previousOwner","type":"address","indexed":true,"internalType":"address"},{"name":"newOwner","type":"address","indexed":true,"internalType":"address"}],"anonymous":false},{"type":"event","name":"SchemaRegistered","inputs":[{"name":"schemaId","type":"bytes32","indexed":true,"internalType":"bytes32"},{"name":"name","type":"string","indexed":false,"internalType":"string"}],"anonymous":false},{"type":"event","name":"Upgraded","inputs":[{"name":"implementation","type":"address","indexed":true,"internalType":"address"}],"anonymous":false},{"type":"error","name":"AddressEmptyCode","inputs":[{"name":"target","type":"address","internalType":"address"}]},{"type":"error","name":"ERC1967InvalidImplementation","inputs":[{"name":"implementation","type":"address","internalType":"address"}]},{"type":"error","name":"ERC1967NonPayable","inputs":[]},{"type":"error","name":"FailedCall","inputs":[]},{"type":"error","name":"InvalidInitialization","inputs":[]},{"type":"error","name":"NotInitializing","inputs":[]},{"type":"error","name":"OwnableInvalidOwner","inputs":[{"name":"owner","type":"address","internalType":"address"}]},{"type":"error","name":"OwnableUnauthorizedAccount","inputs":[{"name":"account","type":"address","internalType":"address"}]},{"type":"error","name":"UUPSUnauthorizedCallContext","inputs":[]},{"type":"error","name":"UUPSUnsupportedProxiableUUID","inputs":[{"name":"slot","type":"bytes32","internalType":"bytes32"}]}],"bytecode":{"object":"0x60a06040523073ffffffffffffffffffffffffffffffffffffffff1660809073ffffffffffffffffffffffffffffffffffffffff1681525034801562000043575f80fd5b50620000546200005a60201b60201c565b620001e1565b5f6200006b6200015e60201b60201c565b9050805f0160089054906101000a900460ff1615620000b6576040517ff92ee8a900000000000000000000000000000000000000000000000000000000815260040160405180910390fd5b67ffffffffffffffff8016815f015f9054906101000a900467ffffffffffffffff1667ffffffffffffffff16146200015b5767ffffffffffffffff815f015f6101000a81548167ffffffffffffffff021916908367ffffffffffffffff1602179055507fc7f505b2f371ae2175ee4913f4499e1f2633a7b5936321eed1cdaeb6115181d267ffffffffffffffff604051620001529190620001c6565b60405180910390a15b50565b5f80620001706200017960201b60201c565b90508091505090565b5f7ff0c57e16840df040f15088dc2f81fe391c3923bec73e23a9662efc9c229c6a005f1b905090565b5f67ffffffffffffffff82169050919050565b620001c081620001a2565b82525050565b5f602082019050620001db5f830184620001b5565b92915050565b6080516121a4620002085f395f8181610b3201528181610b870152610d4101526121a45ff3fe60806040526004361061009b575f3560e01c80638da5cb5b116100635780638da5cb5b1461015f578063ad3cb1cc14610189578063c4d66de8146101b3578063ca2adef6146101db578063f1a03f1b14610218578063f2fde38b146102545761009b565b80632cd9281a1461009f57806344dab4b6146100db5780634f1ef2861461010357806352d1902d1461011f578063715018a614610149575b5f80fd5b3480156100aa575f80fd5b506100c560048036038101906100c09190611588565b61027c565b6040516100d291906115e7565b60405180910390f35b3480156100e6575f80fd5b5061010160048036038101906100fc919061173c565b6102ab565b005b61011d600480360381019061011891906118c1565b61045d565b005b34801561012a575f80fd5b5061013361047c565b60405161014091906115e7565b60405180910390f35b348015610154575f80fd5b5061015d6104ad565b005b34801561016a575f80fd5b506101736104c0565b604051610180919061192a565b60405180910390f35b348015610194575f80fd5b5061019d6104f5565b6040516101aa91906119bd565b60405180910390f35b3480156101be575f80fd5b506101d960048036038101906101d491906119dd565b61052e565b005b3480156101e6575f80fd5b5061020160048036038101906101fc9190611a32565b6106b7565b60405161020f929190611a77565b60405180910390f35b348015610223575f80fd5b5061023e60048036038101906102399190611588565b610703565b60405161024b9190611c40565b60405180910390f35b34801561025f575f80fd5b5061027a600480360381019061027591906119dd565b610a25565b005b5f8160405160200161028e9190611c9a565b604051602081830303815290604052805190602001209050919050565b6102b3610aa9565b600183516102c19190611ce6565b845114610303576040517f08c379a00000000000000000000000000000000000000000000000000000000081526004016102fa90611d89565b60405180910390fd5b5f61030d8661027c565b90506040518060a001604052808681526020018581526020018481526020018373ffffffffffffffffffffffffffffffffffffffff168152602001600115158152505f808381526020019081526020015f205f820151815f019080519060200190610379929190611324565b506020820151816001019080519060200190610396929190611324565b5060408201518160020190805190602001906103b3929190611324565b506060820151816003015f6101000a81548173ffffffffffffffffffffffffffffffffffffffff021916908373ffffffffffffffffffffffffffffffffffffffff16021790555060808201518160030160146101000a81548160ff021916908315150217905550905050807f738234319857c9e7589a20c92e7329e4f47277fb47c3423c4fedad4b27b9dd958760405161044d91906119bd565b60405180910390a2505050505050565b610465610b30565b61046e82610c16565b6104788282610c21565b5050565b5f610485610d3f565b7f360894a13ba1a3210667c828492db98dca3e2076cc3735a920a3ca505d382bbc5f1b905090565b6104b5610aa9565b6104be5f610dc6565b565b5f806104ca610e97565b9050805f015f9054906101000a900473ffffffffffffffffffffffffffffffffffffffff1691505090565b6040518060400160405280600581526020017f352e302e3000000000000000000000000000000000000000000000000000000081525081565b5f610537610ebe565b90505f815f0160089054906101000a900460ff161590505f825f015f9054906101000a900467ffffffffffffffff1690505f808267ffffffffffffffff1614801561057f5750825b90505f60018367ffffffffffffffff161480156105b257505f3073ffffffffffffffffffffffffffffffffffffffff163b145b9050811580156105c0575080155b156105f7576040517ff92ee8a900000000000000000000000000000000000000000000000000000000815260040160405180910390fd5b6001855f015f6101000a81548167ffffffffffffffff021916908367ffffffffffffffff1602179055508315610644576001855f0160086101000a81548160ff0219169083151502179055505b61064d86610ed1565b610655610ee5565b83156106af575f855f0160086101000a81548160ff0219169083151502179055507fc7f505b2f371ae2175ee4913f4499e1f2633a7b5936321eed1cdaeb6115181d260016040516106a69190611dfc565b60405180910390a15b505050505050565b5f602052805f5260405f205f91509050806003015f9054906101000a900473ffffffffffffffffffffffffffffffffffffffff16908060030160149054906101000a900460ff16905082565b61070b61137b565b5f6107158361027c565b90505f808281526020019081526020015f206040518060a00160405290815f8201805480602002602001604051908101604052809291908181526020015f905b828210156107fd578382905f5260205f2001805461077290611e42565b80601f016020809104026020016040519081016040528092919081815260200182805461079e90611e42565b80156107e95780601f106107c0576101008083540402835291602001916107e9565b820191905f5260205f20905b8154815290600101906020018083116107cc57829003601f168201915b505050505081526020019060010190610755565b50505050815260200160018201805480602002602001604051908101604052809291908181526020015f905b828210156108d1578382905f5260205f2001805461084690611e42565b80601f016020809104026020016040519081016040528092919081815260200182805461087290611e42565b80156108bd5780601f10610894576101008083540402835291602001916108bd565b820191905f5260205f20905b8154815290600101906020018083116108a057829003601f168201915b505050505081526020019060010190610829565b50505050815260200160028201805480602002602001604051908101604052809291908181526020015f905b828210156109a5578382905f5260205f2001805461091a90611e42565b80601f016020809104026020016040519081016040528092919081815260200182805461094690611e42565b80156109915780601f1061096857610100808354040283529160200191610991565b820191905f5260205f20905b81548152906001019060200180831161097457829003601f168201915b5050505050815260200190600101906108fd565b505050508152602001600382015f9054906101000a900473ffffffffffffffffffffffffffffffffffffffff1673ffffffffffffffffffffffffffffffffffffffff1673ffffffffffffffffffffffffffffffffffffffff1681526020016003820160149054906101000a900460ff161515151581525050915050919050565b610a2d610aa9565b5f73ffffffffffffffffffffffffffffffffffffffff168173ffffffffffffffffffffffffffffffffffffffff1603610a9d575f6040517f1e4fbdf7000000000000000000000000000000000000000000000000000000008152600401610a94919061192a565b60405180910390fd5b610aa681610dc6565b50565b610ab1610eef565b73ffffffffffffffffffffffffffffffffffffffff16610acf6104c0565b73ffffffffffffffffffffffffffffffffffffffff1614610b2e57610af2610eef565b6040517f118cdaa7000000000000000000000000000000000000000000000000000000008152600401610b25919061192a565b60405180910390fd5b565b7f000000000000000000000000000000000000000000000000000000000000000073ffffffffffffffffffffffffffffffffffffffff163073ffffffffffffffffffffffffffffffffffffffff161480610bdd57507f000000000000000000000000000000000000000000000000000000000000000073ffffffffffffffffffffffffffffffffffffffff16610bc4610ef6565b73ffffffffffffffffffffffffffffffffffffffff1614155b15610c14576040517fe07c8dba00000000000000000000000000000000000000000000000000000000815260040160405180910390fd5b565b610c1e610aa9565b50565b8173ffffffffffffffffffffffffffffffffffffffff166352d1902d6040518163ffffffff1660e01b8152600401602060405180830381865afa925050508015610c8957506040513d601f19601f82011682018060405250810190610c869190611e86565b60015b610cca57816040517f4c9c8ce3000000000000000000000000000000000000000000000000000000008152600401610cc1919061192a565b60405180910390fd5b7f360894a13ba1a3210667c828492db98dca3e2076cc3735a920a3ca505d382bbc5f1b8114610d3057806040517faa1d49a4000000000000000000000000000000000000000000000000000000008152600401610d2791906115e7565b60405180910390fd5b610d3a8383610f49565b505050565b7f000000000000000000000000000000000000000000000000000000000000000073ffffffffffffffffffffffffffffffffffffffff163073ffffffffffffffffffffffffffffffffffffffff1614610dc4576040517fe07c8dba00000000000000000000000000000000000000000000000000000000815260040160405180910390fd5b565b5f610dcf610e97565b90505f815f015f9054906101000a900473ffffffffffffffffffffffffffffffffffffffff16905082825f015f6101000a81548173ffffffffffffffffffffffffffffffffffffffff021916908373ffffffffffffffffffffffffffffffffffffffff1602179055508273ffffffffffffffffffffffffffffffffffffffff168173ffffffffffffffffffffffffffffffffffffffff167f8be0079c531659141344cd1fd0a4f28419497f9722a3daafe3b4186f6b6457e060405160405180910390a3505050565b5f7f9016d09d72d40fdae2fd8ceac6b6234c7706214fd39c1cd1e609a0528c199300905090565b5f80610ec8610fbb565b90508091505090565b610ed9610fe4565b610ee281611024565b50565b610eed610fe4565b565b5f33905090565b5f610f227f360894a13ba1a3210667c828492db98dca3e2076cc3735a920a3ca505d382bbc5f1b6110a8565b5f015f9054906101000a900473ffffffffffffffffffffffffffffffffffffffff16905090565b610f52826110b1565b8173ffffffffffffffffffffffffffffffffffffffff167fbc7cd75a20ee27fd9adebab32041f755214dbc6bffa90cc0225b39da2e5c2d3b60405160405180910390a25f81511115610fae57610fa8828261117a565b50610fb7565b610fb66111fa565b5b5050565b5f7ff0c57e16840df040f15088dc2f81fe391c3923bec73e23a9662efc9c229c6a005f1b905090565b610fec611236565b611022576040517fd7e6bcf800000000000000000000000000000000000000000000000000000000815260040160405180910390fd5b565b61102c610fe4565b5f73ffffffffffffffffffffffffffffffffffffffff168173ffffffffffffffffffffffffffffffffffffffff160361109c575f6040517f1e4fbdf7000000000000000000000000000000000000000000000000000000008152600401611093919061192a565b60405180910390fd5b6110a581610dc6565b50565b5f819050919050565b5f8173ffffffffffffffffffffffffffffffffffffffff163b0361110c57806040517f4c9c8ce3000000000000000000000000000000000000000000000000000000008152600401611103919061192a565b60405180910390fd5b806111387f360894a13ba1a3210667c828492db98dca3e2076cc3735a920a3ca505d382bbc5f1b6110a8565b5f015f6101000a81548173ffffffffffffffffffffffffffffffffffffffff021916908373ffffffffffffffffffffffffffffffffffffffff16021790555050565b60605f808473ffffffffffffffffffffffffffffffffffffffff16846040516111a39190611ef5565b5f60405180830381855af49150503d805f81146111db576040519150601f19603f3d011682016040523d82523d5f602084013e6111e0565b606091505b50915091506111f0858383611254565b9250505092915050565b5f341115611234576040517fb398979f00000000000000000000000000000000000000000000000000000000815260040160405180910390fd5b565b5f61123f610ebe565b5f0160089054906101000a900460ff16905090565b60608261126957611264826112e1565b6112d9565b5f825114801561128f57505f8473ffffffffffffffffffffffffffffffffffffffff163b145b156112d157836040517f9996b3150000000000000000000000000000000000000000000000000000000081526004016112c8919061192a565b60405180910390fd5b8190506112da565b5b9392505050565b5f815111156112f257805160208201fd5b6040517fd6bda27500000000000000000000000000000000000000000000000000000000815260040160405180910390fd5b828054828255905f5260205f2090810192821561136a579160200282015b82811115611369578251829081611359919061209f565b5091602001919060010190611342565b5b50905061137791906113c0565b5090565b6040518060a001604052806060815260200160608152602001606081526020015f73ffffffffffffffffffffffffffffffffffffffff1681526020015f151581525090565b5b808211156113df575f81816113d691906113e3565b506001016113c1565b5090565b5080546113ef90611e42565b5f825580601f10611400575061141d565b601f0160209004905f5260205f209081019061141c9190611420565b5b50565b5b80821115611437575f815f905550600101611421565b5090565b5f604051905090565b5f80fd5b5f80fd5b5f80fd5b5f80fd5b5f601f19601f8301169050919050565b7f4e487b71000000000000000000000000000000000000000000000000000000005f52604160045260245ffd5b61149a82611454565b810181811067ffffffffffffffff821117156114b9576114b8611464565b5b80604052505050565b5f6114cb61143b565b90506114d78282611491565b919050565b5f67ffffffffffffffff8211156114f6576114f5611464565b5b6114ff82611454565b9050602081019050919050565b828183375f83830152505050565b5f61152c611527846114dc565b6114c2565b90508281526020810184848401111561154857611547611450565b5b61155384828561150c565b509392505050565b5f82601f83011261156f5761156e61144c565b5b813561157f84826020860161151a565b91505092915050565b5f6020828403121561159d5761159c611444565b5b5f82013567ffffffffffffffff8111156115ba576115b9611448565b5b6115c68482850161155b565b91505092915050565b5f819050919050565b6115e1816115cf565b82525050565b5f6020820190506115fa5f8301846115d8565b92915050565b5f67ffffffffffffffff82111561161a57611619611464565b5b602082029050602081019050919050565b5f80fd5b5f61164161163c84611600565b6114c2565b905080838252602082019050602084028301858111156116645761166361162b565b5b835b818110156116ab57803567ffffffffffffffff8111156116895761168861144c565b5b808601611696898261155b565b85526020850194505050602081019050611666565b5050509392505050565b5f82601f8301126116c9576116c861144c565b5b81356116d984826020860161162f565b91505092915050565b5f73ffffffffffffffffffffffffffffffffffffffff82169050919050565b5f61170b826116e2565b9050919050565b61171b81611701565b8114611725575f80fd5b50565b5f8135905061173681611712565b92915050565b5f805f805f60a0868803121561175557611754611444565b5b5f86013567ffffffffffffffff81111561177257611771611448565b5b61177e8882890161155b565b955050602086013567ffffffffffffffff81111561179f5761179e611448565b5b6117ab888289016116b5565b945050604086013567ffffffffffffffff8111156117cc576117cb611448565b5b6117d8888289016116b5565b935050606086013567ffffffffffffffff8111156117f9576117f8611448565b5b611805888289016116b5565b925050608061181688828901611728565b9150509295509295909350565b5f67ffffffffffffffff82111561183d5761183c611464565b5b61184682611454565b9050602081019050919050565b5f61186561186084611823565b6114c2565b90508281526020810184848401111561188157611880611450565b5b61188c84828561150c565b509392505050565b5f82601f8301126118a8576118a761144c565b5b81356118b8848260208601611853565b91505092915050565b5f80604083850312156118d7576118d6611444565b5b5f6118e485828601611728565b925050602083013567ffffffffffffffff81111561190557611904611448565b5b61191185828601611894565b9150509250929050565b61192481611701565b82525050565b5f60208201905061193d5f83018461191b565b92915050565b5f81519050919050565b5f82825260208201905092915050565b5f5b8381101561197a57808201518184015260208101905061195f565b5f8484015250505050565b5f61198f82611943565b611999818561194d565b93506119a981856020860161195d565b6119b281611454565b840191505092915050565b5f6020820190508181035f8301526119d58184611985565b905092915050565b5f602082840312156119f2576119f1611444565b5b5f6119ff84828501611728565b91505092915050565b611a11816115cf565b8114611a1b575f80fd5b50565b5f81359050611a2c81611a08565b92915050565b5f60208284031215611a4757611a46611444565b5b5f611a5484828501611a1e565b91505092915050565b5f8115159050919050565b611a7181611a5d565b82525050565b5f604082019050611a8a5f83018561191b565b611a976020830184611a68565b9392505050565b5f81519050919050565b5f82825260208201905092915050565b5f819050602082019050919050565b5f82825260208201905092915050565b5f611ae182611943565b611aeb8185611ac7565b9350611afb81856020860161195d565b611b0481611454565b840191505092915050565b5f611b1a8383611ad7565b905092915050565b5f602082019050919050565b5f611b3882611a9e565b611b428185611aa8565b935083602082028501611b5485611ab8565b805f5b85811015611b8f5784840389528151611b708582611b0f565b9450611b7b83611b22565b925060208a01995050600181019050611b57565b50829750879550505050505092915050565b611baa81611701565b82525050565b611bb981611a5d565b82525050565b5f60a083015f8301518482035f860152611bd98282611b2e565b91505060208301518482036020860152611bf38282611b2e565b91505060408301518482036040860152611c0d8282611b2e565b9150506060830151611c226060860182611ba1565b506080830151611c356080860182611bb0565b508091505092915050565b5f6020820190508181035f830152611c588184611bbf565b905092915050565b5f81905092915050565b5f611c7482611943565b611c7e8185611c60565b9350611c8e81856020860161195d565b80840191505092915050565b5f611ca58284611c6a565b915081905092915050565b5f819050919050565b7f4e487b71000000000000000000000000000000000000000000000000000000005f52601160045260245ffd5b5f611cf082611cb0565b9150611cfb83611cb0565b9250828201905080821115611d1357611d12611cb9565b5b92915050565b7f536368656d61466f7267653a20496e76616c69642074656d706c6174652073745f8201527f7275637475726500000000000000000000000000000000000000000000000000602082015250565b5f611d7360278361194d565b9150611d7e82611d19565b604082019050919050565b5f6020820190508181035f830152611da081611d67565b9050919050565b5f819050919050565b5f67ffffffffffffffff82169050919050565b5f819050919050565b5f611de6611de1611ddc84611da7565b611dc3565b611db0565b9050919050565b611df681611dcc565b82525050565b5f602082019050611e0f5f830184611ded565b92915050565b7f4e487b71000000000000000000000000000000000000000000000000000000005f52602260045260245ffd5b5f6002820490506001821680611e5957607f821691505b602082108103611e6c57611e6b611e15565b5b50919050565b5f81519050611e8081611a08565b92915050565b5f60208284031215611e9b57611e9a611444565b5b5f611ea884828501611e72565b91505092915050565b5f81519050919050565b5f81905092915050565b5f611ecf82611eb1565b611ed98185611ebb565b9350611ee981856020860161195d565b80840191505092915050565b5f611f008284611ec5565b915081905092915050565b5f819050815f5260205f209050919050565b5f6020601f8301049050919050565b5f82821b905092915050565b5f60088302611f677fffffffffffffffffffffffffffffffffffffffffffffffffffffffffffffffff82611f2c565b611f718683611f2c565b95508019841693508086168417925050509392505050565b5f611fa3611f9e611f9984611cb0565b611dc3565b611cb0565b9050919050565b5f819050919050565b611fbc83611f89565b611fd0611fc882611faa565b848454611f38565b825550505050565b5f90565b611fe4611fd8565b611fef818484611fb3565b505050565b5b81811015612012576120075f82611fdc565b600181019050611ff5565b5050565b601f8211156120575761202881611f0b565b61203184611f1d565b81016020851015612040578190505b61205461204c85611f1d565b830182611ff4565b50505b505050565b5f82821c905092915050565b5f6120775f198460080261205c565b1980831691505092915050565b5f61208f8383612068565b9150826002028217905092915050565b6120a882611943565b67ffffffffffffffff8111156120c1576120c0611464565b5b6120cb8254611e42565b6120d6828285612016565b5f60209050601f831160018114612107575f84156120f5578287015190505b6120ff8582612084565b865550612166565b601f19841661211586611f0b565b5f5b8281101561213c57848901518255600182019150602085019450602081019050612117565b868310156121595784890151612155601f891682612068565b8355505b6001600288020188555050505b50505050505056fea2646970667358221220b8fc1d16a1be6ac6a58dbacaaccf67ee8c950c35cc893608dc10aa58731d9cd764736f6c63430008180033","linkReferences":{}},"methodIdentifiers":{"UPGRADE_INTERFACE_VERSION()":"ad3cb1cc","getSchema(string)":"f1a03f1b","getSchemaId(string)":"2cd9281a","initialize(address)":"c4d66de8","owner()":"8da5cb5b","proxiableUUID()":"52d1902d","registerSchema(string,string[],string[],string[],address)":"44dab4b6","renounceOwnership()":"715018a6","schemas(bytes32)":"ca2adef6","transferOwnership(address)":"f2fde38b","upgradeToAndCall(address,bytes)":"4f1ef286"},"id":50}