{"abi":[{"type":"constructor","inputs":[],"stateMutability":"nonpayable"},{"type":"function","name":"UPGRADE_INTERFACE_VERSION","inputs":[],"outputs":[{"name":"","type":"string","internalType":"string"}],"stateMutability":"view"},{"type":"function","name":"getSchema","inputs":[{"name":"_name","type":"string","internalType":"string"}],"outputs":[{"name":"","type":"tuple","internalType":"struct SchemaForge.ApiSchema","components":[{"name":"urlTemplate","type":"string","internalType":"string"},{"name":"requiredKeys","type":"string[]","internalType":"string[]"},{"name":"responseParser","type":"address","internalType":"address"},{"name":"isDefined","type":"bool","internalType":"bool"}]}],"stateMutability":"view"},{"type":"function","name":"getSchemaId","inputs":[{"name":"_name","type":"string","internalType":"string"}],"outputs":[{"name":"","type":"bytes32","internalType":"bytes32"}],"stateMutability":"pure"},{"type":"function","name":"initialize","inputs":[{"name":"initialOwner","type":"address","internalType":"address"}],"outputs":[],"stateMutability":"nonpayable"},{"type":"function","name":"owner","inputs":[],"outputs":[{"name":"","type":"address","internalType":"address"}],"stateMutability":"view"},{"type":"function","name":"proxiableUUID","inputs":[],"outputs":[{"name":"","type":"bytes32","internalType":"bytes32"}],"stateMutability":"view"},{"type":"function","name":"registerSchema","inputs":[{"name":"_name","type":"string","internalType":"string"},{"name":"_urlTemplate","type":"string","internalType":"string"},{"name":"_requiredKeys","type":"string[]","internalType":"string[]"},{"name":"_responseParser","type":"address","internalType":"address"}],"outputs":[],"stateMutability":"nonpayable"},{"type":"function","name":"renounceOwnership","inputs":[],"outputs":[],"stateMutability":"nonpayable"},{"type":"function","name":"schemas","inputs":[{"name":"","type":"bytes32","internalType":"bytes32"}],"outputs":[{"name":"urlTemplate","type":"string","internalType":"string"},{"name":"responseParser","type":"address","internalType":"address"},{"name":"isDefined","type":"bool","internalType":"bool"}],"stateMutability":"view"},{"type":"function","name":"transferOwnership","inputs":[{"name":"newOwner","type":"address","internalType":"address"}],"outputs":[],"stateMutability":"nonpayable"},{"type":"function","name":"upgradeToAndCall","inputs":[{"name":"newImplementation","type":"address","internalType":"address"},{"name":"data","type":"bytes","internalType":"bytes"}],"outputs":[],"stateMutability":"payable"},{"type":"event","name":"Initialized","inputs":[{"name":"version","type":"uint64","indexed":false,"internalType":"uint64"}],"anonymous":false},{"type":"event","name":"OwnershipTransferred","inputs":[{"name":"previousOwner","type":"address","indexed":true,"internalType":"address"},{"name":"newOwner","type":"address","indexed":true,"internalType":"address"}],"anonymous":false},{"type":"event","name":"SchemaRegistered","inputs":[{"name":"schemaId","type":"bytes32","indexed":true,"internalType":"bytes32"},{"name":"name","type":"string","indexed":false,"internalType":"string"}],"anonymous":false},{"type":"event","name":"Upgraded","inputs":[{"name":"implementation","type":"address","indexed":true,"internalType":"address"}],"anonymous":false},{"type":"error","name":"AddressEmptyCode","inputs":[{"name":"target","type":"address","internalType":"address"}]},{"type":"error","name":"ERC1967InvalidImplementation","inputs":[{"name":"implementation","type":"address","internalType":"address"}]},{"type":"error","name":"ERC1967NonPayable","inputs":[]},{"type":"error","name":"FailedCall","inputs":[]},{"type":"error","name":"InvalidInitialization","inputs":[]},{"type":"error","name":"NotInitializing","inputs":[]},{"type":"error","name":"OwnableInvalidOwner","inputs":[{"name":"owner","type":"address","internalType":"address"}]},{"type":"error","name":"OwnableUnauthorizedAccount","inputs":[{"name":"account","type":"address","internalType":"address"}]},{"type":"error","name":"UUPSUnauthorizedCallContext","inputs":[]},{"type":"error","name":"UUPSUnsupportedProxiableUUID","inputs":[{"name":"slot","type":"bytes32","internalType":"bytes32"}]}],"bytecode":{"object":"0x60a06040523073ffffffffffffffffffffffffffffffffffffffff1660809073ffffffffffffffffffffffffffffffffffffffff1681525034801562000043575f80fd5b50620000546200005a60201b60201c565b620001e1565b5f6200006b6200015e60201b60201c565b9050805f0160089054906101000a900460ff1615620000b6576040517ff92ee8a900000000000000000000000000000000000000000000000000000000815260040160405180910390fd5b67ffffffffffffffff8016815f015f9054906101000a900467ffffffffffffffff1667ffffffffffffffff16146200015b5767ffffffffffffffff815f015f6101000a81548167ffffffffffffffff021916908367ffffffffffffffff1602179055507fc7f505b2f371ae2175ee4913f4499e1f2633a7b5936321eed1cdaeb6115181d267ffffffffffffffff604051620001529190620001c6565b60405180910390a15b50565b5f80620001706200017960201b60201c565b90508091505090565b5f7ff0c57e16840df040f15088dc2f81fe391c3923bec73e23a9662efc9c229c6a005f1b905090565b5f67ffffffffffffffff82169050919050565b620001c081620001a2565b82525050565b5f602082019050620001db5f830184620001b5565b92915050565b608051611f74620002085f395f8181610a2b01528181610a800152610c3a0152611f745ff3fe60806040526004361061009b575f3560e01c80638da5cb5b116100635780638da5cb5b1461015f578063ad3cb1cc14610189578063c4d66de8146101b3578063ca2adef6146101db578063f1a03f1b14610219578063f2fde38b146102555761009b565b80632cd9281a1461009f5780633ddfeb26146100db5780634f1ef2861461010357806352d1902d1461011f578063715018a614610149575b5f80fd5b3480156100aa575f80fd5b506100c560048036038101906100c0919061147a565b61027d565b6040516100d291906114d9565b60405180910390f35b3480156100e6575f80fd5b5061010160048036038101906100fc919061162e565b6102ac565b005b61011d60048036038101906101189190611784565b6103e3565b005b34801561012a575f80fd5b50610133610402565b60405161014091906114d9565b60405180910390f35b348015610154575f80fd5b5061015d610433565b005b34801561016a575f80fd5b50610173610446565b60405161018091906117ed565b60405180910390f35b348015610194575f80fd5b5061019d61047b565b6040516101aa9190611880565b60405180910390f35b3480156101be575f80fd5b506101d960048036038101906101d491906118a0565b6104b4565b005b3480156101e6575f80fd5b5061020160048036038101906101fc91906118f5565b61063d565b6040516102109392919061193a565b60405180910390f35b348015610224575f80fd5b5061023f600480360381019061023a919061147a565b610714565b60405161024c9190611afe565b60405180910390f35b348015610260575f80fd5b5061027b600480360381019061027691906118a0565b61091e565b005b5f8160405160200161028f9190611b58565b604051602081830303815290604052805190602001209050919050565b6102b46109a2565b5f6102be8561027d565b905060405180608001604052808581526020018481526020018373ffffffffffffffffffffffffffffffffffffffff168152602001600115158152505f808381526020019081526020015f205f820151815f01908161031d9190611d71565b50602082015181600101908051906020019061033a92919061121d565b506040820151816002015f6101000a81548173ffffffffffffffffffffffffffffffffffffffff021916908373ffffffffffffffffffffffffffffffffffffffff16021790555060608201518160020160146101000a81548160ff021916908315150217905550905050807f738234319857c9e7589a20c92e7329e4f47277fb47c3423c4fedad4b27b9dd95866040516103d49190611880565b60405180910390a25050505050565b6103eb610a29565b6103f482610b0f565b6103fe8282610b1a565b5050565b5f61040b610c38565b7f360894a13ba1a3210667c828492db98dca3e2076cc3735a920a3ca505d382bbc5f1b905090565b61043b6109a2565b6104445f610cbf565b565b5f80610450610d90565b9050805f015f9054906101000a900473ffffffffffffffffffffffffffffffffffffffff1691505090565b6040518060400160405280600581526020017f352e302e3000000000000000000000000000000000000000000000000000000081525081565b5f6104bd610db7565b90505f815f0160089054906101000a900460ff161590505f825f015f9054906101000a900467ffffffffffffffff1690505f808267ffffffffffffffff161480156105055750825b90505f60018367ffffffffffffffff1614801561053857505f3073ffffffffffffffffffffffffffffffffffffffff163b145b905081158015610546575080155b1561057d576040517ff92ee8a900000000000000000000000000000000000000000000000000000000815260040160405180910390fd5b6001855f015f6101000a81548167ffffffffffffffff021916908367ffffffffffffffff16021790555083156105ca576001855f0160086101000a81548160ff0219169083151502179055505b6105d386610dca565b6105db610dde565b8315610635575f855f0160086101000a81548160ff0219169083151502179055507fc7f505b2f371ae2175ee4913f4499e1f2633a7b5936321eed1cdaeb6115181d2600160405161062c9190611e8c565b60405180910390a15b505050505050565b5f602052805f5260405f205f91509050805f01805461065b90611b9b565b80601f016020809104026020016040519081016040528092919081815260200182805461068790611b9b565b80156106d25780601f106106a9576101008083540402835291602001916106d2565b820191905f5260205f20905b8154815290600101906020018083116106b557829003601f168201915b505050505090806002015f9054906101000a900473ffffffffffffffffffffffffffffffffffffffff16908060020160149054906101000a900460ff16905083565b61071c611274565b5f6107268361027d565b90505f808281526020019081526020015f206040518060800160405290815f8201805461075290611b9b565b80601f016020809104026020016040519081016040528092919081815260200182805461077e90611b9b565b80156107c95780601f106107a0576101008083540402835291602001916107c9565b820191905f5260205f20905b8154815290600101906020018083116107ac57829003601f168201915b5050505050815260200160018201805480602002602001604051908101604052809291908181526020015f905b8282101561089e578382905f5260205f2001805461081390611b9b565b80601f016020809104026020016040519081016040528092919081815260200182805461083f90611b9b565b801561088a5780601f106108615761010080835404028352916020019161088a565b820191905f5260205f20905b81548152906001019060200180831161086d57829003601f168201915b5050505050815260200190600101906107f6565b505050508152602001600282015f9054906101000a900473ffffffffffffffffffffffffffffffffffffffff1673ffffffffffffffffffffffffffffffffffffffff1673ffffffffffffffffffffffffffffffffffffffff1681526020016002820160149054906101000a900460ff161515151581525050915050919050565b6109266109a2565b5f73ffffffffffffffffffffffffffffffffffffffff168173ffffffffffffffffffffffffffffffffffffffff1603610996575f6040517f1e4fbdf700000000000000000000000000000000000000000000000000000000815260040161098d91906117ed565b60405180910390fd5b61099f81610cbf565b50565b6109aa610de8565b73ffffffffffffffffffffffffffffffffffffffff166109c8610446565b73ffffffffffffffffffffffffffffffffffffffff1614610a27576109eb610de8565b6040517f118cdaa7000000000000000000000000000000000000000000000000000000008152600401610a1e91906117ed565b60405180910390fd5b565b7f000000000000000000000000000000000000000000000000000000000000000073ffffffffffffffffffffffffffffffffffffffff163073ffffffffffffffffffffffffffffffffffffffff161480610ad657507f000000000000000000000000000000000000000000000000000000000000000073ffffffffffffffffffffffffffffffffffffffff16610abd610def565b73ffffffffffffffffffffffffffffffffffffffff1614155b15610b0d576040517fe07c8dba00000000000000000000000000000000000000000000000000000000815260040160405180910390fd5b565b610b176109a2565b50565b8173ffffffffffffffffffffffffffffffffffffffff166352d1902d6040518163ffffffff1660e01b8152600401602060405180830381865afa925050508015610b8257506040513d601f19601f82011682018060405250810190610b7f9190611eb9565b60015b610bc357816040517f4c9c8ce3000000000000000000000000000000000000000000000000000000008152600401610bba91906117ed565b60405180910390fd5b7f360894a13ba1a3210667c828492db98dca3e2076cc3735a920a3ca505d382bbc5f1b8114610c2957806040517faa1d49a4000000000000000000000000000000000000000000000000000000008152600401610c2091906114d9565b60405180910390fd5b610c338383610e42565b505050565b7f000000000000000000000000000000000000000000000000000000000000000073ffffffffffffffffffffffffffffffffffffffff163073ffffffffffffffffffffffffffffffffffffffff1614610cbd576040517fe07c8dba00000000000000000000000000000000000000000000000000000000815260040160405180910390fd5b565b5f610cc8610d90565b90505f815f015f9054906101000a900473ffffffffffffffffffffffffffffffffffffffff16905082825f015f6101000a81548173ffffffffffffffffffffffffffffffffffffffff021916908373ffffffffffffffffffffffffffffffffffffffff1602179055508273ffffffffffffffffffffffffffffffffffffffff168173ffffffffffffffffffffffffffffffffffffffff167f8be0079c531659141344cd1fd0a4f28419497f9722a3daafe3b4186f6b6457e060405160405180910390a3505050565b5f7f9016d09d72d40fdae2fd8ceac6b6234c7706214fd39c1cd1e609a0528c199300905090565b5f80610dc1610eb4565b90508091505090565b610dd2610edd565b610ddb81610f1d565b50565b610de6610edd565b565b5f33905090565b5f610e1b7f360894a13ba1a3210667c828492db98dca3e2076cc3735a920a3ca505d382bbc5f1b610fa1565b5f015f9054906101000a900473ffffffffffffffffffffffffffffffffffffffff16905090565b610e4b82610faa565b8173ffffffffffffffffffffffffffffffffffffffff167fbc7cd75a20ee27fd9adebab32041f755214dbc6bffa90cc0225b39da2e5c2d3b60405160405180910390a25f81511115610ea757610ea18282611073565b50610eb0565b610eaf6110f3565b5b5050565b5f7ff0c57e16840df040f15088dc2f81fe391c3923bec73e23a9662efc9c229c6a005f1b905090565b610ee561112f565b610f1b576040517fd7e6bcf800000000000000000000000000000000000000000000000000000000815260040160405180910390fd5b565b610f25610edd565b5f73ffffffffffffffffffffffffffffffffffffffff168173ffffffffffffffffffffffffffffffffffffffff1603610f95575f6040517f1e4fbdf7000000000000000000000000000000000000000000000000000000008152600401610f8c91906117ed565b60405180910390fd5b610f9e81610cbf565b50565b5f819050919050565b5f8173ffffffffffffffffffffffffffffffffffffffff163b0361100557806040517f4c9c8ce3000000000000000000000000000000000000000000000000000000008152600401610ffc91906117ed565b60405180910390fd5b806110317f360894a13ba1a3210667c828492db98dca3e2076cc3735a920a3ca505d382bbc5f1b610fa1565b5f015f6101000a81548173ffffffffffffffffffffffffffffffffffffffff021916908373ffffffffffffffffffffffffffffffffffffffff16021790555050565b60605f808473ffffffffffffffffffffffffffffffffffffffff168460405161109c9190611f28565b5f60405180830381855af49150503d805f81146110d4576040519150601f19603f3d011682016040523d82523d5f602084013e6110d9565b606091505b50915091506110e985838361114d565b9250505092915050565b5f34111561112d576040517fb398979f00000000000000000000000000000000000000000000000000000000815260040160405180910390fd5b565b5f611138610db7565b5f0160089054906101000a900460ff16905090565b6060826111625761115d826111da565b6111d2565b5f825114801561118857505f8473ffffffffffffffffffffffffffffffffffffffff163b145b156111ca57836040517f9996b3150000000000000000000000000000000000000000000000000000000081526004016111c191906117ed565b60405180910390fd5b8190506111d3565b5b9392505050565b5f815111156111eb57805160208201fd5b6040517fd6bda27500000000000000000000000000000000000000000000000000000000815260040160405180910390fd5b828054828255905f5260205f20908101928215611263579160200282015b828111156112625782518290816112529190611d71565b509160200191906001019061123b565b5b50905061127091906112b2565b5090565b604051806080016040528060608152602001606081526020015f73ffffffffffffffffffffffffffffffffffffffff1681526020015f151581525090565b5b808211156112d1575f81816112c891906112d5565b506001016112b3565b5090565b5080546112e190611b9b565b5f825580601f106112f2575061130f565b601f0160209004905f5260205f209081019061130e9190611312565b5b50565b5b80821115611329575f815f905550600101611313565b5090565b5f604051905090565b5f80fd5b5f80fd5b5f80fd5b5f80fd5b5f601f19601f8301169050919050565b7f4e487b71000000000000000000000000000000000000000000000000000000005f52604160045260245ffd5b61138c82611346565b810181811067ffffffffffffffff821117156113ab576113aa611356565b5b80604052505050565b5f6113bd61132d565b90506113c98282611383565b919050565b5f67ffffffffffffffff8211156113e8576113e7611356565b5b6113f182611346565b9050602081019050919050565b828183375f83830152505050565b5f61141e611419846113ce565b6113b4565b90508281526020810184848401111561143a57611439611342565b5b6114458482856113fe565b509392505050565b5f82601f8301126114615761146061133e565b5b813561147184826020860161140c565b91505092915050565b5f6020828403121561148f5761148e611336565b5b5f82013567ffffffffffffffff8111156114ac576114ab61133a565b5b6114b88482850161144d565b91505092915050565b5f819050919050565b6114d3816114c1565b82525050565b5f6020820190506114ec5f8301846114ca565b92915050565b5f67ffffffffffffffff82111561150c5761150b611356565b5b602082029050602081019050919050565b5f80fd5b5f61153361152e846114f2565b6113b4565b905080838252602082019050602084028301858111156115565761155561151d565b5b835b8181101561159d57803567ffffffffffffffff81111561157b5761157a61133e565b5b808601611588898261144d565b85526020850194505050602081019050611558565b5050509392505050565b5f82601f8301126115bb576115ba61133e565b5b81356115cb848260208601611521565b91505092915050565b5f73ffffffffffffffffffffffffffffffffffffffff82169050919050565b5f6115fd826115d4565b9050919050565b61160d816115f3565b8114611617575f80fd5b50565b5f8135905061162881611604565b92915050565b5f805f806080858703121561164657611645611336565b5b5f85013567ffffffffffffffff8111156116635761166261133a565b5b61166f8782880161144d565b945050602085013567ffffffffffffffff8111156116905761168f61133a565b5b61169c8782880161144d565b935050604085013567ffffffffffffffff8111156116bd576116bc61133a565b5b6116c9878288016115a7565b92505060606116da8782880161161a565b91505092959194509250565b5f67ffffffffffffffff821115611700576116ff611356565b5b61170982611346565b9050602081019050919050565b5f611728611723846116e6565b6113b4565b90508281526020810184848401111561174457611743611342565b5b61174f8482856113fe565b509392505050565b5f82601f83011261176b5761176a61133e565b5b813561177b848260208601611716565b91505092915050565b5f806040838503121561179a57611799611336565b5b5f6117a78582860161161a565b925050602083013567ffffffffffffffff8111156117c8576117c761133a565b5b6117d485828601611757565b9150509250929050565b6117e7816115f3565b82525050565b5f6020820190506118005f8301846117de565b92915050565b5f81519050919050565b5f82825260208201905092915050565b5f5b8381101561183d578082015181840152602081019050611822565b5f8484015250505050565b5f61185282611806565b61185c8185611810565b935061186c818560208601611820565b61187581611346565b840191505092915050565b5f6020820190508181035f8301526118988184611848565b905092915050565b5f602082840312156118b5576118b4611336565b5b5f6118c28482850161161a565b91505092915050565b6118d4816114c1565b81146118de575f80fd5b50565b5f813590506118ef816118cb565b92915050565b5f6020828403121561190a57611909611336565b5b5f611917848285016118e1565b91505092915050565b5f8115159050919050565b61193481611920565b82525050565b5f6060820190508181035f8301526119528186611848565b905061196160208301856117de565b61196e604083018461192b565b949350505050565b5f82825260208201905092915050565b5f61199082611806565b61199a8185611976565b93506119aa818560208601611820565b6119b381611346565b840191505092915050565b5f81519050919050565b5f82825260208201905092915050565b5f819050602082019050919050565b5f6119f28383611986565b905092915050565b5f602082019050919050565b5f611a10826119be565b611a1a81856119c8565b935083602082028501611a2c856119d8565b805f5b85811015611a675784840389528151611a4885826119e7565b9450611a53836119fa565b925060208a01995050600181019050611a2f565b50829750879550505050505092915050565b611a82816115f3565b82525050565b611a9181611920565b82525050565b5f608083015f8301518482035f860152611ab18282611986565b91505060208301518482036020860152611acb8282611a06565b9150506040830151611ae06040860182611a79565b506060830151611af36060860182611a88565b508091505092915050565b5f6020820190508181035f830152611b168184611a97565b905092915050565b5f81905092915050565b5f611b3282611806565b611b3c8185611b1e565b9350611b4c818560208601611820565b80840191505092915050565b5f611b638284611b28565b915081905092915050565b7f4e487b71000000000000000000000000000000000000000000000000000000005f52602260045260245ffd5b5f6002820490506001821680611bb257607f821691505b602082108103611bc557611bc4611b6e565b5b50919050565b5f819050815f5260205f209050919050565b5f6020601f8301049050919050565b5f82821b905092915050565b5f60088302611c277fffffffffffffffffffffffffffffffffffffffffffffffffffffffffffffffff82611bec565b611c318683611bec565b95508019841693508086168417925050509392505050565b5f819050919050565b5f819050919050565b5f611c75611c70611c6b84611c49565b611c52565b611c49565b9050919050565b5f819050919050565b611c8e83611c5b565b611ca2611c9a82611c7c565b848454611bf8565b825550505050565b5f90565b611cb6611caa565b611cc1818484611c85565b505050565b5b81811015611ce457611cd95f82611cae565b600181019050611cc7565b5050565b601f821115611d2957611cfa81611bcb565b611d0384611bdd565b81016020851015611d12578190505b611d26611d1e85611bdd565b830182611cc6565b50505b505050565b5f82821c905092915050565b5f611d495f1984600802611d2e565b1980831691505092915050565b5f611d618383611d3a565b9150826002028217905092915050565b611d7a82611806565b67ffffffffffffffff811115611d9357611d92611356565b5b611d9d8254611b9b565b611da8828285611ce8565b5f60209050601f831160018114611dd9575f8415611dc7578287015190505b611dd18582611d56565b865550611e38565b601f198416611de786611bcb565b5f5b82811015611e0e57848901518255600182019150602085019450602081019050611de9565b86831015611e2b5784890151611e27601f891682611d3a565b8355505b6001600288020188555050505b505050505050565b5f819050919050565b5f67ffffffffffffffff82169050919050565b5f611e76611e71611e6c84611e40565b611c52565b611e49565b9050919050565b611e8681611e5c565b82525050565b5f602082019050611e9f5f830184611e7d565b92915050565b5f81519050611eb3816118cb565b92915050565b5f60208284031215611ece57611ecd611336565b5b5f611edb84828501611ea5565b91505092915050565b5f81519050919050565b5f81905092915050565b5f611f0282611ee4565b611f0c8185611eee565b9350611f1c818560208601611820565b80840191505092915050565b5f611f338284611ef8565b91508190509291505056fea26469706673582212207aa8edf5699018b8dc9e61ea1dabd089661475a73a153b49f4db2e752128bf7464736f6c63430008180033","linkReferences":{}},"methodIdentifiers":{"UPGRADE_INTERFACE_VERSION()":"ad3cb1cc","getSchema(string)":"f1a03f1b","getSchemaId(string)":"2cd9281a","initialize(address)":"c4d66de8","owner()":"8da5cb5b","proxiableUUID()":"52d1902d","registerSchema(string,string,string[],address)":"3ddfeb26","renounceOwnership()":"715018a6","schemas(bytes32)":"ca2adef6","transferOwnership(address)":"f2fde38b","upgradeToAndCall(address,bytes)":"4f1ef286"},"id":51}