{"abi":[{"type":"constructor","inputs":[],"stateMutability":"nonpayable"},{"type":"function","name":"getSchema","inputs":[{"name":"_name","type":"string","internalType":"string"}],"outputs":[{"name":"","type":"tuple","internalType":"struct SchemaForge.ApiSchema","components":[{"name":"urlTemplate","type":"string","internalType":"string"},{"name":"requiredKeys","type":"string[]","internalType":"string[]"},{"name":"responseParser","type":"address","internalType":"address"},{"name":"isDefined","type":"bool","internalType":"bool"}]}],"stateMutability":"view"},{"type":"function","name":"getSchemaId","inputs":[{"name":"_name","type":"string","internalType":"string"}],"outputs":[{"name":"","type":"bytes32","internalType":"bytes32"}],"stateMutability":"pure"},{"type":"function","name":"owner","inputs":[],"outputs":[{"name":"","type":"address","internalType":"address"}],"stateMutability":"view"},{"type":"function","name":"registerSchema","inputs":[{"name":"_name","type":"string","internalType":"string"},{"name":"_urlTemplate","type":"string","internalType":"string"},{"name":"_requiredKeys","type":"string[]","internalType":"string[]"},{"name":"_responseParser","type":"address","internalType":"address"}],"outputs":[],"stateMutability":"nonpayable"},{"type":"function","name":"renounceOwnership","inputs":[],"outputs":[],"stateMutability":"nonpayable"},{"type":"function","name":"schemas","inputs":[{"name":"","type":"bytes32","internalType":"bytes32"}],"outputs":[{"name":"urlTemplate","type":"string","internalType":"string"},{"name":"responseParser","type":"address","internalType":"address"},{"name":"isDefined","type":"bool","internalType":"bool"}],"stateMutability":"view"},{"type":"function","name":"transferOwnership","inputs":[{"name":"newOwner","type":"address","internalType":"address"}],"outputs":[],"stateMutability":"nonpayable"},{"type":"event","name":"OwnershipTransferred","inputs":[{"name":"previousOwner","type":"address","indexed":true,"internalType":"address"},{"name":"newOwner","type":"address","indexed":true,"internalType":"address"}],"anonymous":false},{"type":"event","name":"SchemaRegistered","inputs":[{"name":"schemaId","type":"bytes32","indexed":true,"internalType":"bytes32"},{"name":"name","type":"string","indexed":false,"internalType":"string"}],"anonymous":false},{"type":"error","name":"OwnableInvalidOwner","inputs":[{"name":"owner","type":"address","internalType":"address"}]},{"type":"error","name":"OwnableUnauthorizedAccount","inputs":[{"name":"account","type":"address","internalType":"address"}]}],"bytecode":{"object":"0x608060405234801562000010575f80fd5b50335f73ffffffffffffffffffffffffffffffffffffffff168173ffffffffffffffffffffffffffffffffffffffff160362000085575f6040517f1e4fbdf70000000000000000000000000000000000000000000000000000000081526004016200007c9190620001a1565b60405180910390fd5b62000096816200009d60201b60201c565b50620001bc565b5f805f9054906101000a900473ffffffffffffffffffffffffffffffffffffffff169050815f806101000a81548173ffffffffffffffffffffffffffffffffffffffff021916908373ffffffffffffffffffffffffffffffffffffffff1602179055508173ffffffffffffffffffffffffffffffffffffffff168173ffffffffffffffffffffffffffffffffffffffff167f8be0079c531659141344cd1fd0a4f28419497f9722a3daafe3b4186f6b6457e060405160405180910390a35050565b5f73ffffffffffffffffffffffffffffffffffffffff82169050919050565b5f62000189826200015e565b9050919050565b6200019b816200017d565b82525050565b5f602082019050620001b65f83018462000190565b92915050565b61132980620001ca5f395ff3fe608060405234801561000f575f80fd5b506004361061007b575f3560e01c80638da5cb5b116100595780638da5cb5b146100d5578063ca2adef6146100f3578063f1a03f1b14610125578063f2fde38b146101555761007b565b80632cd9281a1461007f5780633ddfeb26146100af578063715018a6146100cb575b5f80fd5b61009960048036038101906100949190610a25565b610171565b6040516100a69190610a84565b60405180910390f35b6100c960048036038101906100c49190610bd9565b6101a0565b005b6100d36102d8565b005b6100dd6102eb565b6040516100ea9190610ca0565b60405180910390f35b61010d60048036038101906101089190610ce3565b610312565b60405161011c93929190610da2565b60405180910390f35b61013f600480360381019061013a9190610a25565b6103ea565b60405161014c9190610f66565b60405180910390f35b61016f600480360381019061016a9190610f86565b6105f5565b005b5f816040516020016101839190610feb565b604051602081830303815290604052805190602001209050919050565b6101a8610679565b5f6101b285610171565b905060405180608001604052808581526020018481526020018373ffffffffffffffffffffffffffffffffffffffff1681526020016001151581525060015f8381526020019081526020015f205f820151815f0190816102129190611204565b50602082015181600101908051906020019061022f9291906107c8565b506040820151816002015f6101000a81548173ffffffffffffffffffffffffffffffffffffffff021916908373ffffffffffffffffffffffffffffffffffffffff16021790555060608201518160020160146101000a81548160ff021916908315150217905550905050807f738234319857c9e7589a20c92e7329e4f47277fb47c3423c4fedad4b27b9dd95866040516102c991906112d3565b60405180910390a25050505050565b6102e0610679565b6102e95f610700565b565b5f805f9054906101000a900473ffffffffffffffffffffffffffffffffffffffff16905090565b6001602052805f5260405f205f91509050805f0180546103319061102e565b80601f016020809104026020016040519081016040528092919081815260200182805461035d9061102e565b80156103a85780601f1061037f576101008083540402835291602001916103a8565b820191905f5260205f20905b81548152906001019060200180831161038b57829003601f168201915b505050505090806002015f9054906101000a900473ffffffffffffffffffffffffffffffffffffffff16908060020160149054906101000a900460ff16905083565b6103f261081f565b5f6103fc83610171565b905060015f8281526020019081526020015f206040518060800160405290815f820180546104299061102e565b80601f01602080910402602001604051908101604052809291908181526020018280546104559061102e565b80156104a05780601f10610477576101008083540402835291602001916104a0565b820191905f5260205f20905b81548152906001019060200180831161048357829003601f168201915b5050505050815260200160018201805480602002602001604051908101604052809291908181526020015f905b82821015610575578382905f5260205f200180546104ea9061102e565b80601f01602080910402602001604051908101604052809291908181526020018280546105169061102e565b80156105615780601f1061053857610100808354040283529160200191610561565b820191905f5260205f20905b81548152906001019060200180831161054457829003601f168201915b5050505050815260200190600101906104cd565b505050508152602001600282015f9054906101000a900473ffffffffffffffffffffffffffffffffffffffff1673ffffffffffffffffffffffffffffffffffffffff1673ffffffffffffffffffffffffffffffffffffffff1681526020016002820160149054906101000a900460ff161515151581525050915050919050565b6105fd610679565b5f73ffffffffffffffffffffffffffffffffffffffff168173ffffffffffffffffffffffffffffffffffffffff160361066d575f6040517f1e4fbdf70000000000000000000000000000000000000000000000000000000081526004016106649190610ca0565b60405180910390fd5b61067681610700565b50565b6106816107c1565b73ffffffffffffffffffffffffffffffffffffffff1661069f6102eb565b73ffffffffffffffffffffffffffffffffffffffff16146106fe576106c26107c1565b6040517f118cdaa70000000000000000000000000000000000000000000000000000000081526004016106f59190610ca0565b60405180910390fd5b565b5f805f9054906101000a900473ffffffffffffffffffffffffffffffffffffffff169050815f806101000a81548173ffffffffffffffffffffffffffffffffffffffff021916908373ffffffffffffffffffffffffffffffffffffffff1602179055508173ffffffffffffffffffffffffffffffffffffffff168173ffffffffffffffffffffffffffffffffffffffff167f8be0079c531659141344cd1fd0a4f28419497f9722a3daafe3b4186f6b6457e060405160405180910390a35050565b5f33905090565b828054828255905f5260205f2090810192821561080e579160200282015b8281111561080d5782518290816107fd9190611204565b50916020019190600101906107e6565b5b50905061081b919061085d565b5090565b604051806080016040528060608152602001606081526020015f73ffffffffffffffffffffffffffffffffffffffff1681526020015f151581525090565b5b8082111561087c575f81816108739190610880565b5060010161085e565b5090565b50805461088c9061102e565b5f825580601f1061089d57506108ba565b601f0160209004905f5260205f20908101906108b991906108bd565b5b50565b5b808211156108d4575f815f9055506001016108be565b5090565b5f604051905090565b5f80fd5b5f80fd5b5f80fd5b5f80fd5b5f601f19601f8301169050919050565b7f4e487b71000000000000000000000000000000000000000000000000000000005f52604160045260245ffd5b610937826108f1565b810181811067ffffffffffffffff8211171561095657610955610901565b5b80604052505050565b5f6109686108d8565b9050610974828261092e565b919050565b5f67ffffffffffffffff82111561099357610992610901565b5b61099c826108f1565b9050602081019050919050565b828183375f83830152505050565b5f6109c96109c484610979565b61095f565b9050828152602081018484840111156109e5576109e46108ed565b5b6109f08482856109a9565b509392505050565b5f82601f830112610a0c57610a0b6108e9565b5b8135610a1c8482602086016109b7565b91505092915050565b5f60208284031215610a3a57610a396108e1565b5b5f82013567ffffffffffffffff811115610a5757610a566108e5565b5b610a63848285016109f8565b91505092915050565b5f819050919050565b610a7e81610a6c565b82525050565b5f602082019050610a975f830184610a75565b92915050565b5f67ffffffffffffffff821115610ab757610ab6610901565b5b602082029050602081019050919050565b5f80fd5b5f610ade610ad984610a9d565b61095f565b90508083825260208201905060208402830185811115610b0157610b00610ac8565b5b835b81811015610b4857803567ffffffffffffffff811115610b2657610b256108e9565b5b808601610b3389826109f8565b85526020850194505050602081019050610b03565b5050509392505050565b5f82601f830112610b6657610b656108e9565b5b8135610b76848260208601610acc565b91505092915050565b5f73ffffffffffffffffffffffffffffffffffffffff82169050919050565b5f610ba882610b7f565b9050919050565b610bb881610b9e565b8114610bc2575f80fd5b50565b5f81359050610bd381610baf565b92915050565b5f805f8060808587031215610bf157610bf06108e1565b5b5f85013567ffffffffffffffff811115610c0e57610c0d6108e5565b5b610c1a878288016109f8565b945050602085013567ffffffffffffffff811115610c3b57610c3a6108e5565b5b610c47878288016109f8565b935050604085013567ffffffffffffffff811115610c6857610c676108e5565b5b610c7487828801610b52565b9250506060610c8587828801610bc5565b91505092959194509250565b610c9a81610b9e565b82525050565b5f602082019050610cb35f830184610c91565b92915050565b610cc281610a6c565b8114610ccc575f80fd5b50565b5f81359050610cdd81610cb9565b92915050565b5f60208284031215610cf857610cf76108e1565b5b5f610d0584828501610ccf565b91505092915050565b5f81519050919050565b5f82825260208201905092915050565b5f5b83811015610d45578082015181840152602081019050610d2a565b5f8484015250505050565b5f610d5a82610d0e565b610d648185610d18565b9350610d74818560208601610d28565b610d7d816108f1565b840191505092915050565b5f8115159050919050565b610d9c81610d88565b82525050565b5f6060820190508181035f830152610dba8186610d50565b9050610dc96020830185610c91565b610dd66040830184610d93565b949350505050565b5f82825260208201905092915050565b5f610df882610d0e565b610e028185610dde565b9350610e12818560208601610d28565b610e1b816108f1565b840191505092915050565b5f81519050919050565b5f82825260208201905092915050565b5f819050602082019050919050565b5f610e5a8383610dee565b905092915050565b5f602082019050919050565b5f610e7882610e26565b610e828185610e30565b935083602082028501610e9485610e40565b805f5b85811015610ecf5784840389528151610eb08582610e4f565b9450610ebb83610e62565b925060208a01995050600181019050610e97565b50829750879550505050505092915050565b610eea81610b9e565b82525050565b610ef981610d88565b82525050565b5f608083015f8301518482035f860152610f198282610dee565b91505060208301518482036020860152610f338282610e6e565b9150506040830151610f486040860182610ee1565b506060830151610f5b6060860182610ef0565b508091505092915050565b5f6020820190508181035f830152610f7e8184610eff565b905092915050565b5f60208284031215610f9b57610f9a6108e1565b5b5f610fa884828501610bc5565b91505092915050565b5f81905092915050565b5f610fc582610d0e565b610fcf8185610fb1565b9350610fdf818560208601610d28565b80840191505092915050565b5f610ff68284610fbb565b915081905092915050565b7f4e487b71000000000000000000000000000000000000000000000000000000005f52602260045260245ffd5b5f600282049050600182168061104557607f821691505b60208210810361105857611057611001565b5b50919050565b5f819050815f5260205f209050919050565b5f6020601f8301049050919050565b5f82821b905092915050565b5f600883026110ba7fffffffffffffffffffffffffffffffffffffffffffffffffffffffffffffffff8261107f565b6110c4868361107f565b95508019841693508086168417925050509392505050565b5f819050919050565b5f819050919050565b5f6111086111036110fe846110dc565b6110e5565b6110dc565b9050919050565b5f819050919050565b611121836110ee565b61113561112d8261110f565b84845461108b565b825550505050565b5f90565b61114961113d565b611154818484611118565b505050565b5b818110156111775761116c5f82611141565b60018101905061115a565b5050565b601f8211156111bc5761118d8161105e565b61119684611070565b810160208510156111a5578190505b6111b96111b185611070565b830182611159565b50505b505050565b5f82821c905092915050565b5f6111dc5f19846008026111c1565b1980831691505092915050565b5f6111f483836111cd565b9150826002028217905092915050565b61120d82610d0e565b67ffffffffffffffff81111561122657611225610901565b5b611230825461102e565b61123b82828561117b565b5f60209050601f83116001811461126c575f841561125a578287015190505b61126485826111e9565b8655506112cb565b601f19841661127a8661105e565b5f5b828110156112a15784890151825560018201915060208501945060208101905061127c565b868310156112be57848901516112ba601f8916826111cd565b8355505b6001600288020188555050505b505050505050565b5f6020820190508181035f8301526112eb8184610d50565b90509291505056fea2646970667358221220b484abe3763430b8ecb5d4275fffe9db9f398bb19bd4ae46d433812b6cdc266e64736f6c63430008180033","linkReferences":{}},"methodIdentifiers":{"getSchema(string)":"f1a03f1b","getSchemaId(string)":"2cd9281a","owner()":"8da5cb5b","registerSchema(string,string,string[],address)":"3ddfeb26","renounceOwnership()":"715018a6","schemas(bytes32)":"ca2adef6","transferOwnership(address)":"f2fde38b"},"id":27}