{"abi":[{"type":"constructor","inputs":[],"stateMutability":"nonpayable"},{"type":"function","name":"UPGRADE_INTERFACE_VERSION","inputs":[],"outputs":[{"name":"","type":"string","internalType":"string"}],"stateMutability":"view"},{"type":"function","name":"addApiKey","inputs":[{"name":"_apiKey","type":"string","internalType":"string"}],"outputs":[],"stateMutability":"nonpayable"},{"type":"function","name":"checkRateLimit","inputs":[{"name":"","type":"address","internalType":"address"}],"outputs":[{"name":"","type":"bool","internalType":"bool"}],"stateMutability":"pure"},{"type":"function","name":"initialize","inputs":[{"name":"initialOwner","type":"address","internalType":"address"}],"outputs":[],"stateMutability":"nonpayable"},{"type":"function","name":"isApiKeyAuthorized","inputs":[{"name":"_apiKey","type":"string","internalType":"string"}],"outputs":[{"name":"","type":"bool","internalType":"bool"}],"stateMutability":"view"},{"type":"function","name":"owner","inputs":[],"outputs":[{"name":"","type":"address","internalType":"address"}],"stateMutability":"view"},{"type":"function","name":"proxiableUUID","inputs":[],"outputs":[{"name":"","type":"bytes32","internalType":"bytes32"}],"stateMutability":"view"},{"type":"function","name":"removeApiKey","inputs":[{"name":"_apiKey","type":"string","internalType":"string"}],"outputs":[],"stateMutability":"nonpayable"},{"type":"function","name":"renounceOwnership","inputs":[],"outputs":[],"stateMutability":"nonpayable"},{"type":"function","name":"transferOwnership","inputs":[{"name":"newOwner","type":"address","internalType":"address"}],"outputs":[],"stateMutability":"nonpayable"},{"type":"function","name":"upgradeToAndCall","inputs":[{"name":"newImplementation","type":"address","internalType":"address"},{"name":"data","type":"bytes","internalType":"bytes"}],"outputs":[],"stateMutability":"payable"},{"type":"event","name":"ApiKeyAuthorizationChanged","inputs":[{"name":"apiKeyHash","type":"bytes32","indexed":true,"internalType":"bytes32"},{"name":"isAuthorized","type":"bool","indexed":false,"internalType":"bool"}],"anonymous":false},{"type":"event","name":"Initialized","inputs":[{"name":"version","type":"uint64","indexed":false,"internalType":"uint64"}],"anonymous":false},{"type":"event","name":"OwnershipTransferred","inputs":[{"name":"previousOwner","type":"address","indexed":true,"internalType":"address"},{"name":"newOwner","type":"address","indexed":true,"internalType":"address"}],"anonymous":false},{"type":"event","name":"Upgraded","inputs":[{"name":"implementation","type":"address","indexed":true,"internalType":"address"}],"anonymous":false},{"type":"error","name":"AddressEmptyCode","inputs":[{"name":"target","type":"address","internalType":"address"}]},{"type":"error","name":"ERC1967InvalidImplementation","inputs":[{"name":"implementation","type":"address","internalType":"address"}]},{"type":"error","name":"ERC1967NonPayable","inputs":[]},{"type":"error","name":"FailedCall","inputs":[]},{"type":"error","name":"InvalidInitialization","inputs":[]},{"type":"error","name":"NotInitializing","inputs":[]},{"type":"error","name":"OwnableInvalidOwner","inputs":[{"name":"owner","type":"address","internalType":"address"}]},{"type":"error","name":"OwnableUnauthorizedAccount","inputs":[{"name":"account","type":"address","internalType":"address"}]},{"type":"error","name":"UUPSUnauthorizedCallContext","inputs":[]},{"type":"error","name":"UUPSUnsupportedProxiableUUID","inputs":[{"name":"slot","type":"bytes32","internalType":"bytes32"}]}],"bytecode":{"object":"0x60a06040523073ffffffffffffffffffffffffffffffffffffffff1660809073ffffffffffffffffffffffffffffffffffffffff1681525034801562000043575f80fd5b50620000546200005a60201b60201c565b620001e1565b5f6200006b6200015e60201b60201c565b9050805f0160089054906101000a900460ff1615620000b6576040517ff92ee8a900000000000000000000000000000000000000000000000000000000815260040160405180910390fd5b67ffffffffffffffff8016815f015f9054906101000a900467ffffffffffffffff1667ffffffffffffffff16146200015b5767ffffffffffffffff815f015f6101000a81548167ffffffffffffffff021916908367ffffffffffffffff1602179055507fc7f505b2f371ae2175ee4913f4499e1f2633a7b5936321eed1cdaeb6115181d267ffffffffffffffff604051620001529190620001c6565b60405180910390a15b50565b5f80620001706200017960201b60201c565b90508091505090565b5f7ff0c57e16840df040f15088dc2f81fe391c3923bec73e23a9662efc9c229c6a005f1b905090565b5f67ffffffffffffffff82169050919050565b620001c081620001a2565b82525050565b5f602082019050620001db5f830184620001b5565b92915050565b608051611520620002085f395f81816106cd0152818161072201526108dc01526115205ff3fe60806040526004361061009b575f3560e01c80638da5cb5b116100635780638da5cb5b14610173578063ad3cb1cc1461019d578063c4d66de8146101c7578063ca2bb338146101ef578063e9f55b7914610217578063f2fde38b1461023f5761009b565b80633c7677a21461009f5780634f1ef286146100db57806352d1902d146100f75780636934535e14610121578063715018a61461015d575b5f80fd5b3480156100aa575f80fd5b506100c560048036038101906100c09190611093565b610267565b6040516100d291906110f4565b60405180910390f35b6100f560048036038101906100f09190611205565b6102b7565b005b348015610102575f80fd5b5061010b6102d6565b6040516101189190611277565b60405180910390f35b34801561012c575f80fd5b5061014760048036038101906101429190611290565b610307565b60405161015491906110f4565b60405180910390f35b348015610168575f80fd5b50610171610311565b005b34801561017e575f80fd5b50610187610324565b60405161019491906112ca565b60405180910390f35b3480156101a8575f80fd5b506101b1610359565b6040516101be919061135d565b60405180910390f35b3480156101d2575f80fd5b506101ed60048036038101906101e89190611290565b610392565b005b3480156101fa575f80fd5b5061021560048036038101906102109190611093565b61051b565b005b348015610222575f80fd5b5061023d60048036038101906102389190611093565b6105b0565b005b34801561024a575f80fd5b5061026560048036038101906102609190611290565b610647565b005b5f808260405160200161027a91906113b7565b6040516020818303038152906040528051906020012090505f808281526020019081526020015f205f9054906101000a900460ff16915050919050565b6102bf6106cb565b6102c8826107b1565b6102d282826107bc565b5050565b5f6102df6108da565b7f360894a13ba1a3210667c828492db98dca3e2076cc3735a920a3ca505d382bbc5f1b905090565b5f60019050919050565b610319610961565b6103225f6109e8565b565b5f8061032e610ab9565b9050805f015f9054906101000a900473ffffffffffffffffffffffffffffffffffffffff1691505090565b6040518060400160405280600581526020017f352e302e3000000000000000000000000000000000000000000000000000000081525081565b5f61039b610ae0565b90505f815f0160089054906101000a900460ff161590505f825f015f9054906101000a900467ffffffffffffffff1690505f808267ffffffffffffffff161480156103e35750825b90505f60018367ffffffffffffffff1614801561041657505f3073ffffffffffffffffffffffffffffffffffffffff163b145b905081158015610424575080155b1561045b576040517ff92ee8a900000000000000000000000000000000000000000000000000000000815260040160405180910390fd5b6001855f015f6101000a81548167ffffffffffffffff021916908367ffffffffffffffff16021790555083156104a8576001855f0160086101000a81548160ff0219169083151502179055505b6104b186610af3565b6104b9610b07565b8315610513575f855f0160086101000a81548160ff0219169083151502179055507fc7f505b2f371ae2175ee4913f4499e1f2633a7b5936321eed1cdaeb6115181d2600160405161050a9190611422565b60405180910390a15b505050505050565b610523610961565b5f8160405160200161053591906113b7565b6040516020818303038152906040528051906020012090505f805f8381526020019081526020015f205f6101000a81548160ff021916908315150217905550807f5262ef7b954f4741e7f49136bb62c129d74acd2c2303b06752dcc7de6ce843635f6040516105a491906110f4565b60405180910390a25050565b6105b8610961565b5f816040516020016105ca91906113b7565b60405160208183030381529060405280519060200120905060015f808381526020019081526020015f205f6101000a81548160ff021916908315150217905550807f5262ef7b954f4741e7f49136bb62c129d74acd2c2303b06752dcc7de6ce84363600160405161063b91906110f4565b60405180910390a25050565b61064f610961565b5f73ffffffffffffffffffffffffffffffffffffffff168173ffffffffffffffffffffffffffffffffffffffff16036106bf575f6040517f1e4fbdf70000000000000000000000000000000000000000000000000000000081526004016106b691906112ca565b60405180910390fd5b6106c8816109e8565b50565b7f000000000000000000000000000000000000000000000000000000000000000073ffffffffffffffffffffffffffffffffffffffff163073ffffffffffffffffffffffffffffffffffffffff16148061077857507f000000000000000000000000000000000000000000000000000000000000000073ffffffffffffffffffffffffffffffffffffffff1661075f610b11565b73ffffffffffffffffffffffffffffffffffffffff1614155b156107af576040517fe07c8dba00000000000000000000000000000000000000000000000000000000815260040160405180910390fd5b565b6107b9610961565b50565b8173ffffffffffffffffffffffffffffffffffffffff166352d1902d6040518163ffffffff1660e01b8152600401602060405180830381865afa92505050801561082457506040513d601f19601f820116820180604052508101906108219190611465565b60015b61086557816040517f4c9c8ce300000000000000000000000000000000000000000000000000000000815260040161085c91906112ca565b60405180910390fd5b7f360894a13ba1a3210667c828492db98dca3e2076cc3735a920a3ca505d382bbc5f1b81146108cb57806040517faa1d49a40000000000000000000000000000000000000000000000000000000081526004016108c29190611277565b60405180910390fd5b6108d58383610b64565b505050565b7f000000000000000000000000000000000000000000000000000000000000000073ffffffffffffffffffffffffffffffffffffffff163073ffffffffffffffffffffffffffffffffffffffff161461095f576040517fe07c8dba00000000000000000000000000000000000000000000000000000000815260040160405180910390fd5b565b610969610bd6565b73ffffffffffffffffffffffffffffffffffffffff16610987610324565b73ffffffffffffffffffffffffffffffffffffffff16146109e6576109aa610bd6565b6040517f118cdaa70000000000000000000000000000000000000000000000000000000081526004016109dd91906112ca565b60405180910390fd5b565b5f6109f1610ab9565b90505f815f015f9054906101000a900473ffffffffffffffffffffffffffffffffffffffff16905082825f015f6101000a81548173ffffffffffffffffffffffffffffffffffffffff021916908373ffffffffffffffffffffffffffffffffffffffff1602179055508273ffffffffffffffffffffffffffffffffffffffff168173ffffffffffffffffffffffffffffffffffffffff167f8be0079c531659141344cd1fd0a4f28419497f9722a3daafe3b4186f6b6457e060405160405180910390a3505050565b5f7f9016d09d72d40fdae2fd8ceac6b6234c7706214fd39c1cd1e609a0528c199300905090565b5f80610aea610bdd565b90508091505090565b610afb610c06565b610b0481610c46565b50565b610b0f610c06565b565b5f610b3d7f360894a13ba1a3210667c828492db98dca3e2076cc3735a920a3ca505d382bbc5f1b610cca565b5f015f9054906101000a900473ffffffffffffffffffffffffffffffffffffffff16905090565b610b6d82610cd3565b8173ffffffffffffffffffffffffffffffffffffffff167fbc7cd75a20ee27fd9adebab32041f755214dbc6bffa90cc0225b39da2e5c2d3b60405160405180910390a25f81511115610bc957610bc38282610d9c565b50610bd2565b610bd1610e1c565b5b5050565b5f33905090565b5f7ff0c57e16840df040f15088dc2f81fe391c3923bec73e23a9662efc9c229c6a005f1b905090565b610c0e610e58565b610c44576040517fd7e6bcf800000000000000000000000000000000000000000000000000000000815260040160405180910390fd5b565b610c4e610c06565b5f73ffffffffffffffffffffffffffffffffffffffff168173ffffffffffffffffffffffffffffffffffffffff1603610cbe575f6040517f1e4fbdf7000000000000000000000000000000000000000000000000000000008152600401610cb591906112ca565b60405180910390fd5b610cc7816109e8565b50565b5f819050919050565b5f8173ffffffffffffffffffffffffffffffffffffffff163b03610d2e57806040517f4c9c8ce3000000000000000000000000000000000000000000000000000000008152600401610d2591906112ca565b60405180910390fd5b80610d5a7f360894a13ba1a3210667c828492db98dca3e2076cc3735a920a3ca505d382bbc5f1b610cca565b5f015f6101000a81548173ffffffffffffffffffffffffffffffffffffffff021916908373ffffffffffffffffffffffffffffffffffffffff16021790555050565b60605f808473ffffffffffffffffffffffffffffffffffffffff1684604051610dc591906114d4565b5f60405180830381855af49150503d805f8114610dfd576040519150601f19603f3d011682016040523d82523d5f602084013e610e02565b606091505b5091509150610e12858383610e76565b9250505092915050565b5f341115610e56576040517fb398979f00000000000000000000000000000000000000000000000000000000815260040160405180910390fd5b565b5f610e61610ae0565b5f0160089054906101000a900460ff16905090565b606082610e8b57610e8682610f03565b610efb565b5f8251148015610eb157505f8473ffffffffffffffffffffffffffffffffffffffff163b145b15610ef357836040517f9996b315000000000000000000000000000000000000000000000000000000008152600401610eea91906112ca565b60405180910390fd5b819050610efc565b5b9392505050565b5f81511115610f1457805160208201fd5b6040517fd6bda27500000000000000000000000000000000000000000000000000000000815260040160405180910390fd5b5f604051905090565b5f80fd5b5f80fd5b5f80fd5b5f80fd5b5f601f19601f8301169050919050565b7f4e487b71000000000000000000000000000000000000000000000000000000005f52604160045260245ffd5b610fa582610f5f565b810181811067ffffffffffffffff82111715610fc457610fc3610f6f565b5b80604052505050565b5f610fd6610f46565b9050610fe28282610f9c565b919050565b5f67ffffffffffffffff82111561100157611000610f6f565b5b61100a82610f5f565b9050602081019050919050565b828183375f83830152505050565b5f61103761103284610fe7565b610fcd565b90508281526020810184848401111561105357611052610f5b565b5b61105e848285611017565b509392505050565b5f82601f83011261107a57611079610f57565b5b813561108a848260208601611025565b91505092915050565b5f602082840312156110a8576110a7610f4f565b5b5f82013567ffffffffffffffff8111156110c5576110c4610f53565b5b6110d184828501611066565b91505092915050565b5f8115159050919050565b6110ee816110da565b82525050565b5f6020820190506111075f8301846110e5565b92915050565b5f73ffffffffffffffffffffffffffffffffffffffff82169050919050565b5f6111368261110d565b9050919050565b6111468161112c565b8114611150575f80fd5b50565b5f813590506111618161113d565b92915050565b5f67ffffffffffffffff82111561118157611180610f6f565b5b61118a82610f5f565b9050602081019050919050565b5f6111a96111a484611167565b610fcd565b9050828152602081018484840111156111c5576111c4610f5b565b5b6111d0848285611017565b509392505050565b5f82601f8301126111ec576111eb610f57565b5b81356111fc848260208601611197565b91505092915050565b5f806040838503121561121b5761121a610f4f565b5b5f61122885828601611153565b925050602083013567ffffffffffffffff81111561124957611248610f53565b5b611255858286016111d8565b9150509250929050565b5f819050919050565b6112718161125f565b82525050565b5f60208201905061128a5f830184611268565b92915050565b5f602082840312156112a5576112a4610f4f565b5b5f6112b284828501611153565b91505092915050565b6112c48161112c565b82525050565b5f6020820190506112dd5f8301846112bb565b92915050565b5f81519050919050565b5f82825260208201905092915050565b5f5b8381101561131a5780820151818401526020810190506112ff565b5f8484015250505050565b5f61132f826112e3565b61133981856112ed565b93506113498185602086016112fd565b61135281610f5f565b840191505092915050565b5f6020820190508181035f8301526113758184611325565b905092915050565b5f81905092915050565b5f611391826112e3565b61139b818561137d565b93506113ab8185602086016112fd565b80840191505092915050565b5f6113c28284611387565b915081905092915050565b5f819050919050565b5f67ffffffffffffffff82169050919050565b5f819050919050565b5f61140c611407611402846113cd565b6113e9565b6113d6565b9050919050565b61141c816113f2565b82525050565b5f6020820190506114355f830184611413565b92915050565b6114448161125f565b811461144e575f80fd5b50565b5f8151905061145f8161143b565b92915050565b5f6020828403121561147a57611479610f4f565b5b5f61148784828501611451565b91505092915050565b5f81519050919050565b5f81905092915050565b5f6114ae82611490565b6114b8818561149a565b93506114c88185602086016112fd565b80840191505092915050565b5f6114df82846114a4565b91508190509291505056fea26469706673582212204e599dfbc5d1845edd661a5135201cecc45dc22ff5a8eeef50bb3742f9a2055964736f6c63430008180033","linkReferences":{}},"methodIdentifiers":{"UPGRADE_INTERFACE_VERSION()":"ad3cb1cc","addApiKey(string)":"e9f55b79","checkRateLimit(address)":"6934535e","initialize(address)":"c4d66de8","isApiKeyAuthorized(string)":"3c7677a2","owner()":"8da5cb5b","proxiableUUID()":"52d1902d","removeApiKey(string)":"ca2bb338","renounceOwnership()":"715018a6","transferOwnership(address)":"f2fde38b","upgradeToAndCall(address,bytes)":"4f1ef286"},"id":52}