{"abi":[{"type":"constructor","inputs":[],"stateMutability":"nonpayable"},{"type":"function","name":"addApiKey","inputs":[{"name":"_apiKey","type":"string","internalType":"string"}],"outputs":[],"stateMutability":"nonpayable"},{"type":"function","name":"checkRateLimit","inputs":[{"name":"","type":"address","internalType":"address"}],"outputs":[{"name":"","type":"bool","internalType":"bool"}],"stateMutability":"pure"},{"type":"function","name":"isApiKeyAuthorized","inputs":[{"name":"_apiKey","type":"string","internalType":"string"}],"outputs":[{"name":"","type":"bool","internalType":"bool"}],"stateMutability":"view"},{"type":"function","name":"owner","inputs":[],"outputs":[{"name":"","type":"address","internalType":"address"}],"stateMutability":"view"},{"type":"function","name":"removeApiKey","inputs":[{"name":"_apiKey","type":"string","internalType":"string"}],"outputs":[],"stateMutability":"nonpayable"},{"type":"function","name":"renounceOwnership","inputs":[],"outputs":[],"stateMutability":"nonpayable"},{"type":"function","name":"transferOwnership","inputs":[{"name":"newOwner","type":"address","internalType":"address"}],"outputs":[],"stateMutability":"nonpayable"},{"type":"event","name":"ApiKeyAuthorizationChanged","inputs":[{"name":"apiKeyHash","type":"bytes32","indexed":true,"internalType":"bytes32"},{"name":"isAuthorized","type":"bool","indexed":false,"internalType":"bool"}],"anonymous":false},{"type":"event","name":"OwnershipTransferred","inputs":[{"name":"previousOwner","type":"address","indexed":true,"internalType":"address"},{"name":"newOwner","type":"address","indexed":true,"internalType":"address"}],"anonymous":false},{"type":"error","name":"OwnableInvalidOwner","inputs":[{"name":"owner","type":"address","internalType":"address"}]},{"type":"error","name":"OwnableUnauthorizedAccount","inputs":[{"name":"account","type":"address","internalType":"address"}]}],"bytecode":{"object":"0x608060405234801561000f575f80fd5b50335f73ffffffffffffffffffffffffffffffffffffffff168173ffffffffffffffffffffffffffffffffffffffff1603610081575f6040517f1e4fbdf70000000000000000000000000000000000000000000000000000000081526004016100789190610196565b60405180910390fd5b6100908161009660201b60201c565b506101af565b5f805f9054906101000a900473ffffffffffffffffffffffffffffffffffffffff169050815f806101000a81548173ffffffffffffffffffffffffffffffffffffffff021916908373ffffffffffffffffffffffffffffffffffffffff1602179055508173ffffffffffffffffffffffffffffffffffffffff168173ffffffffffffffffffffffffffffffffffffffff167f8be0079c531659141344cd1fd0a4f28419497f9722a3daafe3b4186f6b6457e060405160405180910390a35050565b5f73ffffffffffffffffffffffffffffffffffffffff82169050919050565b5f61018082610157565b9050919050565b61019081610176565b82525050565b5f6020820190506101a95f830184610187565b92915050565b61081c806101bc5f395ff3fe608060405234801561000f575f80fd5b506004361061007b575f3560e01c80638da5cb5b116100595780638da5cb5b146100e9578063ca2bb33814610107578063e9f55b7914610123578063f2fde38b1461013f5761007b565b80633c7677a21461007f5780636934535e146100af578063715018a6146100df575b5f80fd5b6100996004803603810190610094919061063d565b61015b565b6040516100a6919061069e565b60405180910390f35b6100c960048036038101906100c49190610711565b6101ac565b6040516100d6919061069e565b60405180910390f35b6100e76101b6565b005b6100f16101c9565b6040516100fe919061074b565b60405180910390f35b610121600480360381019061011c919061063d565b6101f0565b005b61013d6004803603810190610138919061063d565b610286565b005b61015960048036038101906101549190610711565b61031d565b005b5f808260405160200161016e91906107d0565b60405160208183030381529060405280519060200120905060015f8281526020019081526020015f205f9054906101000a900460ff16915050919050565b5f60019050919050565b6101be6103a1565b6101c75f610428565b565b5f805f9054906101000a900473ffffffffffffffffffffffffffffffffffffffff16905090565b6101f86103a1565b5f8160405160200161020a91906107d0565b6040516020818303038152906040528051906020012090505f60015f8381526020019081526020015f205f6101000a81548160ff021916908315150217905550807f5262ef7b954f4741e7f49136bb62c129d74acd2c2303b06752dcc7de6ce843635f60405161027a919061069e565b60405180910390a25050565b61028e6103a1565b5f816040516020016102a091906107d0565b6040516020818303038152906040528051906020012090506001805f8381526020019081526020015f205f6101000a81548160ff021916908315150217905550807f5262ef7b954f4741e7f49136bb62c129d74acd2c2303b06752dcc7de6ce843636001604051610311919061069e565b60405180910390a25050565b6103256103a1565b5f73ffffffffffffffffffffffffffffffffffffffff168173ffffffffffffffffffffffffffffffffffffffff1603610395575f6040517f1e4fbdf700000000000000000000000000000000000000000000000000000000815260040161038c919061074b565b60405180910390fd5b61039e81610428565b50565b6103a96104e9565b73ffffffffffffffffffffffffffffffffffffffff166103c76101c9565b73ffffffffffffffffffffffffffffffffffffffff1614610426576103ea6104e9565b6040517f118cdaa700000000000000000000000000000000000000000000000000000000815260040161041d919061074b565b60405180910390fd5b565b5f805f9054906101000a900473ffffffffffffffffffffffffffffffffffffffff169050815f806101000a81548173ffffffffffffffffffffffffffffffffffffffff021916908373ffffffffffffffffffffffffffffffffffffffff1602179055508173ffffffffffffffffffffffffffffffffffffffff168173ffffffffffffffffffffffffffffffffffffffff167f8be0079c531659141344cd1fd0a4f28419497f9722a3daafe3b4186f6b6457e060405160405180910390a35050565b5f33905090565b5f604051905090565b5f80fd5b5f80fd5b5f80fd5b5f80fd5b5f601f19601f8301169050919050565b7f4e487b71000000000000000000000000000000000000000000000000000000005f52604160045260245ffd5b61054f82610509565b810181811067ffffffffffffffff8211171561056e5761056d610519565b5b80604052505050565b5f6105806104f0565b905061058c8282610546565b919050565b5f67ffffffffffffffff8211156105ab576105aa610519565b5b6105b482610509565b9050602081019050919050565b828183375f83830152505050565b5f6105e16105dc84610591565b610577565b9050828152602081018484840111156105fd576105fc610505565b5b6106088482856105c1565b509392505050565b5f82601f83011261062457610623610501565b5b81356106348482602086016105cf565b91505092915050565b5f60208284031215610652576106516104f9565b5b5f82013567ffffffffffffffff81111561066f5761066e6104fd565b5b61067b84828501610610565b91505092915050565b5f8115159050919050565b61069881610684565b82525050565b5f6020820190506106b15f83018461068f565b92915050565b5f73ffffffffffffffffffffffffffffffffffffffff82169050919050565b5f6106e0826106b7565b9050919050565b6106f0816106d6565b81146106fa575f80fd5b50565b5f8135905061070b816106e7565b92915050565b5f60208284031215610726576107256104f9565b5b5f610733848285016106fd565b91505092915050565b610745816106d6565b82525050565b5f60208201905061075e5f83018461073c565b92915050565b5f81519050919050565b5f81905092915050565b5f5b8381101561079557808201518184015260208101905061077a565b5f8484015250505050565b5f6107aa82610764565b6107b4818561076e565b93506107c4818560208601610778565b80840191505092915050565b5f6107db82846107a0565b91508190509291505056fea264697066735822122010eb913cf0b9958b41cdd61af9a63f60494745fac5891354cf692b95b65d35e264736f6c63430008180033","linkReferences":{}},"methodIdentifiers":{"addApiKey(string)":"e9f55b79","checkRateLimit(address)":"6934535e","isApiKeyAuthorized(string)":"3c7677a2","owner()":"8da5cb5b","removeApiKey(string)":"ca2bb338","renounceOwnership()":"715018a6","transferOwnership(address)":"f2fde38b"},"id":2}