{"abi":[{"type":"constructor","inputs":[],"stateMutability":"nonpayable"},{"type":"function","name":"approve","inputs":[{"name":"to","type":"address","internalType":"address"},{"name":"tokenId","type":"uint256","internalType":"uint256"}],"outputs":[],"stateMutability":"nonpayable"},{"type":"function","name":"balanceOf","inputs":[{"name":"owner","type":"address","internalType":"address"}],"outputs":[{"name":"","type":"uint256","internalType":"uint256"}],"stateMutability":"view"},{"type":"function","name":"getApproved","inputs":[{"name":"tokenId","type":"uint256","internalType":"uint256"}],"outputs":[{"name":"","type":"address","internalType":"address"}],"stateMutability":"view"},{"type":"function","name":"isApprovedForAll","inputs":[{"name":"owner","type":"address","internalType":"address"},{"name":"operator","type":"address","internalType":"address"}],"outputs":[{"name":"","type":"bool","internalType":"bool"}],"stateMutability":"view"},{"type":"function","name":"name","inputs":[],"outputs":[{"name":"","type":"string","internalType":"string"}],"stateMutability":"view"},{"type":"function","name":"ownerOf","inputs":[{"name":"tokenId","type":"uint256","internalType":"uint256"}],"outputs":[{"name":"","type":"address","internalType":"address"}],"stateMutability":"view"},{"type":"function","name":"safeMint","inputs":[{"name":"to","type":"address","internalType":"address"}],"outputs":[],"stateMutability":"nonpayable"},{"type":"function","name":"safeTransferFrom","inputs":[{"name":"from","type":"address","internalType":"address"},{"name":"to","type":"address","internalType":"address"},{"name":"tokenId","type":"uint256","internalType":"uint256"}],"outputs":[],"stateMutability":"nonpayable"},{"type":"function","name":"safeTransferFrom","inputs":[{"name":"from","type":"address","internalType":"address"},{"name":"to","type":"address","internalType":"address"},{"name":"tokenId","type":"uint256","internalType":"uint256"},{"name":"data","type":"bytes","internalType":"bytes"}],"outputs":[],"stateMutability":"nonpayable"},{"type":"function","name":"setApprovalForAll","inputs":[{"name":"operator","type":"address","internalType":"address"},{"name":"approved","type":"bool","internalType":"bool"}],"outputs":[],"stateMutability":"nonpayable"},{"type":"function","name":"supportsInterface","inputs":[{"name":"interfaceId","type":"bytes4","internalType":"bytes4"}],"outputs":[{"name":"","type":"bool","internalType":"bool"}],"stateMutability":"view"},{"type":"function","name":"symbol","inputs":[],"outputs":[{"name":"","type":"string","internalType":"string"}],"stateMutability":"view"},{"type":"function","name":"tokenURI","inputs":[{"name":"tokenId","type":"uint256","internalType":"uint256"}],"outputs":[{"name":"","type":"string","internalType":"string"}],"stateMutability":"view"},{"type":"function","name":"transferFrom","inputs":[{"name":"from","type":"address","internalType":"address"},{"name":"to","type":"address","internalType":"address"},{"name":"tokenId","type":"uint256","internalType":"uint256"}],"outputs":[],"stateMutability":"nonpayable"},{"type":"event","name":"Approval","inputs":[{"name":"owner","type":"address","indexed":true,"internalType":"address"},{"name":"approved","type":"address","indexed":true,"internalType":"address"},{"name":"tokenId","type":"uint256","indexed":true,"internalType":"uint256"}],"anonymous":false},{"type":"event","name":"ApprovalForAll","inputs":[{"name":"owner","type":"address","indexed":true,"internalType":"address"},{"name":"operator","type":"address","indexed":true,"internalType":"address"},{"name":"approved","type":"bool","indexed":false,"internalType":"bool"}],"anonymous":false},{"type":"event","name":"Transfer","inputs":[{"name":"from","type":"address","indexed":true,"internalType":"address"},{"name":"to","type":"address","indexed":true,"internalType":"address"},{"name":"tokenId","type":"uint256","indexed":true,"internalType":"uint256"}],"anonymous":false},{"type":"error","name":"ERC721IncorrectOwner","inputs":[{"name":"sender","type":"address","internalType":"address"},{"name":"tokenId","type":"uint256","internalType":"uint256"},{"name":"owner","type":"address","internalType":"address"}]},{"type":"error","name":"ERC721InsufficientApproval","inputs":[{"name":"operator","type":"address","internalType":"address"},{"name":"tokenId","type":"uint256","internalType":"uint256"}]},{"type":"error","name":"ERC721InvalidApprover","inputs":[{"name":"approver","type":"address","internalType":"address"}]},{"type":"error","name":"ERC721InvalidOperator","inputs":[{"name":"operator","type":"address","internalType":"address"}]},{"type":"error","name":"ERC721InvalidOwner","inputs":[{"name":"owner","type":"address","internalType":"address"}]},{"type":"error","name":"ERC721InvalidReceiver","inputs":[{"name":"receiver","type":"address","internalType":"address"}]},{"type":"error","name":"ERC721InvalidSender","inputs":[{"name":"sender","type":"address","internalType":"address"}]},{"type":"error","name":"ERC721NonexistentToken","inputs":[{"name":"tokenId","type":"uint256","internalType":"uint256"}]}],"bytecode":{"object":"0x608060405234801562000010575f80fd5b506040518060400160405280600d81526020017f5261696e7920446179204e4654000000000000000000000000000000000000008152506040518060400160405280600481526020017f5241494e00000000000000000000000000000000000000000000000000000000815250815f90816200008d91906200030c565b5080600190816200009f91906200030c565b505050620003f0565b5f81519050919050565b7f4e487b71000000000000000000000000000000000000000000000000000000005f52604160045260245ffd5b7f4e487b71000000000000000000000000000000000000000000000000000000005f52602260045260245ffd5b5f60028204905060018216806200012457607f821691505b6020821081036200013a5762000139620000df565b5b50919050565b5f819050815f5260205f209050919050565b5f6020601f8301049050919050565b5f82821b905092915050565b5f600883026200019e7fffffffffffffffffffffffffffffffffffffffffffffffffffffffffffffffff8262000161565b620001aa868362000161565b95508019841693508086168417925050509392505050565b5f819050919050565b5f819050919050565b5f620001f4620001ee620001e884620001c2565b620001cb565b620001c2565b9050919050565b5f819050919050565b6200020f83620001d4565b620002276200021e82620001fb565b8484546200016d565b825550505050565b5f90565b6200023d6200022f565b6200024a81848462000204565b505050565b5b818110156200027157620002655f8262000233565b60018101905062000250565b5050565b601f821115620002c0576200028a8162000140565b620002958462000152565b81016020851015620002a5578190505b620002bd620002b48562000152565b8301826200024f565b50505b505050565b5f82821c905092915050565b5f620002e25f1984600802620002c5565b1980831691505092915050565b5f620002fc8383620002d1565b9150826002028217905092915050565b6200031782620000a8565b67ffffffffffffffff811115620003335762000332620000b2565b5b6200033f82546200010c565b6200034c82828562000275565b5f60209050601f83116001811462000382575f84156200036d578287015190505b620003798582620002ef565b865550620003e8565b601f198416620003928662000140565b5f5b82811015620003bb5784890151825560018201915060208501945060208101905062000394565b86831015620003db5784890151620003d7601f891682620002d1565b8355505b6001600288020188555050505b505050505050565b611de580620003fe5f395ff3fe608060405234801561000f575f80fd5b50600436106100e8575f3560e01c80636352211e1161008a578063a22cb46511610064578063a22cb46514610258578063b88d4fde14610274578063c87b56dd14610290578063e985e9c5146102c0576100e8565b80636352211e146101da57806370a082311461020a57806395d89b411461023a576100e8565b8063095ea7b3116100c6578063095ea7b31461016a57806323b872dd1461018657806340d097c3146101a257806342842e0e146101be576100e8565b806301ffc9a7146100ec57806306fdde031461011c578063081812fc1461013a575b5f80fd5b61010660048036038101906101019190611602565b6102f0565b6040516101139190611647565b60405180910390f35b6101246103d1565b60405161013191906116ea565b60405180910390f35b610154600480360381019061014f919061173d565b610460565b60405161016191906117a7565b60405180910390f35b610184600480360381019061017f91906117ea565b61047b565b005b6101a0600480360381019061019b9190611828565b610491565b005b6101bc60048036038101906101b79190611878565b610590565b005b6101d860048036038101906101d39190611828565b6105b7565b005b6101f460048036038101906101ef919061173d565b6105d6565b60405161020191906117a7565b60405180910390f35b610224600480360381019061021f9190611878565b6105e7565b60405161023191906118b2565b60405180910390f35b61024261069d565b60405161024f91906116ea565b60405180910390f35b610272600480360381019061026d91906118f5565b61072d565b005b61028e60048036038101906102899190611a5f565b610743565b005b6102aa60048036038101906102a5919061173d565b610768565b6040516102b791906116ea565b60405180910390f35b6102da60048036038101906102d59190611adf565b6107ce565b6040516102e79190611647565b60405180910390f35b5f7f80ac58cd000000000000000000000000000000000000000000000000000000007bffffffffffffffffffffffffffffffffffffffffffffffffffffffff1916827bffffffffffffffffffffffffffffffffffffffffffffffffffffffff191614806103ba57507f5b5e139f000000000000000000000000000000000000000000000000000000007bffffffffffffffffffffffffffffffffffffffffffffffffffffffff1916827bffffffffffffffffffffffffffffffffffffffffffffffffffffffff1916145b806103ca57506103c98261085c565b5b9050919050565b60605f80546103df90611b4a565b80601f016020809104026020016040519081016040528092919081815260200182805461040b90611b4a565b80156104565780601f1061042d57610100808354040283529160200191610456565b820191905f5260205f20905b81548152906001019060200180831161043957829003601f168201915b5050505050905090565b5f61046a826108c5565b506104748261094b565b9050919050565b61048d8282610488610984565b61098b565b5050565b5f73ffffffffffffffffffffffffffffffffffffffff168273ffffffffffffffffffffffffffffffffffffffff1603610501575f6040517f64a0ae920000000000000000000000000000000000000000000000000000000081526004016104f891906117a7565b60405180910390fd5b5f610514838361050f610984565b61099d565b90508373ffffffffffffffffffffffffffffffffffffffff168173ffffffffffffffffffffffffffffffffffffffff161461058a578382826040517f64283d7b00000000000000000000000000000000000000000000000000000000815260040161058193929190611b7a565b60405180910390fd5b50505050565b5f60065f8154809291906105a390611bdc565b9190505590506105b38282610ba8565b5050565b6105d183838360405180602001604052805f815250610743565b505050565b5f6105e0826108c5565b9050919050565b5f8073ffffffffffffffffffffffffffffffffffffffff168273ffffffffffffffffffffffffffffffffffffffff1603610658575f6040517f89c62b6400000000000000000000000000000000000000000000000000000000815260040161064f91906117a7565b60405180910390fd5b60035f8373ffffffffffffffffffffffffffffffffffffffff1673ffffffffffffffffffffffffffffffffffffffff1681526020019081526020015f20549050919050565b6060600180546106ac90611b4a565b80601f01602080910402602001604051908101604052809291908181526020018280546106d890611b4a565b80156107235780601f106106fa57610100808354040283529160200191610723565b820191905f5260205f20905b81548152906001019060200180831161070657829003601f168201915b5050505050905090565b61073f610738610984565b8383610bc5565b5050565b61074e848484610491565b610762610759610984565b85858585610d2e565b50505050565b6060610773826108c5565b505f61077d610eda565b90505f81511161079b5760405180602001604052805f8152506107c6565b806107a584610ef0565b6040516020016107b6929190611c5d565b6040516020818303038152906040525b915050919050565b5f60055f8473ffffffffffffffffffffffffffffffffffffffff1673ffffffffffffffffffffffffffffffffffffffff1681526020019081526020015f205f8373ffffffffffffffffffffffffffffffffffffffff1673ffffffffffffffffffffffffffffffffffffffff1681526020019081526020015f205f9054906101000a900460ff16905092915050565b5f7f01ffc9a7000000000000000000000000000000000000000000000000000000007bffffffffffffffffffffffffffffffffffffffffffffffffffffffff1916827bffffffffffffffffffffffffffffffffffffffffffffffffffffffff1916149050919050565b5f806108d083610fba565b90505f73ffffffffffffffffffffffffffffffffffffffff168173ffffffffffffffffffffffffffffffffffffffff160361094257826040517f7e27328900000000000000000000000000000000000000000000000000000000815260040161093991906118b2565b60405180910390fd5b80915050919050565b5f60045f8381526020019081526020015f205f9054906101000a900473ffffffffffffffffffffffffffffffffffffffff169050919050565b5f33905090565b6109988383836001610ff3565b505050565b5f806109a884610fba565b90505f73ffffffffffffffffffffffffffffffffffffffff168373ffffffffffffffffffffffffffffffffffffffff16146109e9576109e88184866111b2565b5b5f73ffffffffffffffffffffffffffffffffffffffff168173ffffffffffffffffffffffffffffffffffffffff1614610a7457610a285f855f80610ff3565b600160035f8373ffffffffffffffffffffffffffffffffffffffff1673ffffffffffffffffffffffffffffffffffffffff1681526020019081526020015f205f82825403925050819055505b5f73ffffffffffffffffffffffffffffffffffffffff168573ffffffffffffffffffffffffffffffffffffffff1614610af357600160035f8773ffffffffffffffffffffffffffffffffffffffff1673ffffffffffffffffffffffffffffffffffffffff1681526020019081526020015f205f82825401925050819055505b8460025f8681526020019081526020015f205f6101000a81548173ffffffffffffffffffffffffffffffffffffffff021916908373ffffffffffffffffffffffffffffffffffffffff160217905550838573ffffffffffffffffffffffffffffffffffffffff168273ffffffffffffffffffffffffffffffffffffffff167fddf252ad1be2c89b69c2b068fc378daa952ba7f163c4a11628f55a4df523b3ef60405160405180910390a4809150509392505050565b610bc1828260405180602001604052805f815250611275565b5050565b5f73ffffffffffffffffffffffffffffffffffffffff168273ffffffffffffffffffffffffffffffffffffffff1603610c3557816040517f5b08ba18000000000000000000000000000000000000000000000000000000008152600401610c2c91906117a7565b60405180910390fd5b8060055f8573ffffffffffffffffffffffffffffffffffffffff1673ffffffffffffffffffffffffffffffffffffffff1681526020019081526020015f205f8473ffffffffffffffffffffffffffffffffffffffff1673ffffffffffffffffffffffffffffffffffffffff1681526020019081526020015f205f6101000a81548160ff0219169083151502179055508173ffffffffffffffffffffffffffffffffffffffff168373ffffffffffffffffffffffffffffffffffffffff167f17307eab39ab6107e8899845ad3d59bd9653f200f220920489ca2b5937696c3183604051610d219190611647565b60405180910390a3505050565b5f8373ffffffffffffffffffffffffffffffffffffffff163b1115610ed3578273ffffffffffffffffffffffffffffffffffffffff1663150b7a02868685856040518563ffffffff1660e01b8152600401610d8c9493929190611cd2565b6020604051808303815f875af1925050508015610dc757506040513d601f19601f82011682018060405250810190610dc49190611d30565b60015b610e48573d805f8114610df5576040519150601f19603f3d011682016040523d82523d5f602084013e610dfa565b606091505b505f815103610e4057836040517f64a0ae92000000000000000000000000000000000000000000000000000000008152600401610e3791906117a7565b60405180910390fd5b805160208201fd5b63150b7a0260e01b7bffffffffffffffffffffffffffffffffffffffffffffffffffffffff1916817bffffffffffffffffffffffffffffffffffffffffffffffffffffffff191614610ed157836040517f64a0ae92000000000000000000000000000000000000000000000000000000008152600401610ec891906117a7565b60405180910390fd5b505b5050505050565b606060405180602001604052805f815250905090565b60605f6001610efe84611298565b0190505f8167ffffffffffffffff811115610f1c57610f1b61193b565b5b6040519080825280601f01601f191660200182016040528015610f4e5781602001600182028036833780820191505090505b5090505f82602083010190505b600115610faf578080600190039150507f3031323334353637383961626364656600000000000000000000000000000000600a86061a8153600a8581610fa457610fa3611d5b565b5b0494505f8503610f5b575b819350505050919050565b5f60025f8381526020019081526020015f205f9054906101000a900473ffffffffffffffffffffffffffffffffffffffff169050919050565b808061102b57505f73ffffffffffffffffffffffffffffffffffffffff168273ffffffffffffffffffffffffffffffffffffffff1614155b1561115d575f61103a846108c5565b90505f73ffffffffffffffffffffffffffffffffffffffff168373ffffffffffffffffffffffffffffffffffffffff16141580156110a457508273ffffffffffffffffffffffffffffffffffffffff168173ffffffffffffffffffffffffffffffffffffffff1614155b80156110b757506110b581846107ce565b155b156110f957826040517fa9fbf51f0000000000000000000000000000000000000000000000000000000081526004016110f091906117a7565b60405180910390fd5b811561115b57838573ffffffffffffffffffffffffffffffffffffffff168273ffffffffffffffffffffffffffffffffffffffff167f8c5be1e5ebec7d5bd14f71427d1e84f3dd0314c0f7b2291e5b200ac8c7c3b92560405160405180910390a45b505b8360045f8581526020019081526020015f205f6101000a81548173ffffffffffffffffffffffffffffffffffffffff021916908373ffffffffffffffffffffffffffffffffffffffff16021790555050505050565b6111bd8383836113e9565b611270575f73ffffffffffffffffffffffffffffffffffffffff168373ffffffffffffffffffffffffffffffffffffffff160361123157806040517f7e27328900000000000000000000000000000000000000000000000000000000815260040161122891906118b2565b60405180910390fd5b81816040517f177e802f000000000000000000000000000000000000000000000000000000008152600401611267929190611d88565b60405180910390fd5b505050565b61127f83836114a9565b61129361128a610984565b5f858585610d2e565b505050565b5f805f90507a184f03e93ff9f4daa797ed6e38ed64bf6a1f01000000000000000083106112f4577a184f03e93ff9f4daa797ed6e38ed64bf6a1f01000000000000000083816112ea576112e9611d5b565b5b0492506040810190505b6d04ee2d6d415b85acef81000000008310611331576d04ee2d6d415b85acef8100000000838161132757611326611d5b565b5b0492506020810190505b662386f26fc10000831061136057662386f26fc10000838161135657611355611d5b565b5b0492506010810190505b6305f5e1008310611389576305f5e100838161137f5761137e611d5b565b5b0492506008810190505b61271083106113ae5761271083816113a4576113a3611d5b565b5b0492506004810190505b606483106113d157606483816113c7576113c6611d5b565b5b0492506002810190505b600a83106113e0576001810190505b80915050919050565b5f8073ffffffffffffffffffffffffffffffffffffffff168373ffffffffffffffffffffffffffffffffffffffff16141580156114a057508273ffffffffffffffffffffffffffffffffffffffff168473ffffffffffffffffffffffffffffffffffffffff161480611461575061146084846107ce565b5b8061149f57508273ffffffffffffffffffffffffffffffffffffffff166114878361094b565b73ffffffffffffffffffffffffffffffffffffffff16145b5b90509392505050565b5f73ffffffffffffffffffffffffffffffffffffffff168273ffffffffffffffffffffffffffffffffffffffff1603611519575f6040517f64a0ae9200000000000000000000000000000000000000000000000000000000815260040161151091906117a7565b60405180910390fd5b5f61152583835f61099d565b90505f73ffffffffffffffffffffffffffffffffffffffff168173ffffffffffffffffffffffffffffffffffffffff1614611597575f6040517f73c6ac6e00000000000000000000000000000000000000000000000000000000815260040161158e91906117a7565b60405180910390fd5b505050565b5f604051905090565b5f80fd5b5f80fd5b5f7fffffffff0000000000000000000000000000000000000000000000000000000082169050919050565b6115e1816115ad565b81146115eb575f80fd5b50565b5f813590506115fc816115d8565b92915050565b5f60208284031215611617576116166115a5565b5b5f611624848285016115ee565b91505092915050565b5f8115159050919050565b6116418161162d565b82525050565b5f60208201905061165a5f830184611638565b92915050565b5f81519050919050565b5f82825260208201905092915050565b5f5b8381101561169757808201518184015260208101905061167c565b5f8484015250505050565b5f601f19601f8301169050919050565b5f6116bc82611660565b6116c6818561166a565b93506116d681856020860161167a565b6116df816116a2565b840191505092915050565b5f6020820190508181035f83015261170281846116b2565b905092915050565b5f819050919050565b61171c8161170a565b8114611726575f80fd5b50565b5f8135905061173781611713565b92915050565b5f60208284031215611752576117516115a5565b5b5f61175f84828501611729565b91505092915050565b5f73ffffffffffffffffffffffffffffffffffffffff82169050919050565b5f61179182611768565b9050919050565b6117a181611787565b82525050565b5f6020820190506117ba5f830184611798565b92915050565b6117c981611787565b81146117d3575f80fd5b50565b5f813590506117e4816117c0565b92915050565b5f8060408385031215611800576117ff6115a5565b5b5f61180d858286016117d6565b925050602061181e85828601611729565b9150509250929050565b5f805f6060848603121561183f5761183e6115a5565b5b5f61184c868287016117d6565b935050602061185d868287016117d6565b925050604061186e86828701611729565b9150509250925092565b5f6020828403121561188d5761188c6115a5565b5b5f61189a848285016117d6565b91505092915050565b6118ac8161170a565b82525050565b5f6020820190506118c55f8301846118a3565b92915050565b6118d48161162d565b81146118de575f80fd5b50565b5f813590506118ef816118cb565b92915050565b5f806040838503121561190b5761190a6115a5565b5b5f611918858286016117d6565b9250506020611929858286016118e1565b9150509250929050565b5f80fd5b5f80fd5b7f4e487b71000000000000000000000000000000000000000000000000000000005f52604160045260245ffd5b611971826116a2565b810181811067ffffffffffffffff821117156119905761198f61193b565b5b80604052505050565b5f6119a261159c565b90506119ae8282611968565b919050565b5f67ffffffffffffffff8211156119cd576119cc61193b565b5b6119d6826116a2565b9050602081019050919050565b828183375f83830152505050565b5f611a036119fe846119b3565b611999565b905082815260208101848484011115611a1f57611a1e611937565b5b611a2a8482856119e3565b509392505050565b5f82601f830112611a4657611a45611933565b5b8135611a568482602086016119f1565b91505092915050565b5f805f8060808587031215611a7757611a766115a5565b5b5f611a84878288016117d6565b9450506020611a95878288016117d6565b9350506040611aa687828801611729565b925050606085013567ffffffffffffffff811115611ac757611ac66115a9565b5b611ad387828801611a32565b91505092959194509250565b5f8060408385031215611af557611af46115a5565b5b5f611b02858286016117d6565b9250506020611b13858286016117d6565b9150509250929050565b7f4e487b71000000000000000000000000000000000000000000000000000000005f52602260045260245ffd5b5f6002820490506001821680611b6157607f821691505b602082108103611b7457611b73611b1d565b5b50919050565b5f606082019050611b8d5f830186611798565b611b9a60208301856118a3565b611ba76040830184611798565b949350505050565b7f4e487b71000000000000000000000000000000000000000000000000000000005f52601160045260245ffd5b5f611be68261170a565b91507fffffffffffffffffffffffffffffffffffffffffffffffffffffffffffffffff8203611c1857611c17611baf565b5b600182019050919050565b5f81905092915050565b5f611c3782611660565b611c418185611c23565b9350611c5181856020860161167a565b80840191505092915050565b5f611c688285611c2d565b9150611c748284611c2d565b91508190509392505050565b5f81519050919050565b5f82825260208201905092915050565b5f611ca482611c80565b611cae8185611c8a565b9350611cbe81856020860161167a565b611cc7816116a2565b840191505092915050565b5f608082019050611ce55f830187611798565b611cf26020830186611798565b611cff60408301856118a3565b8181036060830152611d118184611c9a565b905095945050505050565b5f81519050611d2a816115d8565b92915050565b5f60208284031215611d4557611d446115a5565b5b5f611d5284828501611d1c565b91505092915050565b7f4e487b71000000000000000000000000000000000000000000000000000000005f52601260045260245ffd5b5f604082019050611d9b5f830185611798565b611da860208301846118a3565b939250505056fea264697066735822122010b58b94ab7a38c58d87495af7f7f49b2c821a0b6961aabab446387d7bf847a964736f6c63430008180033","linkReferences":{}},"methodIdentifiers":{"approve(address,uint256)":"095ea7b3","balanceOf(address)":"70a08231","getApproved(uint256)":"081812fc","isApprovedForAll(address,address)":"e985e9c5","name()":"06fdde03","ownerOf(uint256)":"6352211e","safeMint(address)":"40d097c3","safeTransferFrom(address,address,uint256)":"42842e0e","safeTransferFrom(address,address,uint256,bytes)":"b88d4fde","setApprovalForAll(address,bool)":"a22cb465","supportsInterface(bytes4)":"01ffc9a7","symbol()":"95d89b41","tokenURI(uint256)":"c87b56dd","transferFrom(address,address,uint256)":"23b872dd"},"id":0}