{"abi":[{"type":"constructor","inputs":[{"name":"_linkerAddress","type":"address","internalType":"address"},{"name":"_sanctifierAddress","type":"address","internalType":"address"},{"name":"_nftAddress","type":"address","internalType":"address"}],"stateMutability":"nonpayable"},{"type":"function","name":"RAINFALL_THRESHOLD","inputs":[],"outputs":[{"name":"","type":"uint256","internalType":"uint256"}],"stateMutability":"view"},{"type":"function","name":"_handleWeatherResponse","inputs":[{"name":"","type":"uint256","internalType":"uint256"},{"name":"_statusCode","type":"uint256","internalType":"uint256"},{"name":"_responseBody","type":"string","internalType":"string"}],"outputs":[],"stateMutability":"nonpayable"},{"type":"function","name":"checkWeatherAndMint","inputs":[{"name":"_schemaName","type":"string","internalType":"string"},{"name":"_params","type":"tuple[]","internalType":"struct FusionLinker.KeyValuePair[]","components":[{"name":"key","type":"string","internalType":"string"},{"name":"value","type":"string","internalType":"string"}]}],"outputs":[],"stateMutability":"nonpayable"},{"type":"function","name":"fusionLinker","inputs":[],"outputs":[{"name":"","type":"address","internalType":"contract FusionLinker"}],"stateMutability":"view"},{"type":"function","name":"onERC721Received","inputs":[{"name":"","type":"address","internalType":"address"},{"name":"","type":"address","internalType":"address"},{"name":"","type":"uint256","internalType":"uint256"},{"name":"","type":"bytes","internalType":"bytes"}],"outputs":[{"name":"","type":"bytes4","internalType":"bytes4"}],"stateMutability":"nonpayable"},{"type":"function","name":"rainyDayNFT","inputs":[],"outputs":[{"name":"","type":"address","internalType":"contract RainyDayNFT"}],"stateMutability":"view"},{"type":"function","name":"sanctifier","inputs":[],"outputs":[{"name":"","type":"address","internalType":"contract Sanctifier"}],"stateMutability":"view"},{"type":"event","name":"MintingTriggered","inputs":[{"name":"recipient","type":"address","indexed":true,"internalType":"address"}],"anonymous":false},{"type":"event","name":"WeatherCheckResult","inputs":[{"name":"message","type":"string","indexed":false,"internalType":"string"}],"anonymous":false}],"bytecode":{"object":"0x608060405234801562000010575f80fd5b506040516200110138038062001101833981810160405281019062000036919062000163565b825f806101000a81548173ffffffffffffffffffffffffffffffffffffffff021916908373ffffffffffffffffffffffffffffffffffffffff1602179055508160015f6101000a81548173ffffffffffffffffffffffffffffffffffffffff021916908373ffffffffffffffffffffffffffffffffffffffff1602179055508060025f6101000a81548173ffffffffffffffffffffffffffffffffffffffff021916908373ffffffffffffffffffffffffffffffffffffffff160217905550505050620001bc565b5f80fd5b5f73ffffffffffffffffffffffffffffffffffffffff82169050919050565b5f6200012d8262000102565b9050919050565b6200013f8162000121565b81146200014a575f80fd5b50565b5f815190506200015d8162000134565b92915050565b5f805f606084860312156200017d576200017c620000fe565b5b5f6200018c868287016200014d565b93505060206200019f868287016200014d565b9250506040620001b2868287016200014d565b9150509250925092565b610f3780620001ca5f395ff3fe608060405234801561000f575f80fd5b506004361061007b575f3560e01c8063527bae7011610059578063527bae70146100e957806383aa9af014610105578063955e535214610123578063c5f60e82146101415761007b565b8063150b7a021461007f57806332d015d0146100af5780634509b2f3146100cd575b5f80fd5b61009960048036038101906100949190610664565b61015f565b6040516100a6919061071e565b60405180910390f35b6100b7610172565b6040516100c49190610792565b60405180910390f35b6100e760048036038101906100e291906109b8565b610195565b005b61010360048036038101906100fe9190610a2e565b610233565b005b61010d61043b565b60405161011a9190610aba565b60405180910390f35b61012b610460565b6040516101389190610af3565b60405180910390f35b610149610485565b6040516101569190610b1b565b60405180910390f35b5f63150b7a0260e01b9050949350505050565b5f8054906101000a900473ffffffffffffffffffffffffffffffffffffffff1681565b5f8054906101000a900473ffffffffffffffffffffffffffffffffffffffff1673ffffffffffffffffffffffffffffffffffffffff1662c7373083836040518363ffffffff1660e01b81526004016101ee929190610cf2565b6020604051808303815f875af115801561020a573d5f803e3d5ffd5b505050506040513d601f19601f8201168201806040525081019061022e9190610d3b565b505050565b60c88214610275577f97ee46f7194f639c7b6471505c85b50571d2aef02e945d77a3d11c5ed7f44c8360405161026890610db0565b60405180910390a1610436565b5f60015f9054906101000a900473ffffffffffffffffffffffffffffffffffffffff1673ffffffffffffffffffffffffffffffffffffffff1663298967e4836040518263ffffffff1660e01b81526004016102d09190610e18565b602060405180830381865afa1580156102eb573d5f803e3d5ffd5b505050506040513d601f19601f8201168201806040525081019061030f9190610d3b565b90505f8114801561032057505f8251115b5060058111156103fe575f30905060025f9054906101000a900473ffffffffffffffffffffffffffffffffffffffff1673ffffffffffffffffffffffffffffffffffffffff166340d097c3826040518263ffffffff1660e01b81526004016103889190610e5a565b5f604051808303815f87803b15801561039f575f80fd5b505af11580156103b1573d5f803e3d5ffd5b505050508073ffffffffffffffffffffffffffffffffffffffff167f84a08c3c4406f3215cfe0f7a9878a203bb7d60ff121b4b70a54ac7c6670bbf6960405160405180910390a250610434565b7f97ee46f7194f639c7b6471505c85b50571d2aef02e945d77a3d11c5ed7f44c8360405161042b90610ee3565b60405180910390a15b505b505050565b60015f9054906101000a900473ffffffffffffffffffffffffffffffffffffffff1681565b60025f9054906101000a900473ffffffffffffffffffffffffffffffffffffffff1681565b600581565b5f604051905090565b5f80fd5b5f80fd5b5f73ffffffffffffffffffffffffffffffffffffffff82169050919050565b5f6104c48261049b565b9050919050565b6104d4816104ba565b81146104de575f80fd5b50565b5f813590506104ef816104cb565b92915050565b5f819050919050565b610507816104f5565b8114610511575f80fd5b50565b5f81359050610522816104fe565b92915050565b5f80fd5b5f80fd5b5f601f19601f8301169050919050565b7f4e487b71000000000000000000000000000000000000000000000000000000005f52604160045260245ffd5b61057682610530565b810181811067ffffffffffffffff8211171561059557610594610540565b5b80604052505050565b5f6105a761048a565b90506105b3828261056d565b919050565b5f67ffffffffffffffff8211156105d2576105d1610540565b5b6105db82610530565b9050602081019050919050565b828183375f83830152505050565b5f610608610603846105b8565b61059e565b9050828152602081018484840111156106245761062361052c565b5b61062f8482856105e8565b509392505050565b5f82601f83011261064b5761064a610528565b5b813561065b8482602086016105f6565b91505092915050565b5f805f806080858703121561067c5761067b610493565b5b5f610689878288016104e1565b945050602061069a878288016104e1565b93505060406106ab87828801610514565b925050606085013567ffffffffffffffff8111156106cc576106cb610497565b5b6106d887828801610637565b91505092959194509250565b5f7fffffffff0000000000000000000000000000000000000000000000000000000082169050919050565b610718816106e4565b82525050565b5f6020820190506107315f83018461070f565b92915050565b5f819050919050565b5f61075a6107556107508461049b565b610737565b61049b565b9050919050565b5f61076b82610740565b9050919050565b5f61077c82610761565b9050919050565b61078c81610772565b82525050565b5f6020820190506107a55f830184610783565b92915050565b5f67ffffffffffffffff8211156107c5576107c4610540565b5b6107ce82610530565b9050602081019050919050565b5f6107ed6107e8846107ab565b61059e565b9050828152602081018484840111156108095761080861052c565b5b6108148482856105e8565b509392505050565b5f82601f8301126108305761082f610528565b5b81356108408482602086016107db565b91505092915050565b5f67ffffffffffffffff82111561086357610862610540565b5b602082029050602081019050919050565b5f80fd5b5f80fd5b5f80fd5b5f6040828403121561089557610894610878565b5b61089f604061059e565b90505f82013567ffffffffffffffff8111156108be576108bd61087c565b5b6108ca8482850161081c565b5f83015250602082013567ffffffffffffffff8111156108ed576108ec61087c565b5b6108f98482850161081c565b60208301525092915050565b5f61091761091284610849565b61059e565b9050808382526020820190506020840283018581111561093a57610939610874565b5b835b8181101561098157803567ffffffffffffffff81111561095f5761095e610528565b5b80860161096c8982610880565b8552602085019450505060208101905061093c565b5050509392505050565b5f82601f83011261099f5761099e610528565b5b81356109af848260208601610905565b91505092915050565b5f80604083850312156109ce576109cd610493565b5b5f83013567ffffffffffffffff8111156109eb576109ea610497565b5b6109f78582860161081c565b925050602083013567ffffffffffffffff811115610a1857610a17610497565b5b610a248582860161098b565b9150509250929050565b5f805f60608486031215610a4557610a44610493565b5b5f610a5286828701610514565b9350506020610a6386828701610514565b925050604084013567ffffffffffffffff811115610a8457610a83610497565b5b610a908682870161081c565b9150509250925092565b5f610aa482610761565b9050919050565b610ab481610a9a565b82525050565b5f602082019050610acd5f830184610aab565b92915050565b5f610add82610761565b9050919050565b610aed81610ad3565b82525050565b5f602082019050610b065f830184610ae4565b92915050565b610b15816104f5565b82525050565b5f602082019050610b2e5f830184610b0c565b92915050565b5f81519050919050565b5f82825260208201905092915050565b5f5b83811015610b6b578082015181840152602081019050610b50565b5f8484015250505050565b5f610b8082610b34565b610b8a8185610b3e565b9350610b9a818560208601610b4e565b610ba381610530565b840191505092915050565b5f81519050919050565b5f82825260208201905092915050565b5f819050602082019050919050565b5f82825260208201905092915050565b5f610bf182610b34565b610bfb8185610bd7565b9350610c0b818560208601610b4e565b610c1481610530565b840191505092915050565b5f604083015f8301518482035f860152610c398282610be7565b91505060208301518482036020860152610c538282610be7565b9150508091505092915050565b5f610c6b8383610c1f565b905092915050565b5f602082019050919050565b5f610c8982610bae565b610c938185610bb8565b935083602082028501610ca585610bc8565b805f5b85811015610ce05784840389528151610cc18582610c60565b9450610ccc83610c73565b925060208a01995050600181019050610ca8565b50829750879550505050505092915050565b5f6040820190508181035f830152610d0a8185610b76565b90508181036020830152610d1e8184610c7f565b90509392505050565b5f81519050610d35816104fe565b92915050565b5f60208284031215610d5057610d4f610493565b5b5f610d5d84828501610d27565b91505092915050565b7f4150492072657175657374206661696c65642e000000000000000000000000005f82015250565b5f610d9a601383610b3e565b9150610da582610d66565b602082019050919050565b5f6020820190508181035f830152610dc781610d8e565b9050919050565b7f7261696e66616c6c5f6d6d0000000000000000000000000000000000000000005f82015250565b5f610e02600b83610b3e565b9150610e0d82610dce565b602082019050919050565b5f6040820190508181035f830152610e308184610b76565b90508181036020830152610e4381610df6565b905092915050565b610e54816104ba565b82525050565b5f602082019050610e6d5f830184610e4b565b92915050565b7f5261696e66616c6c2069732062656c6f77207468726573686f6c642e204e6f205f8201527f4e4654206d696e7465642e000000000000000000000000000000000000000000602082015250565b5f610ecd602b83610b3e565b9150610ed882610e73565b604082019050919050565b5f6020820190508181035f830152610efa81610ec1565b905091905056fea2646970667358221220f616d7986c3e6995645349c0d1c13cbf8a9516057b31fd09c397faa9d274c25964736f6c63430008180033","linkReferences":{}},"methodIdentifiers":{"RAINFALL_THRESHOLD()":"c5f60e82","_handleWeatherResponse(uint256,uint256,string)":"527bae70","checkWeatherAndMint(string,(string,string)[])":"4509b2f3","fusionLinker()":"32d015d0","onERC721Received(address,address,uint256,bytes)":"150b7a02","rainyDayNFT()":"955e5352","sanctifier()":"83aa9af0"},"id":0}