{"abi":[{"type":"constructor","inputs":[{"name":"_linkerAddress","type":"address","internalType":"address"},{"name":"_sanctifierAddress","type":"address","internalType":"address"},{"name":"_nftAddress","type":"address","internalType":"address"}],"stateMutability":"nonpayable"},{"type":"function","name":"RAINFALL_THRESHOLD","inputs":[],"outputs":[{"name":"","type":"uint256","internalType":"uint256"}],"stateMutability":"view"},{"type":"function","name":"_handleWeatherResponse","inputs":[{"name":"","type":"uint256","internalType":"uint256"},{"name":"_statusCode","type":"uint256","internalType":"uint256"},{"name":"_responseBody","type":"string","internalType":"string"}],"outputs":[],"stateMutability":"nonpayable"},{"type":"function","name":"checkWeatherAndMint","inputs":[{"name":"_apiUrl","type":"string","internalType":"string"}],"outputs":[],"stateMutability":"nonpayable"},{"type":"function","name":"fusionLinker","inputs":[],"outputs":[{"name":"","type":"address","internalType":"contract FusionLinker"}],"stateMutability":"view"},{"type":"function","name":"onERC721Received","inputs":[{"name":"","type":"address","internalType":"address"},{"name":"","type":"address","internalType":"address"},{"name":"","type":"uint256","internalType":"uint256"},{"name":"","type":"bytes","internalType":"bytes"}],"outputs":[{"name":"","type":"bytes4","internalType":"bytes4"}],"stateMutability":"nonpayable"},{"type":"function","name":"rainyDayNFT","inputs":[],"outputs":[{"name":"","type":"address","internalType":"contract RainyDayNFT"}],"stateMutability":"view"},{"type":"function","name":"sanctifier","inputs":[],"outputs":[{"name":"","type":"address","internalType":"contract Sanctifier"}],"stateMutability":"view"},{"type":"event","name":"MintingTriggered","inputs":[{"name":"recipient","type":"address","indexed":true,"internalType":"address"}],"anonymous":false},{"type":"event","name":"WeatherCheckResult","inputs":[{"name":"message","type":"string","indexed":false,"internalType":"string"}],"anonymous":false}],"bytecode":{"object":"0x608060405234801562000010575f80fd5b506040516200114938038062001149833981810160405281019062000036919062000163565b825f806101000a81548173ffffffffffffffffffffffffffffffffffffffff021916908373ffffffffffffffffffffffffffffffffffffffff1602179055508160015f6101000a81548173ffffffffffffffffffffffffffffffffffffffff021916908373ffffffffffffffffffffffffffffffffffffffff1602179055508060025f6101000a81548173ffffffffffffffffffffffffffffffffffffffff021916908373ffffffffffffffffffffffffffffffffffffffff160217905550505050620001bc565b5f80fd5b5f73ffffffffffffffffffffffffffffffffffffffff82169050919050565b5f6200012d8262000102565b9050919050565b6200013f8162000121565b81146200014a575f80fd5b50565b5f815190506200015d8162000134565b92915050565b5f805f606084860312156200017d576200017c620000fe565b5b5f6200018c868287016200014d565b93505060206200019f868287016200014d565b9250506040620001b2868287016200014d565b9150509250925092565b610f7f80620001ca5f395ff3fe608060405234801561000f575f80fd5b506004361061007b575f3560e01c8063527bae7011610059578063527bae70146100e957806383aa9af014610105578063955e535214610123578063c5f60e82146101415761007b565b8063150b7a021461007f578063194a9950146100af57806332d015d0146100cb575b5f80fd5b61009960048036038101906100949190610778565b61015f565b6040516100a69190610832565b60405180910390f35b6100c960048036038101906100c491906108e9565b610172565b005b6100d361020e565b6040516100e0919061098b565b60405180910390f35b61010360048036038101906100fe91906109a4565b610231565b005b61010d61047c565b60405161011a9190610a30565b60405180910390f35b61012b6104a1565b6040516101389190610a69565b60405180910390f35b6101496104c6565b6040516101569190610a91565b60405180910390f35b5f63150b7a0260e01b9050949350505050565b5f8054906101000a900473ffffffffffffffffffffffffffffffffffffffff1673ffffffffffffffffffffffffffffffffffffffff1663d246d0b9826040518263ffffffff1660e01b81526004016101ca9190610b24565b6020604051808303815f875af11580156101e6573d5f803e3d5ffd5b505050506040513d601f19601f8201168201806040525081019061020a9190610b58565b5050565b5f8054906101000a900473ffffffffffffffffffffffffffffffffffffffff1681565b60c88214610273577f97ee46f7194f639c7b6471505c85b50571d2aef02e945d77a3d11c5ed7f44c8360405161026690610bcd565b60405180910390a1610477565b5f60015f9054906101000a900473ffffffffffffffffffffffffffffffffffffffff1673ffffffffffffffffffffffffffffffffffffffff1663c25bcda9836040518263ffffffff1660e01b81526004016102ce9190610c35565b5f60405180830381865afa1580156102e8573d5f803e3d5ffd5b505050506040513d5f823e3d601f19601f820116820180604052508101906103109190610cd6565b90505f815103610355577f97ee46f7194f639c7b6471505c85b50571d2aef02e945d77a3d11c5ed7f44c8360405161034790610d67565b60405180910390a150610477565b5f61035f826104cb565b9050600581111561043e575f30905060025f9054906101000a900473ffffffffffffffffffffffffffffffffffffffff1673ffffffffffffffffffffffffffffffffffffffff166340d097c3826040518263ffffffff1660e01b81526004016103c89190610d94565b5f604051808303815f87803b1580156103df575f80fd5b505af11580156103f1573d5f803e3d5ffd5b505050508073ffffffffffffffffffffffffffffffffffffffff167f84a08c3c4406f3215cfe0f7a9878a203bb7d60ff121b4b70a54ac7c6670bbf6960405160405180910390a250610474565b7f97ee46f7194f639c7b6471505c85b50571d2aef02e945d77a3d11c5ed7f44c8360405161046b90610e1d565b60405180910390a15b50505b505050565b60015f9054906101000a900473ffffffffffffffffffffffffffffffffffffffff1681565b60025f9054906101000a900473ffffffffffffffffffffffffffffffffffffffff1681565b600581565b5f805f90505f8390505f5b81518110156105935760308282815181106104f4576104f3610e3b565b5b602001015160f81c60f81b60f81c60ff16101580156105375750603982828151811061052357610522610e3b565b5b602001015160f81c60f81b60f81c60ff1611155b1561058657603082828151811061055157610550610e3b565b5b602001015160f81c60f81b60f81c6105699190610ea1565b60ff16600a846105799190610ed5565b6105839190610f16565b92505b80806001019150506104d6565b508192505050919050565b5f604051905090565b5f80fd5b5f80fd5b5f73ffffffffffffffffffffffffffffffffffffffff82169050919050565b5f6105d8826105af565b9050919050565b6105e8816105ce565b81146105f2575f80fd5b50565b5f81359050610603816105df565b92915050565b5f819050919050565b61061b81610609565b8114610625575f80fd5b50565b5f8135905061063681610612565b92915050565b5f80fd5b5f80fd5b5f601f19601f8301169050919050565b7f4e487b71000000000000000000000000000000000000000000000000000000005f52604160045260245ffd5b61068a82610644565b810181811067ffffffffffffffff821117156106a9576106a8610654565b5b80604052505050565b5f6106bb61059e565b90506106c78282610681565b919050565b5f67ffffffffffffffff8211156106e6576106e5610654565b5b6106ef82610644565b9050602081019050919050565b828183375f83830152505050565b5f61071c610717846106cc565b6106b2565b90508281526020810184848401111561073857610737610640565b5b6107438482856106fc565b509392505050565b5f82601f83011261075f5761075e61063c565b5b813561076f84826020860161070a565b91505092915050565b5f805f80608085870312156107905761078f6105a7565b5b5f61079d878288016105f5565b94505060206107ae878288016105f5565b93505060406107bf87828801610628565b925050606085013567ffffffffffffffff8111156107e0576107df6105ab565b5b6107ec8782880161074b565b91505092959194509250565b5f7fffffffff0000000000000000000000000000000000000000000000000000000082169050919050565b61082c816107f8565b82525050565b5f6020820190506108455f830184610823565b92915050565b5f67ffffffffffffffff82111561086557610864610654565b5b61086e82610644565b9050602081019050919050565b5f61088d6108888461084b565b6106b2565b9050828152602081018484840111156108a9576108a8610640565b5b6108b48482856106fc565b509392505050565b5f82601f8301126108d0576108cf61063c565b5b81356108e084826020860161087b565b91505092915050565b5f602082840312156108fe576108fd6105a7565b5b5f82013567ffffffffffffffff81111561091b5761091a6105ab565b5b610927848285016108bc565b91505092915050565b5f819050919050565b5f61095361094e610949846105af565b610930565b6105af565b9050919050565b5f61096482610939565b9050919050565b5f6109758261095a565b9050919050565b6109858161096b565b82525050565b5f60208201905061099e5f83018461097c565b92915050565b5f805f606084860312156109bb576109ba6105a7565b5b5f6109c886828701610628565b93505060206109d986828701610628565b925050604084013567ffffffffffffffff8111156109fa576109f96105ab565b5b610a06868287016108bc565b9150509250925092565b5f610a1a8261095a565b9050919050565b610a2a81610a10565b82525050565b5f602082019050610a435f830184610a21565b92915050565b5f610a538261095a565b9050919050565b610a6381610a49565b82525050565b5f602082019050610a7c5f830184610a5a565b92915050565b610a8b81610609565b82525050565b5f602082019050610aa45f830184610a82565b92915050565b5f81519050919050565b5f82825260208201905092915050565b5f5b83811015610ae1578082015181840152602081019050610ac6565b5f8484015250505050565b5f610af682610aaa565b610b008185610ab4565b9350610b10818560208601610ac4565b610b1981610644565b840191505092915050565b5f6020820190508181035f830152610b3c8184610aec565b905092915050565b5f81519050610b5281610612565b92915050565b5f60208284031215610b6d57610b6c6105a7565b5b5f610b7a84828501610b44565b91505092915050565b7f4150492072657175657374206661696c65642e000000000000000000000000005f82015250565b5f610bb7601383610ab4565b9150610bc282610b83565b602082019050919050565b5f6020820190508181035f830152610be481610bab565b9050919050565b7f7261696e66616c6c5f6d6d0000000000000000000000000000000000000000005f82015250565b5f610c1f600b83610ab4565b9150610c2a82610beb565b602082019050919050565b5f6040820190508181035f830152610c4d8184610aec565b90508181036020830152610c6081610c13565b905092915050565b5f610c7a610c758461084b565b6106b2565b905082815260208101848484011115610c9657610c95610640565b5b610ca1848285610ac4565b509392505050565b5f82601f830112610cbd57610cbc61063c565b5b8151610ccd848260208601610c68565b91505092915050565b5f60208284031215610ceb57610cea6105a7565b5b5f82015167ffffffffffffffff811115610d0857610d076105ab565b5b610d1484828501610ca9565b91505092915050565b7f4661696c656420746f207061727365207261696e66616c6c20646174612e00005f82015250565b5f610d51601e83610ab4565b9150610d5c82610d1d565b602082019050919050565b5f6020820190508181035f830152610d7e81610d45565b9050919050565b610d8e816105ce565b82525050565b5f602082019050610da75f830184610d85565b92915050565b7f5261696e66616c6c2069732062656c6f77207468726573686f6c642e204e6f205f8201527f4e4654206d696e7465642e000000000000000000000000000000000000000000602082015250565b5f610e07602b83610ab4565b9150610e1282610dad565b604082019050919050565b5f6020820190508181035f830152610e3481610dfb565b9050919050565b7f4e487b71000000000000000000000000000000000000000000000000000000005f52603260045260245ffd5b5f60ff82169050919050565b7f4e487b71000000000000000000000000000000000000000000000000000000005f52601160045260245ffd5b5f610eab82610e68565b9150610eb683610e68565b9250828203905060ff811115610ecf57610ece610e74565b5b92915050565b5f610edf82610609565b9150610eea83610609565b9250828202610ef881610609565b91508282048414831517610f0f57610f0e610e74565b5b5092915050565b5f610f2082610609565b9150610f2b83610609565b9250828201905080821115610f4357610f42610e74565b5b9291505056fea26469706673582212200fac6c391c67f8fe2685eaae99b26d02fd2b187b98aded8b65039d656bbdd16d64736f6c63430008180033","linkReferences":{}},"methodIdentifiers":{"RAINFALL_THRESHOLD()":"c5f60e82","_handleWeatherResponse(uint256,uint256,string)":"527bae70","checkWeatherAndMint(string)":"194a9950","fusionLinker()":"32d015d0","onERC721Received(address,address,uint256,bytes)":"150b7a02","rainyDayNFT()":"955e5352","sanctifier()":"83aa9af0"},"id":0}