{"abi":[{"type":"constructor","inputs":[],"stateMutability":"nonpayable"},{"type":"function","name":"UPGRADE_INTERFACE_VERSION","inputs":[],"outputs":[{"name":"","type":"string","internalType":"string"}],"stateMutability":"view"},{"type":"function","name":"fetch","inputs":[{"name":"_url","type":"string","internalType":"string"}],"outputs":[{"name":"","type":"uint256","internalType":"uint256"}],"stateMutability":"nonpayable"},{"type":"function","name":"initialize","inputs":[{"name":"initialOwner","type":"address","internalType":"address"}],"outputs":[],"stateMutability":"nonpayable"},{"type":"function","name":"owner","inputs":[],"outputs":[{"name":"","type":"address","internalType":"address"}],"stateMutability":"view"},{"type":"function","name":"post","inputs":[{"name":"_url","type":"string","internalType":"string"},{"name":"_body","type":"bytes","internalType":"bytes"}],"outputs":[{"name":"","type":"uint256","internalType":"uint256"}],"stateMutability":"nonpayable"},{"type":"function","name":"proxiableUUID","inputs":[],"outputs":[{"name":"","type":"bytes32","internalType":"bytes32"}],"stateMutability":"view"},{"type":"function","name":"renounceOwnership","inputs":[],"outputs":[],"stateMutability":"nonpayable"},{"type":"function","name":"requests","inputs":[{"name":"","type":"uint256","internalType":"uint256"}],"outputs":[{"name":"initiator","type":"address","internalType":"address"},{"name":"url","type":"string","internalType":"string"},{"name":"body","type":"bytes","internalType":"bytes"}],"stateMutability":"view"},{"type":"function","name":"transferOwnership","inputs":[{"name":"newOwner","type":"address","internalType":"address"}],"outputs":[],"stateMutability":"nonpayable"},{"type":"function","name":"upgradeToAndCall","inputs":[{"name":"newImplementation","type":"address","internalType":"address"},{"name":"data","type":"bytes","internalType":"bytes"}],"outputs":[],"stateMutability":"payable"},{"type":"event","name":"Initialized","inputs":[{"name":"version","type":"uint64","indexed":false,"internalType":"uint64"}],"anonymous":false},{"type":"event","name":"OwnershipTransferred","inputs":[{"name":"previousOwner","type":"address","indexed":true,"internalType":"address"},{"name":"newOwner","type":"address","indexed":true,"internalType":"address"}],"anonymous":false},{"type":"event","name":"ResponseReceived","inputs":[{"name":"requestId","type":"uint256","indexed":true,"internalType":"uint256"},{"name":"statusCode","type":"uint256","indexed":false,"internalType":"uint256"},{"name":"responseBody","type":"string","indexed":false,"internalType":"string"}],"anonymous":false},{"type":"event","name":"Upgraded","inputs":[{"name":"implementation","type":"address","indexed":true,"internalType":"address"}],"anonymous":false},{"type":"error","name":"AddressEmptyCode","inputs":[{"name":"target","type":"address","internalType":"address"}]},{"type":"error","name":"ERC1967InvalidImplementation","inputs":[{"name":"implementation","type":"address","internalType":"address"}]},{"type":"error","name":"ERC1967NonPayable","inputs":[]},{"type":"error","name":"FailedCall","inputs":[]},{"type":"error","name":"InvalidInitialization","inputs":[]},{"type":"error","name":"NotInitializing","inputs":[]},{"type":"error","name":"OwnableInvalidOwner","inputs":[{"name":"owner","type":"address","internalType":"address"}]},{"type":"error","name":"OwnableUnauthorizedAccount","inputs":[{"name":"account","type":"address","internalType":"address"}]},{"type":"error","name":"UUPSUnauthorizedCallContext","inputs":[]},{"type":"error","name":"UUPSUnsupportedProxiableUUID","inputs":[{"name":"slot","type":"bytes32","internalType":"bytes32"}]}],"bytecode":{"object":"0x60a06040523073ffffffffffffffffffffffffffffffffffffffff1660809073ffffffffffffffffffffffffffffffffffffffff1681525034801562000043575f80fd5b50620000546200005a60201b60201c565b620001e1565b5f6200006b6200015e60201b60201c565b9050805f0160089054906101000a900460ff1615620000b6576040517ff92ee8a900000000000000000000000000000000000000000000000000000000815260040160405180910390fd5b67ffffffffffffffff8016815f015f9054906101000a900467ffffffffffffffff1667ffffffffffffffff16146200015b5767ffffffffffffffff815f015f6101000a81548167ffffffffffffffff021916908367ffffffffffffffff1602179055507fc7f505b2f371ae2175ee4913f4499e1f2633a7b5936321eed1cdaeb6115181d267ffffffffffffffff604051620001529190620001c6565b60405180910390a15b50565b5f80620001706200017960201b60201c565b90508091505090565b5f7ff0c57e16840df040f15088dc2f81fe391c3923bec73e23a9662efc9c229c6a005f1b905090565b5f67ffffffffffffffff82169050919050565b620001c081620001a2565b82525050565b5f602082019050620001db5f830184620001b5565b92915050565b608051611cfc620002085f395f8181610880015281816108d50152610a8f0152611cfc5ff3fe608060405260043610610090575f3560e01c8063ad3cb1cc11610058578063ad3cb1cc14610158578063b6ae042514610182578063c4d66de8146101be578063d246d0b9146101e6578063f2fde38b1461022257610090565b80634f1ef2861461009457806352d1902d146100b0578063715018a6146100da57806381d12c58146100f05780638da5cb5b1461012e575b5f80fd5b6100ae60048036038101906100a991906112df565b61024a565b005b3480156100bb575f80fd5b506100c4610269565b6040516100d19190611351565b60405180910390f35b3480156100e5575f80fd5b506100ee61029a565b005b3480156100fb575f80fd5b506101166004803603810190610111919061139d565b6102ad565b604051610125939291906114a3565b60405180910390f35b348015610139575f80fd5b506101426103fe565b60405161014f91906114e6565b60405180910390f35b348015610163575f80fd5b5061016c610433565b60405161017991906114ff565b60405180910390f35b34801561018d575f80fd5b506101a860048036038101906101a391906115bd565b61046c565b6040516101b59190611642565b60405180910390f35b3480156101c9575f80fd5b506101e460048036038101906101df919061165b565b610568565b005b3480156101f1575f80fd5b5061020c60048036038101906102079190611686565b6106f1565b6040516102199190611642565b60405180910390f35b34801561022d575f80fd5b506102486004803603810190610243919061165b565b6107fa565b005b61025261087e565b61025b82610964565b610265828261096f565b5050565b5f610272610a8d565b7f360894a13ba1a3210667c828492db98dca3e2076cc3735a920a3ca505d382bbc5f1b905090565b6102a2610b14565b6102ab5f610b9b565b565b6001602052805f5260405f205f91509050805f015f9054906101000a900473ffffffffffffffffffffffffffffffffffffffff16908060010180546102f1906116fa565b80601f016020809104026020016040519081016040528092919081815260200182805461031d906116fa565b80156103685780601f1061033f57610100808354040283529160200191610368565b820191905f5260205f20905b81548152906001019060200180831161034b57829003601f168201915b50505050509080600201805461037d906116fa565b80601f01602080910402602001604051908101604052809291908181526020018280546103a9906116fa565b80156103f45780601f106103cb576101008083540402835291602001916103f4565b820191905f5260205f20905b8154815290600101906020018083116103d757829003601f168201915b5050505050905083565b5f80610408610c6c565b9050805f015f9054906101000a900473ffffffffffffffffffffffffffffffffffffffff1691505090565b6040518060400160405280600581526020017f352e302e3000000000000000000000000000000000000000000000000000000081525081565b5f805f8081548092919061047f90611757565b91905055905060405180606001604052803373ffffffffffffffffffffffffffffffffffffffff1681526020018581526020018481525060015f8381526020019081526020015f205f820151815f015f6101000a81548173ffffffffffffffffffffffffffffffffffffffff021916908373ffffffffffffffffffffffffffffffffffffffff1602179055506020820151816001019081610520919061193b565b5060408201518160020190816105369190611a62565b5090505061055e8160c86040518060600160405280602f8152602001611c6a602f9139610c93565b8091505092915050565b5f610571610cd2565b90505f815f0160089054906101000a900460ff161590505f825f015f9054906101000a900467ffffffffffffffff1690505f808267ffffffffffffffff161480156105b95750825b90505f60018367ffffffffffffffff161480156105ec57505f3073ffffffffffffffffffffffffffffffffffffffff163b145b9050811580156105fa575080155b15610631576040517ff92ee8a900000000000000000000000000000000000000000000000000000000815260040160405180910390fd5b6001855f015f6101000a81548167ffffffffffffffff021916908367ffffffffffffffff160217905550831561067e576001855f0160086101000a81548160ff0219169083151502179055505b61068786610ce5565b61068f610cf9565b83156106e9575f855f0160086101000a81548160ff0219169083151502179055507fc7f505b2f371ae2175ee4913f4499e1f2633a7b5936321eed1cdaeb6115181d260016040516106e09190611b7d565b60405180910390a15b505050505050565b5f805f8081548092919061070490611757565b91905055905060405180606001604052803373ffffffffffffffffffffffffffffffffffffffff16815260200184815260200160405180602001604052805f81525081525060015f8381526020019081526020015f205f820151815f015f6101000a81548173ffffffffffffffffffffffffffffffffffffffff021916908373ffffffffffffffffffffffffffffffffffffffff16021790555060208201518160010190816107b3919061193b565b5060408201518160020190816107c99190611a62565b509050506107f18160c86040518060600160405280602e8152602001611c99602e9139610c93565b80915050919050565b610802610b14565b5f73ffffffffffffffffffffffffffffffffffffffff168173ffffffffffffffffffffffffffffffffffffffff1603610872575f6040517f1e4fbdf700000000000000000000000000000000000000000000000000000000815260040161086991906114e6565b60405180910390fd5b61087b81610b9b565b50565b7f000000000000000000000000000000000000000000000000000000000000000073ffffffffffffffffffffffffffffffffffffffff163073ffffffffffffffffffffffffffffffffffffffff16148061092b57507f000000000000000000000000000000000000000000000000000000000000000073ffffffffffffffffffffffffffffffffffffffff16610912610d03565b73ffffffffffffffffffffffffffffffffffffffff1614155b15610962576040517fe07c8dba00000000000000000000000000000000000000000000000000000000815260040160405180910390fd5b565b61096c610b14565b50565b8173ffffffffffffffffffffffffffffffffffffffff166352d1902d6040518163ffffffff1660e01b8152600401602060405180830381865afa9250505080156109d757506040513d601f19601f820116820180604052508101906109d49190611bc0565b60015b610a1857816040517f4c9c8ce3000000000000000000000000000000000000000000000000000000008152600401610a0f91906114e6565b60405180910390fd5b7f360894a13ba1a3210667c828492db98dca3e2076cc3735a920a3ca505d382bbc5f1b8114610a7e57806040517faa1d49a4000000000000000000000000000000000000000000000000000000008152600401610a759190611351565b60405180910390fd5b610a888383610d56565b505050565b7f000000000000000000000000000000000000000000000000000000000000000073ffffffffffffffffffffffffffffffffffffffff163073ffffffffffffffffffffffffffffffffffffffff1614610b12576040517fe07c8dba00000000000000000000000000000000000000000000000000000000815260040160405180910390fd5b565b610b1c610dc8565b73ffffffffffffffffffffffffffffffffffffffff16610b3a6103fe565b73ffffffffffffffffffffffffffffffffffffffff1614610b9957610b5d610dc8565b6040517f118cdaa7000000000000000000000000000000000000000000000000000000008152600401610b9091906114e6565b60405180910390fd5b565b5f610ba4610c6c565b90505f815f015f9054906101000a900473ffffffffffffffffffffffffffffffffffffffff16905082825f015f6101000a81548173ffffffffffffffffffffffffffffffffffffffff021916908373ffffffffffffffffffffffffffffffffffffffff1602179055508273ffffffffffffffffffffffffffffffffffffffff168173ffffffffffffffffffffffffffffffffffffffff167f8be0079c531659141344cd1fd0a4f28419497f9722a3daafe3b4186f6b6457e060405160405180910390a3505050565b5f7f9016d09d72d40fdae2fd8ceac6b6234c7706214fd39c1cd1e609a0528c199300905090565b827fb0239bfc10b7737184b67ddc7de7729284a05b54b4383288e2f7b8084a8517ef8383604051610cc5929190611beb565b60405180910390a2505050565b5f80610cdc610dcf565b90508091505090565b610ced610df8565b610cf681610e38565b50565b610d01610df8565b565b5f610d2f7f360894a13ba1a3210667c828492db98dca3e2076cc3735a920a3ca505d382bbc5f1b610ebc565b5f015f9054906101000a900473ffffffffffffffffffffffffffffffffffffffff16905090565b610d5f82610ec5565b8173ffffffffffffffffffffffffffffffffffffffff167fbc7cd75a20ee27fd9adebab32041f755214dbc6bffa90cc0225b39da2e5c2d3b60405160405180910390a25f81511115610dbb57610db58282610f8e565b50610dc4565b610dc361100e565b5b5050565b5f33905090565b5f7ff0c57e16840df040f15088dc2f81fe391c3923bec73e23a9662efc9c229c6a005f1b905090565b610e0061104a565b610e36576040517fd7e6bcf800000000000000000000000000000000000000000000000000000000815260040160405180910390fd5b565b610e40610df8565b5f73ffffffffffffffffffffffffffffffffffffffff168173ffffffffffffffffffffffffffffffffffffffff1603610eb0575f6040517f1e4fbdf7000000000000000000000000000000000000000000000000000000008152600401610ea791906114e6565b60405180910390fd5b610eb981610b9b565b50565b5f819050919050565b5f8173ffffffffffffffffffffffffffffffffffffffff163b03610f2057806040517f4c9c8ce3000000000000000000000000000000000000000000000000000000008152600401610f1791906114e6565b60405180910390fd5b80610f4c7f360894a13ba1a3210667c828492db98dca3e2076cc3735a920a3ca505d382bbc5f1b610ebc565b5f015f6101000a81548173ffffffffffffffffffffffffffffffffffffffff021916908373ffffffffffffffffffffffffffffffffffffffff16021790555050565b60605f808473ffffffffffffffffffffffffffffffffffffffff1684604051610fb79190611c53565b5f60405180830381855af49150503d805f8114610fef576040519150601f19603f3d011682016040523d82523d5f602084013e610ff4565b606091505b5091509150611004858383611068565b9250505092915050565b5f341115611048576040517fb398979f00000000000000000000000000000000000000000000000000000000815260040160405180910390fd5b565b5f611053610cd2565b5f0160089054906101000a900460ff16905090565b60608261107d57611078826110f5565b6110ed565b5f82511480156110a357505f8473ffffffffffffffffffffffffffffffffffffffff163b145b156110e557836040517f9996b3150000000000000000000000000000000000000000000000000000000081526004016110dc91906114e6565b60405180910390fd5b8190506110ee565b5b9392505050565b5f8151111561110657805160208201fd5b6040517fd6bda27500000000000000000000000000000000000000000000000000000000815260040160405180910390fd5b5f604051905090565b5f80fd5b5f80fd5b5f73ffffffffffffffffffffffffffffffffffffffff82169050919050565b5f61117282611149565b9050919050565b61118281611168565b811461118c575f80fd5b50565b5f8135905061119d81611179565b92915050565b5f80fd5b5f80fd5b5f601f19601f8301169050919050565b7f4e487b71000000000000000000000000000000000000000000000000000000005f52604160045260245ffd5b6111f1826111ab565b810181811067ffffffffffffffff821117156112105761120f6111bb565b5b80604052505050565b5f611222611138565b905061122e82826111e8565b919050565b5f67ffffffffffffffff82111561124d5761124c6111bb565b5b611256826111ab565b9050602081019050919050565b828183375f83830152505050565b5f61128361127e84611233565b611219565b90508281526020810184848401111561129f5761129e6111a7565b5b6112aa848285611263565b509392505050565b5f82601f8301126112c6576112c56111a3565b5b81356112d6848260208601611271565b91505092915050565b5f80604083850312156112f5576112f4611141565b5b5f6113028582860161118f565b925050602083013567ffffffffffffffff81111561132357611322611145565b5b61132f858286016112b2565b9150509250929050565b5f819050919050565b61134b81611339565b82525050565b5f6020820190506113645f830184611342565b92915050565b5f819050919050565b61137c8161136a565b8114611386575f80fd5b50565b5f8135905061139781611373565b92915050565b5f602082840312156113b2576113b1611141565b5b5f6113bf84828501611389565b91505092915050565b6113d181611168565b82525050565b5f81519050919050565b5f82825260208201905092915050565b5f5b8381101561140e5780820151818401526020810190506113f3565b5f8484015250505050565b5f611423826113d7565b61142d81856113e1565b935061143d8185602086016113f1565b611446816111ab565b840191505092915050565b5f81519050919050565b5f82825260208201905092915050565b5f61147582611451565b61147f818561145b565b935061148f8185602086016113f1565b611498816111ab565b840191505092915050565b5f6060820190506114b65f8301866113c8565b81810360208301526114c88185611419565b905081810360408301526114dc818461146b565b9050949350505050565b5f6020820190506114f95f8301846113c8565b92915050565b5f6020820190508181035f8301526115178184611419565b905092915050565b5f67ffffffffffffffff821115611539576115386111bb565b5b611542826111ab565b9050602081019050919050565b5f61156161155c8461151f565b611219565b90508281526020810184848401111561157d5761157c6111a7565b5b611588848285611263565b509392505050565b5f82601f8301126115a4576115a36111a3565b5b81356115b484826020860161154f565b91505092915050565b5f80604083850312156115d3576115d2611141565b5b5f83013567ffffffffffffffff8111156115f0576115ef611145565b5b6115fc85828601611590565b925050602083013567ffffffffffffffff81111561161d5761161c611145565b5b611629858286016112b2565b9150509250929050565b61163c8161136a565b82525050565b5f6020820190506116555f830184611633565b92915050565b5f602082840312156116705761166f611141565b5b5f61167d8482850161118f565b91505092915050565b5f6020828403121561169b5761169a611141565b5b5f82013567ffffffffffffffff8111156116b8576116b7611145565b5b6116c484828501611590565b91505092915050565b7f4e487b71000000000000000000000000000000000000000000000000000000005f52602260045260245ffd5b5f600282049050600182168061171157607f821691505b602082108103611724576117236116cd565b5b50919050565b7f4e487b71000000000000000000000000000000000000000000000000000000005f52601160045260245ffd5b5f6117618261136a565b91507fffffffffffffffffffffffffffffffffffffffffffffffffffffffffffffffff82036117935761179261172a565b5b600182019050919050565b5f819050815f5260205f209050919050565b5f6020601f8301049050919050565b5f82821b905092915050565b5f600883026117fa7fffffffffffffffffffffffffffffffffffffffffffffffffffffffffffffffff826117bf565b61180486836117bf565b95508019841693508086168417925050509392505050565b5f819050919050565b5f61183f61183a6118358461136a565b61181c565b61136a565b9050919050565b5f819050919050565b61185883611825565b61186c61186482611846565b8484546117cb565b825550505050565b5f90565b611880611874565b61188b81848461184f565b505050565b5b818110156118ae576118a35f82611878565b600181019050611891565b5050565b601f8211156118f3576118c48161179e565b6118cd846117b0565b810160208510156118dc578190505b6118f06118e8856117b0565b830182611890565b50505b505050565b5f82821c905092915050565b5f6119135f19846008026118f8565b1980831691505092915050565b5f61192b8383611904565b9150826002028217905092915050565b611944826113d7565b67ffffffffffffffff81111561195d5761195c6111bb565b5b61196782546116fa565b6119728282856118b2565b5f60209050601f8311600181146119a3575f8415611991578287015190505b61199b8582611920565b865550611a02565b601f1984166119b18661179e565b5f5b828110156119d8578489015182556001820191506020850194506020810190506119b3565b868310156119f557848901516119f1601f891682611904565b8355505b6001600288020188555050505b505050505050565b5f819050815f5260205f209050919050565b601f821115611a5d57611a2e81611a0a565b611a37846117b0565b81016020851015611a46578190505b611a5a611a52856117b0565b830182611890565b50505b505050565b611a6b82611451565b67ffffffffffffffff811115611a8457611a836111bb565b5b611a8e82546116fa565b611a99828285611a1c565b5f60209050601f831160018114611aca575f8415611ab8578287015190505b611ac28582611920565b865550611b29565b601f198416611ad886611a0a565b5f5b82811015611aff57848901518255600182019150602085019450602081019050611ada565b86831015611b1c5784890151611b18601f891682611904565b8355505b6001600288020188555050505b505050505050565b5f819050919050565b5f67ffffffffffffffff82169050919050565b5f611b67611b62611b5d84611b31565b61181c565b611b3a565b9050919050565b611b7781611b4d565b82525050565b5f602082019050611b905f830184611b6e565b92915050565b611b9f81611339565b8114611ba9575f80fd5b50565b5f81519050611bba81611b96565b92915050565b5f60208284031215611bd557611bd4611141565b5b5f611be284828501611bac565b91505092915050565b5f604082019050611bfe5f830185611633565b8181036020830152611c108184611419565b90509392505050565b5f81905092915050565b5f611c2d82611451565b611c378185611c19565b9350611c478185602086016113f1565b80840191505092915050565b5f611c5e8284611c23565b91508190509291505056fe7b2273756363657373223a20747275652c202264617461223a20226d6f636b5f706f73745f726573706f6e7365227d7b2273756363657373223a20747275652c202264617461223a20226d6f636b5f6765745f726573706f6e7365227da2646970667358221220d2fae9d2956c8d3d9676a424919de29d0721700708186f85898dbf05595c03b164736f6c63430008180033","linkReferences":{}},"methodIdentifiers":{"UPGRADE_INTERFACE_VERSION()":"ad3cb1cc","fetch(string)":"d246d0b9","initialize(address)":"c4d66de8","owner()":"8da5cb5b","post(string,bytes)":"b6ae0425","proxiableUUID()":"52d1902d","renounceOwnership()":"715018a6","requests(uint256)":"81d12c58","transferOwnership(address)":"f2fde38b","upgradeToAndCall(address,bytes)":"4f1ef286"},"id":48}