{"abi":[{"type":"constructor","inputs":[],"stateMutability":"nonpayable"},{"type":"function","name":"UPGRADE_INTERFACE_VERSION","inputs":[],"outputs":[{"name":"","type":"string","internalType":"string"}],"stateMutability":"view"},{"type":"function","name":"fetch","inputs":[{"name":"_url","type":"string","internalType":"string"}],"outputs":[{"name":"","type":"uint256","internalType":"uint256"}],"stateMutability":"nonpayable"},{"type":"function","name":"initialize","inputs":[{"name":"initialOwner","type":"address","internalType":"address"}],"outputs":[],"stateMutability":"nonpayable"},{"type":"function","name":"owner","inputs":[],"outputs":[{"name":"","type":"address","internalType":"address"}],"stateMutability":"view"},{"type":"function","name":"proxiableUUID","inputs":[],"outputs":[{"name":"","type":"bytes32","internalType":"bytes32"}],"stateMutability":"view"},{"type":"function","name":"renounceOwnership","inputs":[],"outputs":[],"stateMutability":"nonpayable"},{"type":"function","name":"requests","inputs":[{"name":"","type":"uint256","internalType":"uint256"}],"outputs":[{"name":"initiator","type":"address","internalType":"address"},{"name":"url","type":"string","internalType":"string"}],"stateMutability":"view"},{"type":"function","name":"transferOwnership","inputs":[{"name":"newOwner","type":"address","internalType":"address"}],"outputs":[],"stateMutability":"nonpayable"},{"type":"function","name":"upgradeToAndCall","inputs":[{"name":"newImplementation","type":"address","internalType":"address"},{"name":"data","type":"bytes","internalType":"bytes"}],"outputs":[],"stateMutability":"payable"},{"type":"event","name":"Initialized","inputs":[{"name":"version","type":"uint64","indexed":false,"internalType":"uint64"}],"anonymous":false},{"type":"event","name":"OwnershipTransferred","inputs":[{"name":"previousOwner","type":"address","indexed":true,"internalType":"address"},{"name":"newOwner","type":"address","indexed":true,"internalType":"address"}],"anonymous":false},{"type":"event","name":"ResponseReceived","inputs":[{"name":"requestId","type":"uint256","indexed":true,"internalType":"uint256"},{"name":"statusCode","type":"uint256","indexed":false,"internalType":"uint256"},{"name":"responseBody","type":"string","indexed":false,"internalType":"string"}],"anonymous":false},{"type":"event","name":"Upgraded","inputs":[{"name":"implementation","type":"address","indexed":true,"internalType":"address"}],"anonymous":false},{"type":"error","name":"AddressEmptyCode","inputs":[{"name":"target","type":"address","internalType":"address"}]},{"type":"error","name":"ERC1967InvalidImplementation","inputs":[{"name":"implementation","type":"address","internalType":"address"}]},{"type":"error","name":"ERC1967NonPayable","inputs":[]},{"type":"error","name":"FailedCall","inputs":[]},{"type":"error","name":"InvalidInitialization","inputs":[]},{"type":"error","name":"NotInitializing","inputs":[]},{"type":"error","name":"OwnableInvalidOwner","inputs":[{"name":"owner","type":"address","internalType":"address"}]},{"type":"error","name":"OwnableUnauthorizedAccount","inputs":[{"name":"account","type":"address","internalType":"address"}]},{"type":"error","name":"UUPSUnauthorizedCallContext","inputs":[]},{"type":"error","name":"UUPSUnsupportedProxiableUUID","inputs":[{"name":"slot","type":"bytes32","internalType":"bytes32"}]}],"bytecode":{"object":"0x60a06040523073ffffffffffffffffffffffffffffffffffffffff1660809073ffffffffffffffffffffffffffffffffffffffff1681525034801562000043575f80fd5b50620000546200005a60201b60201c565b620001e1565b5f6200006b6200015e60201b60201c565b9050805f0160089054906101000a900460ff1615620000b6576040517ff92ee8a900000000000000000000000000000000000000000000000000000000815260040160405180910390fd5b67ffffffffffffffff8016815f015f9054906101000a900467ffffffffffffffff1667ffffffffffffffff16146200015b5767ffffffffffffffff815f015f6101000a81548167ffffffffffffffff021916908367ffffffffffffffff1602179055507fc7f505b2f371ae2175ee4913f4499e1f2633a7b5936321eed1cdaeb6115181d267ffffffffffffffff604051620001529190620001c6565b60405180910390a15b50565b5f80620001706200017960201b60201c565b90508091505090565b5f7ff0c57e16840df040f15088dc2f81fe391c3923bec73e23a9662efc9c229c6a005f1b905090565b5f67ffffffffffffffff82169050919050565b620001c081620001a2565b82525050565b5f602082019050620001db5f830184620001b5565b92915050565b6080516118d5620002085f395f8181610686015281816106db015261089501526118d55ff3fe608060405260043610610085575f3560e01c80638da5cb5b116100585780638da5cb5b14610122578063ad3cb1cc1461014c578063c4d66de814610176578063d246d0b91461019e578063f2fde38b146101da57610085565b80634f1ef2861461008957806352d1902d146100a5578063715018a6146100cf57806381d12c58146100e5575b5f80fd5b6100a3600480360381019061009e91906110e5565b610202565b005b3480156100b0575f80fd5b506100b9610221565b6040516100c69190611157565b60405180910390f35b3480156100da575f80fd5b506100e3610252565b005b3480156100f0575f80fd5b5061010b600480360381019061010691906111a3565b610265565b604051610119929190611257565b60405180910390f35b34801561012d575f80fd5b5061013661032a565b6040516101439190611285565b60405180910390f35b348015610157575f80fd5b5061016061035f565b60405161016d919061129e565b60405180910390f35b348015610181575f80fd5b5061019c600480360381019061019791906112be565b610398565b005b3480156101a9575f80fd5b506101c460048036038101906101bf9190611387565b610521565b6040516101d191906113dd565b60405180910390f35b3480156101e5575f80fd5b5061020060048036038101906101fb91906112be565b610600565b005b61020a610684565b6102138261076a565b61021d8282610775565b5050565b5f61022a610893565b7f360894a13ba1a3210667c828492db98dca3e2076cc3735a920a3ca505d382bbc5f1b905090565b61025a61091a565b6102635f6109a1565b565b6001602052805f5260405f205f91509050805f015f9054906101000a900473ffffffffffffffffffffffffffffffffffffffff16908060010180546102a990611423565b80601f01602080910402602001604051908101604052809291908181526020018280546102d590611423565b80156103205780601f106102f757610100808354040283529160200191610320565b820191905f5260205f20905b81548152906001019060200180831161030357829003601f168201915b5050505050905082565b5f80610334610a72565b9050805f015f9054906101000a900473ffffffffffffffffffffffffffffffffffffffff1691505090565b6040518060400160405280600581526020017f352e302e3000000000000000000000000000000000000000000000000000000081525081565b5f6103a1610a99565b90505f815f0160089054906101000a900460ff161590505f825f015f9054906101000a900467ffffffffffffffff1690505f808267ffffffffffffffff161480156103e95750825b90505f60018367ffffffffffffffff1614801561041c57505f3073ffffffffffffffffffffffffffffffffffffffff163b145b90508115801561042a575080155b15610461576040517ff92ee8a900000000000000000000000000000000000000000000000000000000815260040160405180910390fd5b6001855f015f6101000a81548167ffffffffffffffff021916908367ffffffffffffffff16021790555083156104ae576001855f0160086101000a81548160ff0219169083151502179055505b6104b786610aac565b6104bf610ac0565b8315610519575f855f0160086101000a81548160ff0219169083151502179055507fc7f505b2f371ae2175ee4913f4499e1f2633a7b5936321eed1cdaeb6115181d2600160405161051091906114a8565b60405180910390a15b505050505050565b5f805f80815480929190610534906114ee565b91905055905060405180604001604052803373ffffffffffffffffffffffffffffffffffffffff1681526020018481525060015f8381526020019081526020015f205f820151815f015f6101000a81548173ffffffffffffffffffffffffffffffffffffffff021916908373ffffffffffffffffffffffffffffffffffffffff16021790555060208201518160010190816105cf91906116c9565b509050506105f78160c86040518060600160405280602a8152602001611876602a9139610aca565b80915050919050565b61060861091a565b5f73ffffffffffffffffffffffffffffffffffffffff168173ffffffffffffffffffffffffffffffffffffffff1603610678575f6040517f1e4fbdf700000000000000000000000000000000000000000000000000000000815260040161066f9190611285565b60405180910390fd5b610681816109a1565b50565b7f000000000000000000000000000000000000000000000000000000000000000073ffffffffffffffffffffffffffffffffffffffff163073ffffffffffffffffffffffffffffffffffffffff16148061073157507f000000000000000000000000000000000000000000000000000000000000000073ffffffffffffffffffffffffffffffffffffffff16610718610b09565b73ffffffffffffffffffffffffffffffffffffffff1614155b15610768576040517fe07c8dba00000000000000000000000000000000000000000000000000000000815260040160405180910390fd5b565b61077261091a565b50565b8173ffffffffffffffffffffffffffffffffffffffff166352d1902d6040518163ffffffff1660e01b8152600401602060405180830381865afa9250505080156107dd57506040513d601f19601f820116820180604052508101906107da91906117c2565b60015b61081e57816040517f4c9c8ce30000000000000000000000000000000000000000000000000000000081526004016108159190611285565b60405180910390fd5b7f360894a13ba1a3210667c828492db98dca3e2076cc3735a920a3ca505d382bbc5f1b811461088457806040517faa1d49a400000000000000000000000000000000000000000000000000000000815260040161087b9190611157565b60405180910390fd5b61088e8383610b5c565b505050565b7f000000000000000000000000000000000000000000000000000000000000000073ffffffffffffffffffffffffffffffffffffffff163073ffffffffffffffffffffffffffffffffffffffff1614610918576040517fe07c8dba00000000000000000000000000000000000000000000000000000000815260040160405180910390fd5b565b610922610bce565b73ffffffffffffffffffffffffffffffffffffffff1661094061032a565b73ffffffffffffffffffffffffffffffffffffffff161461099f57610963610bce565b6040517f118cdaa70000000000000000000000000000000000000000000000000000000081526004016109969190611285565b60405180910390fd5b565b5f6109aa610a72565b90505f815f015f9054906101000a900473ffffffffffffffffffffffffffffffffffffffff16905082825f015f6101000a81548173ffffffffffffffffffffffffffffffffffffffff021916908373ffffffffffffffffffffffffffffffffffffffff1602179055508273ffffffffffffffffffffffffffffffffffffffff168173ffffffffffffffffffffffffffffffffffffffff167f8be0079c531659141344cd1fd0a4f28419497f9722a3daafe3b4186f6b6457e060405160405180910390a3505050565b5f7f9016d09d72d40fdae2fd8ceac6b6234c7706214fd39c1cd1e609a0528c199300905090565b5f80610aa3610bd5565b90508091505090565b610ab4610bfe565b610abd81610c3e565b50565b610ac8610bfe565b565b827fb0239bfc10b7737184b67ddc7de7729284a05b54b4383288e2f7b8084a8517ef8383604051610afc9291906117ed565b60405180910390a2505050565b5f610b357f360894a13ba1a3210667c828492db98dca3e2076cc3735a920a3ca505d382bbc5f1b610cc2565b5f015f9054906101000a900473ffffffffffffffffffffffffffffffffffffffff16905090565b610b6582610ccb565b8173ffffffffffffffffffffffffffffffffffffffff167fbc7cd75a20ee27fd9adebab32041f755214dbc6bffa90cc0225b39da2e5c2d3b60405160405180910390a25f81511115610bc157610bbb8282610d94565b50610bca565b610bc9610e14565b5b5050565b5f33905090565b5f7ff0c57e16840df040f15088dc2f81fe391c3923bec73e23a9662efc9c229c6a005f1b905090565b610c06610e50565b610c3c576040517fd7e6bcf800000000000000000000000000000000000000000000000000000000815260040160405180910390fd5b565b610c46610bfe565b5f73ffffffffffffffffffffffffffffffffffffffff168173ffffffffffffffffffffffffffffffffffffffff1603610cb6575f6040517f1e4fbdf7000000000000000000000000000000000000000000000000000000008152600401610cad9190611285565b60405180910390fd5b610cbf816109a1565b50565b5f819050919050565b5f8173ffffffffffffffffffffffffffffffffffffffff163b03610d2657806040517f4c9c8ce3000000000000000000000000000000000000000000000000000000008152600401610d1d9190611285565b60405180910390fd5b80610d527f360894a13ba1a3210667c828492db98dca3e2076cc3735a920a3ca505d382bbc5f1b610cc2565b5f015f6101000a81548173ffffffffffffffffffffffffffffffffffffffff021916908373ffffffffffffffffffffffffffffffffffffffff16021790555050565b60605f808473ffffffffffffffffffffffffffffffffffffffff1684604051610dbd919061185f565b5f60405180830381855af49150503d805f8114610df5576040519150601f19603f3d011682016040523d82523d5f602084013e610dfa565b606091505b5091509150610e0a858383610e6e565b9250505092915050565b5f341115610e4e576040517fb398979f00000000000000000000000000000000000000000000000000000000815260040160405180910390fd5b565b5f610e59610a99565b5f0160089054906101000a900460ff16905090565b606082610e8357610e7e82610efb565b610ef3565b5f8251148015610ea957505f8473ffffffffffffffffffffffffffffffffffffffff163b145b15610eeb57836040517f9996b315000000000000000000000000000000000000000000000000000000008152600401610ee29190611285565b60405180910390fd5b819050610ef4565b5b9392505050565b5f81511115610f0c57805160208201fd5b6040517fd6bda27500000000000000000000000000000000000000000000000000000000815260040160405180910390fd5b5f604051905090565b5f80fd5b5f80fd5b5f73ffffffffffffffffffffffffffffffffffffffff82169050919050565b5f610f7882610f4f565b9050919050565b610f8881610f6e565b8114610f92575f80fd5b50565b5f81359050610fa381610f7f565b92915050565b5f80fd5b5f80fd5b5f601f19601f8301169050919050565b7f4e487b71000000000000000000000000000000000000000000000000000000005f52604160045260245ffd5b610ff782610fb1565b810181811067ffffffffffffffff8211171561101657611015610fc1565b5b80604052505050565b5f611028610f3e565b90506110348282610fee565b919050565b5f67ffffffffffffffff82111561105357611052610fc1565b5b61105c82610fb1565b9050602081019050919050565b828183375f83830152505050565b5f61108961108484611039565b61101f565b9050828152602081018484840111156110a5576110a4610fad565b5b6110b0848285611069565b509392505050565b5f82601f8301126110cc576110cb610fa9565b5b81356110dc848260208601611077565b91505092915050565b5f80604083850312156110fb576110fa610f47565b5b5f61110885828601610f95565b925050602083013567ffffffffffffffff81111561112957611128610f4b565b5b611135858286016110b8565b9150509250929050565b5f819050919050565b6111518161113f565b82525050565b5f60208201905061116a5f830184611148565b92915050565b5f819050919050565b61118281611170565b811461118c575f80fd5b50565b5f8135905061119d81611179565b92915050565b5f602082840312156111b8576111b7610f47565b5b5f6111c58482850161118f565b91505092915050565b6111d781610f6e565b82525050565b5f81519050919050565b5f82825260208201905092915050565b5f5b838110156112145780820151818401526020810190506111f9565b5f8484015250505050565b5f611229826111dd565b61123381856111e7565b93506112438185602086016111f7565b61124c81610fb1565b840191505092915050565b5f60408201905061126a5f8301856111ce565b818103602083015261127c818461121f565b90509392505050565b5f6020820190506112985f8301846111ce565b92915050565b5f6020820190508181035f8301526112b6818461121f565b905092915050565b5f602082840312156112d3576112d2610f47565b5b5f6112e084828501610f95565b91505092915050565b5f67ffffffffffffffff82111561130357611302610fc1565b5b61130c82610fb1565b9050602081019050919050565b5f61132b611326846112e9565b61101f565b90508281526020810184848401111561134757611346610fad565b5b611352848285611069565b509392505050565b5f82601f83011261136e5761136d610fa9565b5b813561137e848260208601611319565b91505092915050565b5f6020828403121561139c5761139b610f47565b5b5f82013567ffffffffffffffff8111156113b9576113b8610f4b565b5b6113c58482850161135a565b91505092915050565b6113d781611170565b82525050565b5f6020820190506113f05f8301846113ce565b92915050565b7f4e487b71000000000000000000000000000000000000000000000000000000005f52602260045260245ffd5b5f600282049050600182168061143a57607f821691505b60208210810361144d5761144c6113f6565b5b50919050565b5f819050919050565b5f67ffffffffffffffff82169050919050565b5f819050919050565b5f61149261148d61148884611453565b61146f565b61145c565b9050919050565b6114a281611478565b82525050565b5f6020820190506114bb5f830184611499565b92915050565b7f4e487b71000000000000000000000000000000000000000000000000000000005f52601160045260245ffd5b5f6114f882611170565b91507fffffffffffffffffffffffffffffffffffffffffffffffffffffffffffffffff820361152a576115296114c1565b5b600182019050919050565b5f819050815f5260205f209050919050565b5f6020601f8301049050919050565b5f82821b905092915050565b5f600883026115917fffffffffffffffffffffffffffffffffffffffffffffffffffffffffffffffff82611556565b61159b8683611556565b95508019841693508086168417925050509392505050565b5f6115cd6115c86115c384611170565b61146f565b611170565b9050919050565b5f819050919050565b6115e6836115b3565b6115fa6115f2826115d4565b848454611562565b825550505050565b5f90565b61160e611602565b6116198184846115dd565b505050565b5b8181101561163c576116315f82611606565b60018101905061161f565b5050565b601f8211156116815761165281611535565b61165b84611547565b8101602085101561166a578190505b61167e61167685611547565b83018261161e565b50505b505050565b5f82821c905092915050565b5f6116a15f1984600802611686565b1980831691505092915050565b5f6116b98383611692565b9150826002028217905092915050565b6116d2826111dd565b67ffffffffffffffff8111156116eb576116ea610fc1565b5b6116f58254611423565b611700828285611640565b5f60209050601f831160018114611731575f841561171f578287015190505b61172985826116ae565b865550611790565b601f19841661173f86611535565b5f5b8281101561176657848901518255600182019150602085019450602081019050611741565b86831015611783578489015161177f601f891682611692565b8355505b6001600288020188555050505b505050505050565b6117a18161113f565b81146117ab575f80fd5b50565b5f815190506117bc81611798565b92915050565b5f602082840312156117d7576117d6610f47565b5b5f6117e4848285016117ae565b91505092915050565b5f6040820190506118005f8301856113ce565b8181036020830152611812818461121f565b90509392505050565b5f81519050919050565b5f81905092915050565b5f6118398261181b565b6118438185611825565b93506118538185602086016111f7565b80840191505092915050565b5f61186a828461182f565b91508190509291505056fe7b2273756363657373223a20747275652c202264617461223a20226d6f636b5f726573706f6e7365227da264697066735822122044a72c43cf133483fb12d1b850580ee355bdad512a3e25076fbaeff9b5fb566d64736f6c63430008180033","linkReferences":{}},"methodIdentifiers":{"UPGRADE_INTERFACE_VERSION()":"ad3cb1cc","fetch(string)":"d246d0b9","initialize(address)":"c4d66de8","owner()":"8da5cb5b","proxiableUUID()":"52d1902d","renounceOwnership()":"715018a6","requests(uint256)":"81d12c58","transferOwnership(address)":"f2fde38b","upgradeToAndCall(address,bytes)":"4f1ef286"},"id":48}