{"abi":[{"type":"constructor","inputs":[],"stateMutability":"nonpayable"},{"type":"function","name":"UPGRADE_INTERFACE_VERSION","inputs":[],"outputs":[{"name":"","type":"string","internalType":"string"}],"stateMutability":"view"},{"type":"function","name":"constructUrl","inputs":[{"name":"_schemaName","type":"string","internalType":"string"},{"name":"_params","type":"tuple[]","internalType":"struct FusionLinker.KeyValuePair[]","components":[{"name":"key","type":"string","internalType":"string"},{"name":"value","type":"string","internalType":"string"}]}],"outputs":[{"name":"","type":"string","internalType":"string"}],"stateMutability":"view"},{"type":"function","name":"fetch","inputs":[{"name":"_schemaName","type":"string","internalType":"string"},{"name":"_params","type":"tuple[]","internalType":"struct FusionLinker.KeyValuePair[]","components":[{"name":"key","type":"string","internalType":"string"},{"name":"value","type":"string","internalType":"string"}]}],"outputs":[{"name":"","type":"uint256","internalType":"uint256"}],"stateMutability":"nonpayable"},{"type":"function","name":"initialize","inputs":[{"name":"initialOwner","type":"address","internalType":"address"},{"name":"_schemaForgeAddress","type":"address","internalType":"address"}],"outputs":[],"stateMutability":"nonpayable"},{"type":"function","name":"owner","inputs":[],"outputs":[{"name":"","type":"address","internalType":"address"}],"stateMutability":"view"},{"type":"function","name":"post","inputs":[{"name":"_schemaName","type":"string","internalType":"string"},{"name":"_params","type":"tuple[]","internalType":"struct FusionLinker.KeyValuePair[]","components":[{"name":"key","type":"string","internalType":"string"},{"name":"value","type":"string","internalType":"string"}]},{"name":"_body","type":"bytes","internalType":"bytes"}],"outputs":[{"name":"","type":"uint256","internalType":"uint256"}],"stateMutability":"nonpayable"},{"type":"function","name":"proxiableUUID","inputs":[],"outputs":[{"name":"","type":"bytes32","internalType":"bytes32"}],"stateMutability":"view"},{"type":"function","name":"renounceOwnership","inputs":[],"outputs":[],"stateMutability":"nonpayable"},{"type":"function","name":"requests","inputs":[{"name":"","type":"uint256","internalType":"uint256"}],"outputs":[{"name":"initiator","type":"address","internalType":"address"},{"name":"url","type":"string","internalType":"string"},{"name":"body","type":"bytes","internalType":"bytes"}],"stateMutability":"view"},{"type":"function","name":"schemaForge","inputs":[],"outputs":[{"name":"","type":"address","internalType":"contract SchemaForge"}],"stateMutability":"view"},{"type":"function","name":"transferOwnership","inputs":[{"name":"newOwner","type":"address","internalType":"address"}],"outputs":[],"stateMutability":"nonpayable"},{"type":"function","name":"upgradeToAndCall","inputs":[{"name":"newImplementation","type":"address","internalType":"address"},{"name":"data","type":"bytes","internalType":"bytes"}],"outputs":[],"stateMutability":"payable"},{"type":"event","name":"Initialized","inputs":[{"name":"version","type":"uint64","indexed":false,"internalType":"uint64"}],"anonymous":false},{"type":"event","name":"OwnershipTransferred","inputs":[{"name":"previousOwner","type":"address","indexed":true,"internalType":"address"},{"name":"newOwner","type":"address","indexed":true,"internalType":"address"}],"anonymous":false},{"type":"event","name":"ResponseReceived","inputs":[{"name":"requestId","type":"uint256","indexed":true,"internalType":"uint256"},{"name":"statusCode","type":"uint256","indexed":false,"internalType":"uint256"},{"name":"responseBody","type":"string","indexed":false,"internalType":"string"}],"anonymous":false},{"type":"event","name":"Upgraded","inputs":[{"name":"implementation","type":"address","indexed":true,"internalType":"address"}],"anonymous":false},{"type":"error","name":"AddressEmptyCode","inputs":[{"name":"target","type":"address","internalType":"address"}]},{"type":"error","name":"ERC1967InvalidImplementation","inputs":[{"name":"implementation","type":"address","internalType":"address"}]},{"type":"error","name":"ERC1967NonPayable","inputs":[]},{"type":"error","name":"FailedCall","inputs":[]},{"type":"error","name":"InvalidInitialization","inputs":[]},{"type":"error","name":"NotInitializing","inputs":[]},{"type":"error","name":"OwnableInvalidOwner","inputs":[{"name":"owner","type":"address","internalType":"address"}]},{"type":"error","name":"OwnableUnauthorizedAccount","inputs":[{"name":"account","type":"address","internalType":"address"}]},{"type":"error","name":"UUPSUnauthorizedCallContext","inputs":[]},{"type":"error","name":"UUPSUnsupportedProxiableUUID","inputs":[{"name":"slot","type":"bytes32","internalType":"bytes32"}]}],"bytecode":{"object":"0x60a06040523073ffffffffffffffffffffffffffffffffffffffff1660809073ffffffffffffffffffffffffffffffffffffffff1681525034801562000043575f80fd5b50620000546200005a60201b60201c565b620001e1565b5f6200006b6200015e60201b60201c565b9050805f0160089054906101000a900460ff1615620000b6576040517ff92ee8a900000000000000000000000000000000000000000000000000000000815260040160405180910390fd5b67ffffffffffffffff8016815f015f9054906101000a900467ffffffffffffffff1667ffffffffffffffff16146200015b5767ffffffffffffffff815f015f6101000a81548167ffffffffffffffff021916908367ffffffffffffffff1602179055507fc7f505b2f371ae2175ee4913f4499e1f2633a7b5936321eed1cdaeb6115181d267ffffffffffffffff604051620001529190620001c6565b60405180910390a15b50565b5f80620001706200017960201b60201c565b90508091505090565b5f7ff0c57e16840df040f15088dc2f81fe391c3923bec73e23a9662efc9c229c6a005f1b905090565b5f67ffffffffffffffff82169050919050565b620001c081620001a2565b82525050565b5f602082019050620001db5f830184620001b5565b92915050565b608051612835620002085f395f8181610c9701528181610cec0152610ea601526128355ff3fe6080604052600436106100a5575f3560e01c806358f0082d1161006357806358f0082d146101cb578063715018a6146101f557806381d12c581461020b5780638da5cb5b14610249578063ad3cb1cc14610273578063f2fde38b1461029d576100a5565b8062c73730146100a957806316ea000b146100e55780634687b6e414610121578063485cc9551461015d5780634f1ef2861461018557806352d1902d146101a1575b5f80fd5b3480156100b4575f80fd5b506100cf60048036038101906100ca919061179b565b6102c5565b6040516100dc9190611829565b60405180910390f35b3480156100f0575f80fd5b5061010b6004803603810190610106919061179b565b6103dd565b60405161011891906118bc565b60405180910390f35b34801561012c575f80fd5b506101476004803603810190610142919061197a565b610685565b6040516101549190611829565b60405180910390f35b348015610168575f80fd5b50610183600480360381019061017e9190611a78565b610790565b005b61019f600480360381019061019a9190611ab6565b61095a565b005b3480156101ac575f80fd5b506101b5610979565b6040516101c29190611b28565b60405180910390f35b3480156101d6575f80fd5b506101df6109aa565b6040516101ec9190611b9c565b60405180910390f35b348015610200575f80fd5b506102096109cf565b005b348015610216575f80fd5b50610231600480360381019061022c9190611bdf565b6109e2565b60405161024093929190611c6b565b60405180910390f35b348015610254575f80fd5b5061025d610b33565b60405161026a9190611cae565b60405180910390f35b34801561027e575f80fd5b50610287610b68565b60405161029491906118bc565b60405180910390f35b3480156102a8575f80fd5b506102c360048036038101906102be9190611cc7565b610ba1565b005b5f806102d184846103dd565b90505f805f8154809291906102e590611d1f565b91905055905060405180606001604052803373ffffffffffffffffffffffffffffffffffffffff16815260200183815260200160405180602001604052805f81525081525060025f8381526020019081526020015f205f820151815f015f6101000a81548173ffffffffffffffffffffffffffffffffffffffff021916908373ffffffffffffffffffffffffffffffffffffffff16021790555060208201518160010190816103949190611f57565b5060408201518160020190816103aa919061207e565b509050506103d28160c86040518060600160405280602e81526020016127d2602e9139610c25565b809250505092915050565b60605f60015f9054906101000a900473ffffffffffffffffffffffffffffffffffffffff1673ffffffffffffffffffffffffffffffffffffffff1663f1a03f1b856040518263ffffffff1660e01b815260040161043a91906118bc565b5f60405180830381865afa158015610454573d5f803e3d5ffd5b505050506040513d5f823e3d601f19601f8201168201806040525081019061047c91906123bf565b905080608001516104c2576040517f08c379a00000000000000000000000000000000000000000000000000000000081526004016104b990612450565b60405180910390fd5b82518160200151511461050a576040517f08c379a0000000000000000000000000000000000000000000000000000000008152600401610501906124de565b60405180910390fd5b5f815f01515f81518110610521576105206124fc565b5b602002602001015190505f5b845181101561067957848181518110610549576105486124fc565b5b60200260200101515f01516040516020016105649190612563565b6040516020818303038152906040528051906020012083602001518281518110610591576105906124fc565b5b60200260200101516040516020016105a99190612563565b60405160208183030381529060405280519060200120146105ff576040517f08c379a00000000000000000000000000000000000000000000000000000000081526004016105f6906125e9565b60405180910390fd5b81858281518110610613576106126124fc565b5b602002602001015160200151845f01516001846106309190612607565b81518110610641576106406124fc565b5b602002602001015160405160200161065b9392919061263a565b6040516020818303038152906040529150808060010191505061052d565b50809250505092915050565b5f8061069185856103dd565b90505f805f8154809291906106a590611d1f565b91905055905060405180606001604052803373ffffffffffffffffffffffffffffffffffffffff1681526020018381526020018581525060025f8381526020019081526020015f205f820151815f015f6101000a81548173ffffffffffffffffffffffffffffffffffffffff021916908373ffffffffffffffffffffffffffffffffffffffff16021790555060208201518160010190816107469190611f57565b50604082015181600201908161075c919061207e565b509050506107848160c86040518060600160405280602f81526020016127a3602f9139610c25565b80925050509392505050565b5f610799610c64565b90505f815f0160089054906101000a900460ff161590505f825f015f9054906101000a900467ffffffffffffffff1690505f808267ffffffffffffffff161480156107e15750825b90505f60018367ffffffffffffffff1614801561081457505f3073ffffffffffffffffffffffffffffffffffffffff163b145b905081158015610822575080155b15610859576040517ff92ee8a900000000000000000000000000000000000000000000000000000000815260040160405180910390fd5b6001855f015f6101000a81548167ffffffffffffffff021916908367ffffffffffffffff16021790555083156108a6576001855f0160086101000a81548160ff0219169083151502179055505b6108af87610c77565b6108b7610c8b565b8560015f6101000a81548173ffffffffffffffffffffffffffffffffffffffff021916908373ffffffffffffffffffffffffffffffffffffffff1602179055508315610951575f855f0160086101000a81548160ff0219169083151502179055507fc7f505b2f371ae2175ee4913f4499e1f2633a7b5936321eed1cdaeb6115181d2600160405161094891906126b6565b60405180910390a15b50505050505050565b610962610c95565b61096b82610d7b565b6109758282610d86565b5050565b5f610982610ea4565b7f360894a13ba1a3210667c828492db98dca3e2076cc3735a920a3ca505d382bbc5f1b905090565b60015f9054906101000a900473ffffffffffffffffffffffffffffffffffffffff1681565b6109d7610f2b565b6109e05f610fb2565b565b6002602052805f5260405f205f91509050805f015f9054906101000a900473ffffffffffffffffffffffffffffffffffffffff1690806001018054610a2690611d93565b80601f0160208091040260200160405190810160405280929190818152602001828054610a5290611d93565b8015610a9d5780601f10610a7457610100808354040283529160200191610a9d565b820191905f5260205f20905b815481529060010190602001808311610a8057829003601f168201915b505050505090806002018054610ab290611d93565b80601f0160208091040260200160405190810160405280929190818152602001828054610ade90611d93565b8015610b295780601f10610b0057610100808354040283529160200191610b29565b820191905f5260205f20905b815481529060010190602001808311610b0c57829003601f168201915b5050505050905083565b5f80610b3d611083565b9050805f015f9054906101000a900473ffffffffffffffffffffffffffffffffffffffff1691505090565b6040518060400160405280600581526020017f352e302e3000000000000000000000000000000000000000000000000000000081525081565b610ba9610f2b565b5f73ffffffffffffffffffffffffffffffffffffffff168173ffffffffffffffffffffffffffffffffffffffff1603610c19575f6040517f1e4fbdf7000000000000000000000000000000000000000000000000000000008152600401610c109190611cae565b60405180910390fd5b610c2281610fb2565b50565b827fb0239bfc10b7737184b67ddc7de7729284a05b54b4383288e2f7b8084a8517ef8383604051610c579291906126cf565b60405180910390a2505050565b5f80610c6e6110aa565b90508091505090565b610c7f6110d3565b610c8881611113565b50565b610c936110d3565b565b7f000000000000000000000000000000000000000000000000000000000000000073ffffffffffffffffffffffffffffffffffffffff163073ffffffffffffffffffffffffffffffffffffffff161480610d4257507f000000000000000000000000000000000000000000000000000000000000000073ffffffffffffffffffffffffffffffffffffffff16610d29611197565b73ffffffffffffffffffffffffffffffffffffffff1614155b15610d79576040517fe07c8dba00000000000000000000000000000000000000000000000000000000815260040160405180910390fd5b565b610d83610f2b565b50565b8173ffffffffffffffffffffffffffffffffffffffff166352d1902d6040518163ffffffff1660e01b8152600401602060405180830381865afa925050508015610dee57506040513d601f19601f82011682018060405250810190610deb9190612727565b60015b610e2f57816040517f4c9c8ce3000000000000000000000000000000000000000000000000000000008152600401610e269190611cae565b60405180910390fd5b7f360894a13ba1a3210667c828492db98dca3e2076cc3735a920a3ca505d382bbc5f1b8114610e9557806040517faa1d49a4000000000000000000000000000000000000000000000000000000008152600401610e8c9190611b28565b60405180910390fd5b610e9f83836111ea565b505050565b7f000000000000000000000000000000000000000000000000000000000000000073ffffffffffffffffffffffffffffffffffffffff163073ffffffffffffffffffffffffffffffffffffffff1614610f29576040517fe07c8dba00000000000000000000000000000000000000000000000000000000815260040160405180910390fd5b565b610f3361125c565b73ffffffffffffffffffffffffffffffffffffffff16610f51610b33565b73ffffffffffffffffffffffffffffffffffffffff1614610fb057610f7461125c565b6040517f118cdaa7000000000000000000000000000000000000000000000000000000008152600401610fa79190611cae565b60405180910390fd5b565b5f610fbb611083565b90505f815f015f9054906101000a900473ffffffffffffffffffffffffffffffffffffffff16905082825f015f6101000a81548173ffffffffffffffffffffffffffffffffffffffff021916908373ffffffffffffffffffffffffffffffffffffffff1602179055508273ffffffffffffffffffffffffffffffffffffffff168173ffffffffffffffffffffffffffffffffffffffff167f8be0079c531659141344cd1fd0a4f28419497f9722a3daafe3b4186f6b6457e060405160405180910390a3505050565b5f7f9016d09d72d40fdae2fd8ceac6b6234c7706214fd39c1cd1e609a0528c199300905090565b5f7ff0c57e16840df040f15088dc2f81fe391c3923bec73e23a9662efc9c229c6a005f1b905090565b6110db611263565b611111576040517fd7e6bcf800000000000000000000000000000000000000000000000000000000815260040160405180910390fd5b565b61111b6110d3565b5f73ffffffffffffffffffffffffffffffffffffffff168173ffffffffffffffffffffffffffffffffffffffff160361118b575f6040517f1e4fbdf70000000000000000000000000000000000000000000000000000000081526004016111829190611cae565b60405180910390fd5b61119481610fb2565b50565b5f6111c37f360894a13ba1a3210667c828492db98dca3e2076cc3735a920a3ca505d382bbc5f1b611281565b5f015f9054906101000a900473ffffffffffffffffffffffffffffffffffffffff16905090565b6111f38261128a565b8173ffffffffffffffffffffffffffffffffffffffff167fbc7cd75a20ee27fd9adebab32041f755214dbc6bffa90cc0225b39da2e5c2d3b60405160405180910390a25f8151111561124f576112498282611353565b50611258565b6112576113d3565b5b5050565b5f33905090565b5f61126c610c64565b5f0160089054906101000a900460ff16905090565b5f819050919050565b5f8173ffffffffffffffffffffffffffffffffffffffff163b036112e557806040517f4c9c8ce30000000000000000000000000000000000000000000000000000000081526004016112dc9190611cae565b60405180910390fd5b806113117f360894a13ba1a3210667c828492db98dca3e2076cc3735a920a3ca505d382bbc5f1b611281565b5f015f6101000a81548173ffffffffffffffffffffffffffffffffffffffff021916908373ffffffffffffffffffffffffffffffffffffffff16021790555050565b60605f808473ffffffffffffffffffffffffffffffffffffffff168460405161137c919061278c565b5f60405180830381855af49150503d805f81146113b4576040519150601f19603f3d011682016040523d82523d5f602084013e6113b9565b606091505b50915091506113c985838361140f565b9250505092915050565b5f34111561140d576040517fb398979f00000000000000000000000000000000000000000000000000000000815260040160405180910390fd5b565b6060826114245761141f8261149c565b611494565b5f825114801561144a57505f8473ffffffffffffffffffffffffffffffffffffffff163b145b1561148c57836040517f9996b3150000000000000000000000000000000000000000000000000000000081526004016114839190611cae565b60405180910390fd5b819050611495565b5b9392505050565b5f815111156114ad57805160208201fd5b6040517fd6bda27500000000000000000000000000000000000000000000000000000000815260040160405180910390fd5b5f604051905090565b5f80fd5b5f80fd5b5f80fd5b5f80fd5b5f601f19601f8301169050919050565b7f4e487b71000000000000000000000000000000000000000000000000000000005f52604160045260245ffd5b61153e826114f8565b810181811067ffffffffffffffff8211171561155d5761155c611508565b5b80604052505050565b5f61156f6114df565b905061157b8282611535565b919050565b5f67ffffffffffffffff82111561159a57611599611508565b5b6115a3826114f8565b9050602081019050919050565b828183375f83830152505050565b5f6115d06115cb84611580565b611566565b9050828152602081018484840111156115ec576115eb6114f4565b5b6115f78482856115b0565b509392505050565b5f82601f830112611613576116126114f0565b5b81356116238482602086016115be565b91505092915050565b5f67ffffffffffffffff82111561164657611645611508565b5b602082029050602081019050919050565b5f80fd5b5f80fd5b5f80fd5b5f604082840312156116785761167761165b565b5b6116826040611566565b90505f82013567ffffffffffffffff8111156116a1576116a061165f565b5b6116ad848285016115ff565b5f83015250602082013567ffffffffffffffff8111156116d0576116cf61165f565b5b6116dc848285016115ff565b60208301525092915050565b5f6116fa6116f58461162c565b611566565b9050808382526020820190506020840283018581111561171d5761171c611657565b5b835b8181101561176457803567ffffffffffffffff811115611742576117416114f0565b5b80860161174f8982611663565b8552602085019450505060208101905061171f565b5050509392505050565b5f82601f830112611782576117816114f0565b5b81356117928482602086016116e8565b91505092915050565b5f80604083850312156117b1576117b06114e8565b5b5f83013567ffffffffffffffff8111156117ce576117cd6114ec565b5b6117da858286016115ff565b925050602083013567ffffffffffffffff8111156117fb576117fa6114ec565b5b6118078582860161176e565b9150509250929050565b5f819050919050565b61182381611811565b82525050565b5f60208201905061183c5f83018461181a565b92915050565b5f81519050919050565b5f82825260208201905092915050565b5f5b8381101561187957808201518184015260208101905061185e565b5f8484015250505050565b5f61188e82611842565b611898818561184c565b93506118a881856020860161185c565b6118b1816114f8565b840191505092915050565b5f6020820190508181035f8301526118d48184611884565b905092915050565b5f67ffffffffffffffff8211156118f6576118f5611508565b5b6118ff826114f8565b9050602081019050919050565b5f61191e611919846118dc565b611566565b90508281526020810184848401111561193a576119396114f4565b5b6119458482856115b0565b509392505050565b5f82601f830112611961576119606114f0565b5b813561197184826020860161190c565b91505092915050565b5f805f60608486031215611991576119906114e8565b5b5f84013567ffffffffffffffff8111156119ae576119ad6114ec565b5b6119ba868287016115ff565b935050602084013567ffffffffffffffff8111156119db576119da6114ec565b5b6119e78682870161176e565b925050604084013567ffffffffffffffff811115611a0857611a076114ec565b5b611a148682870161194d565b9150509250925092565b5f73ffffffffffffffffffffffffffffffffffffffff82169050919050565b5f611a4782611a1e565b9050919050565b611a5781611a3d565b8114611a61575f80fd5b50565b5f81359050611a7281611a4e565b92915050565b5f8060408385031215611a8e57611a8d6114e8565b5b5f611a9b85828601611a64565b9250506020611aac85828601611a64565b9150509250929050565b5f8060408385031215611acc57611acb6114e8565b5b5f611ad985828601611a64565b925050602083013567ffffffffffffffff811115611afa57611af96114ec565b5b611b068582860161194d565b9150509250929050565b5f819050919050565b611b2281611b10565b82525050565b5f602082019050611b3b5f830184611b19565b92915050565b5f819050919050565b5f611b64611b5f611b5a84611a1e565b611b41565b611a1e565b9050919050565b5f611b7582611b4a565b9050919050565b5f611b8682611b6b565b9050919050565b611b9681611b7c565b82525050565b5f602082019050611baf5f830184611b8d565b92915050565b611bbe81611811565b8114611bc8575f80fd5b50565b5f81359050611bd981611bb5565b92915050565b5f60208284031215611bf457611bf36114e8565b5b5f611c0184828501611bcb565b91505092915050565b611c1381611a3d565b82525050565b5f81519050919050565b5f82825260208201905092915050565b5f611c3d82611c19565b611c478185611c23565b9350611c5781856020860161185c565b611c60816114f8565b840191505092915050565b5f606082019050611c7e5f830186611c0a565b8181036020830152611c908185611884565b90508181036040830152611ca48184611c33565b9050949350505050565b5f602082019050611cc15f830184611c0a565b92915050565b5f60208284031215611cdc57611cdb6114e8565b5b5f611ce984828501611a64565b91505092915050565b7f4e487b71000000000000000000000000000000000000000000000000000000005f52601160045260245ffd5b5f611d2982611811565b91507fffffffffffffffffffffffffffffffffffffffffffffffffffffffffffffffff8203611d5b57611d5a611cf2565b5b600182019050919050565b7f4e487b71000000000000000000000000000000000000000000000000000000005f52602260045260245ffd5b5f6002820490506001821680611daa57607f821691505b602082108103611dbd57611dbc611d66565b5b50919050565b5f819050815f5260205f209050919050565b5f6020601f8301049050919050565b5f82821b905092915050565b5f60088302611e1f7fffffffffffffffffffffffffffffffffffffffffffffffffffffffffffffffff82611de4565b611e298683611de4565b95508019841693508086168417925050509392505050565b5f611e5b611e56611e5184611811565b611b41565b611811565b9050919050565b5f819050919050565b611e7483611e41565b611e88611e8082611e62565b848454611df0565b825550505050565b5f90565b611e9c611e90565b611ea7818484611e6b565b505050565b5b81811015611eca57611ebf5f82611e94565b600181019050611ead565b5050565b601f821115611f0f57611ee081611dc3565b611ee984611dd5565b81016020851015611ef8578190505b611f0c611f0485611dd5565b830182611eac565b50505b505050565b5f82821c905092915050565b5f611f2f5f1984600802611f14565b1980831691505092915050565b5f611f478383611f20565b9150826002028217905092915050565b611f6082611842565b67ffffffffffffffff811115611f7957611f78611508565b5b611f838254611d93565b611f8e828285611ece565b5f60209050601f831160018114611fbf575f8415611fad578287015190505b611fb78582611f3c565b86555061201e565b601f198416611fcd86611dc3565b5f5b82811015611ff457848901518255600182019150602085019450602081019050611fcf565b86831015612011578489015161200d601f891682611f20565b8355505b6001600288020188555050505b505050505050565b5f819050815f5260205f209050919050565b601f8211156120795761204a81612026565b61205384611dd5565b81016020851015612062578190505b61207661206e85611dd5565b830182611eac565b50505b505050565b61208782611c19565b67ffffffffffffffff8111156120a05761209f611508565b5b6120aa8254611d93565b6120b5828285612038565b5f60209050601f8311600181146120e6575f84156120d4578287015190505b6120de8582611f3c565b865550612145565b601f1984166120f486612026565b5f5b8281101561211b578489015182556001820191506020850194506020810190506120f6565b868310156121385784890151612134601f891682611f20565b8355505b6001600288020188555050505b505050505050565b5f67ffffffffffffffff82111561216757612166611508565b5b602082029050602081019050919050565b5f61218a61218584611580565b611566565b9050828152602081018484840111156121a6576121a56114f4565b5b6121b184828561185c565b509392505050565b5f82601f8301126121cd576121cc6114f0565b5b81516121dd848260208601612178565b91505092915050565b5f6121f86121f38461214d565b611566565b9050808382526020820190506020840283018581111561221b5761221a611657565b5b835b8181101561226257805167ffffffffffffffff8111156122405761223f6114f0565b5b80860161224d89826121b9565b8552602085019450505060208101905061221d565b5050509392505050565b5f82601f8301126122805761227f6114f0565b5b81516122908482602086016121e6565b91505092915050565b5f815190506122a781611a4e565b92915050565b5f8115159050919050565b6122c1816122ad565b81146122cb575f80fd5b50565b5f815190506122dc816122b8565b92915050565b5f60a082840312156122f7576122f661165b565b5b61230160a0611566565b90505f82015167ffffffffffffffff8111156123205761231f61165f565b5b61232c8482850161226c565b5f83015250602082015167ffffffffffffffff81111561234f5761234e61165f565b5b61235b8482850161226c565b602083015250604082015167ffffffffffffffff81111561237f5761237e61165f565b5b61238b8482850161226c565b604083015250606061239f84828501612299565b60608301525060806123b3848285016122ce565b60808301525092915050565b5f602082840312156123d4576123d36114e8565b5b5f82015167ffffffffffffffff8111156123f1576123f06114ec565b5b6123fd848285016122e2565b91505092915050565b7f467573696f6e4c696e6b65723a20536368656d61206e6f7420666f756e6400005f82015250565b5f61243a601e8361184c565b915061244582612406565b602082019050919050565b5f6020820190508181035f8301526124678161242e565b9050919050565b7f467573696f6e4c696e6b65723a20496e636f7272656374206e756d626572206f5f8201527f6620706172616d65746572730000000000000000000000000000000000000000602082015250565b5f6124c8602c8361184c565b91506124d38261246e565b604082019050919050565b5f6020820190508181035f8301526124f5816124bc565b9050919050565b7f4e487b71000000000000000000000000000000000000000000000000000000005f52603260045260245ffd5b5f81905092915050565b5f61253d82611842565b6125478185612529565b935061255781856020860161185c565b80840191505092915050565b5f61256e8284612533565b915081905092915050565b7f467573696f6e4c696e6b65723a20496e76616c696420706172616d65746572205f8201527f6b65790000000000000000000000000000000000000000000000000000000000602082015250565b5f6125d360238361184c565b91506125de82612579565b604082019050919050565b5f6020820190508181035f830152612600816125c7565b9050919050565b5f61261182611811565b915061261c83611811565b925082820190508082111561263457612633611cf2565b5b92915050565b5f6126458286612533565b91506126518285612533565b915061265d8284612533565b9150819050949350505050565b5f819050919050565b5f67ffffffffffffffff82169050919050565b5f6126a061269b6126968461266a565b611b41565b612673565b9050919050565b6126b081612686565b82525050565b5f6020820190506126c95f8301846126a7565b92915050565b5f6040820190506126e25f83018561181a565b81810360208301526126f48184611884565b90509392505050565b61270681611b10565b8114612710575f80fd5b50565b5f81519050612721816126fd565b92915050565b5f6020828403121561273c5761273b6114e8565b5b5f61274984828501612713565b91505092915050565b5f81905092915050565b5f61276682611c19565b6127708185612752565b935061278081856020860161185c565b80840191505092915050565b5f612797828461275c565b91508190509291505056fe7b2273756363657373223a20747275652c202264617461223a20226d6f636b5f706f73745f726573706f6e7365227d7b2273756363657373223a20747275652c202264617461223a20226d6f636b5f6765745f726573706f6e7365227da2646970667358221220a4bdb4a7de449eb423f547e709c9d7e977cd28bdd14f782dbb00d07a1608bb5c64736f6c63430008180033","linkReferences":{}},"methodIdentifiers":{"UPGRADE_INTERFACE_VERSION()":"ad3cb1cc","constructUrl(string,(string,string)[])":"16ea000b","fetch(string,(string,string)[])":"00c73730","initialize(address,address)":"485cc955","owner()":"8da5cb5b","post(string,(string,string)[],bytes)":"4687b6e4","proxiableUUID()":"52d1902d","renounceOwnership()":"715018a6","requests(uint256)":"81d12c58","schemaForge()":"58f0082d","transferOwnership(address)":"f2fde38b","upgradeToAndCall(address,bytes)":"4f1ef286"},"id":48}