{"abi":[{"type":"function","name":"fetch","inputs":[{"name":"_url","type":"string","internalType":"string"}],"outputs":[{"name":"","type":"uint256","internalType":"uint256"}],"stateMutability":"nonpayable"},{"type":"function","name":"requests","inputs":[{"name":"","type":"uint256","internalType":"uint256"}],"outputs":[{"name":"initiator","type":"address","internalType":"address"},{"name":"url","type":"string","internalType":"string"}],"stateMutability":"view"},{"type":"event","name":"ResponseReceived","inputs":[{"name":"requestId","type":"uint256","indexed":true,"internalType":"uint256"},{"name":"statusCode","type":"uint256","indexed":false,"internalType":"uint256"},{"name":"responseBody","type":"string","indexed":false,"internalType":"string"}],"anonymous":false}],"bytecode":{"object":"0x608060405234801561000f575f80fd5b506109488061001d5f395ff3fe608060405234801561000f575f80fd5b5060043610610034575f3560e01c806381d12c5814610038578063d246d0b914610069575b5f80fd5b610052600480360381019061004d91906102c0565b610099565b6040516100609291906103b4565b60405180910390f35b610083600480360381019061007e919061050e565b61015e565b6040516100909190610564565b60405180910390f35b6001602052805f5260405f205f91509050805f015f9054906101000a900473ffffffffffffffffffffffffffffffffffffffff16908060010180546100dd906105aa565b80601f0160208091040260200160405190810160405280929190818152602001828054610109906105aa565b80156101545780601f1061012b57610100808354040283529160200191610154565b820191905f5260205f20905b81548152906001019060200180831161013757829003601f168201915b5050505050905082565b5f805f8081548092919061017190610607565b91905055905060405180604001604052803373ffffffffffffffffffffffffffffffffffffffff1681526020018481525060015f8381526020019081526020015f205f820151815f015f6101000a81548173ffffffffffffffffffffffffffffffffffffffff021916908373ffffffffffffffffffffffffffffffffffffffff160217905550602082015181600101908161020c91906107eb565b509050506102348160c86040518060600160405280602a81526020016108e9602a913961023d565b80915050919050565b827fb0239bfc10b7737184b67ddc7de7729284a05b54b4383288e2f7b8084a8517ef838360405161026f9291906108ba565b60405180910390a2505050565b5f604051905090565b5f80fd5b5f80fd5b5f819050919050565b61029f8161028d565b81146102a9575f80fd5b50565b5f813590506102ba81610296565b92915050565b5f602082840312156102d5576102d4610285565b5b5f6102e2848285016102ac565b91505092915050565b5f73ffffffffffffffffffffffffffffffffffffffff82169050919050565b5f610314826102eb565b9050919050565b6103248161030a565b82525050565b5f81519050919050565b5f82825260208201905092915050565b5f5b83811015610361578082015181840152602081019050610346565b5f8484015250505050565b5f601f19601f8301169050919050565b5f6103868261032a565b6103908185610334565b93506103a0818560208601610344565b6103a98161036c565b840191505092915050565b5f6040820190506103c75f83018561031b565b81810360208301526103d9818461037c565b90509392505050565b5f80fd5b5f80fd5b7f4e487b71000000000000000000000000000000000000000000000000000000005f52604160045260245ffd5b6104208261036c565b810181811067ffffffffffffffff8211171561043f5761043e6103ea565b5b80604052505050565b5f61045161027c565b905061045d8282610417565b919050565b5f67ffffffffffffffff82111561047c5761047b6103ea565b5b6104858261036c565b9050602081019050919050565b828183375f83830152505050565b5f6104b26104ad84610462565b610448565b9050828152602081018484840111156104ce576104cd6103e6565b5b6104d9848285610492565b509392505050565b5f82601f8301126104f5576104f46103e2565b5b81356105058482602086016104a0565b91505092915050565b5f6020828403121561052357610522610285565b5b5f82013567ffffffffffffffff8111156105405761053f610289565b5b61054c848285016104e1565b91505092915050565b61055e8161028d565b82525050565b5f6020820190506105775f830184610555565b92915050565b7f4e487b71000000000000000000000000000000000000000000000000000000005f52602260045260245ffd5b5f60028204905060018216806105c157607f821691505b6020821081036105d4576105d361057d565b5b50919050565b7f4e487b71000000000000000000000000000000000000000000000000000000005f52601160045260245ffd5b5f6106118261028d565b91507fffffffffffffffffffffffffffffffffffffffffffffffffffffffffffffffff8203610643576106426105da565b5b600182019050919050565b5f819050815f5260205f209050919050565b5f6020601f8301049050919050565b5f82821b905092915050565b5f600883026106aa7fffffffffffffffffffffffffffffffffffffffffffffffffffffffffffffffff8261066f565b6106b4868361066f565b95508019841693508086168417925050509392505050565b5f819050919050565b5f6106ef6106ea6106e58461028d565b6106cc565b61028d565b9050919050565b5f819050919050565b610708836106d5565b61071c610714826106f6565b84845461067b565b825550505050565b5f90565b610730610724565b61073b8184846106ff565b505050565b5b8181101561075e576107535f82610728565b600181019050610741565b5050565b601f8211156107a3576107748161064e565b61077d84610660565b8101602085101561078c578190505b6107a061079885610660565b830182610740565b50505b505050565b5f82821c905092915050565b5f6107c35f19846008026107a8565b1980831691505092915050565b5f6107db83836107b4565b9150826002028217905092915050565b6107f48261032a565b67ffffffffffffffff81111561080d5761080c6103ea565b5b61081782546105aa565b610822828285610762565b5f60209050601f831160018114610853575f8415610841578287015190505b61084b85826107d0565b8655506108b2565b601f1984166108618661064e565b5f5b8281101561088857848901518255600182019150602085019450602081019050610863565b868310156108a557848901516108a1601f8916826107b4565b8355505b6001600288020188555050505b505050505050565b5f6040820190506108cd5f830185610555565b81810360208301526108df818461037c565b9050939250505056fe7b2273756363657373223a20747275652c202264617461223a20226d6f636b5f726573706f6e7365227da26469706673582212206136cda41e1522e72296ac65956f03a0f28857013313d26343023c8a92a7bb9a64736f6c63430008180033","linkReferences":{}},"methodIdentifiers":{"fetch(string)":"d246d0b9","requests(uint256)":"81d12c58"},"id":24}